:100000000C9440030C9484030C9484030C94840398
:100010000C9484030C9484030C9484030C94840344
:100020000C9484030C9484030C9402290C94D4291A
:100030000C94F61E0C9484030C9484030C94840397
:100040000C9484030C9484030C9484030C94840314
:100050000C9484030C945D1F0C9484030C9484030F
:100060000C9484030C9484030C9484030C948403F4
:100070000C9484030C9484030C9484030C948403E4
:100080000C948E0C0C9484030C9484030C948403C1
:100090000C9484030C9484030C9484030C948403C4
:1000A0000C9484030C9484030C948403E314E314ED
:1000B0001215121552157415C316C3167F15C316E3
:1000C0002616261690169816C316BE163316331625
:1000D00033163316331633163316331633163316D8
:1000E0003316331633163316331633164316531698
:1000F0005A1661166B16392A5B2A462B5B2A462B49
:100100009D2AC02A462B152B282B07634236B79B06
:10011000D8A71A39685618AEBAAB558C1D3CB7CC67
:100120005763BD6DEDFD753EF6177231BF000000DF
:10013000803F08000000BE922449123EABAAAA2AC2
:10014000BECDCCCC4C3E00000080BEABAAAAAA3EDD
:1001500000000000BF000000803F00000000000819
:100160004178D3BB4387D1133D190E3CC3BD4282B6
:10017000AD2B3E68EC8276BED98FE1A93E4C80EF74
:10018000FFBE01C4FF7F3F000000000029A72D2211
:100190002EA539282BA42C222A324CA450A64F314C
:1001A0005134523834323832350014001A00080005
:1001B000150017001C0018000C00120013002A0084
:1001C000002004001600070009000A000B000D00C3
:1001D0000E000F003300280001201D001B00060048
:1001E00019000500110010003600370038000C20FF
:1001F0000220E0000320E300042005200620072061
:1002000008200A200B200920350014001A000900DC
:10021000130005000D000F0018001C003300310012
:10022000002004001500160017000A00100011003D
:1002300008000C001200280001201D001B00060011
:10024000070019000E000B003600370038000C20A4
:100250000220E0000320E300042005200620072000
:1002600008200A200B200920350034003600370012
:1002700013001C0009000A00060015000F002A00E8
:10028000002004001200080018000C0007000B00FA
:1002900017001100160028000120330014000D0083
:1002A0000E001B00050010001A0019001D000D2093
:1002B0000220E0000320E3000420052006200720A0
:1002C00008200A200B2009201E001E001E001E0010
:1002D0001E001E001E001E001E001E001E001E002E
:1002E000000014001A000800150017001C00180078
:1002F0000C00120013002F0000000400160007007D
:1003000009000A000B000D000E000F00330034003E
:1003100041700000000006001900000000001100FC
:10032000100000000000000030021E001F0020002E
:100330002100220023002400250026002700300091
:100340002F021E021F022002210222022302240287
:100350002502260227022F0045003A003B003C0000
:100360003D003E003F004000410042004300440089
:100370000100010001000100010001000100010075
:100380004A004E004B004D00010001000100010039
:1003900001000100080209022400250026002D00AA
:1003A0000100010001000100010001000602070236
:1003B0002100220023002E020100010001000100A3
:1003C00001000100040205021E001F0020002E0093
:1003D00001000100010001000100010026022702C6
:1003E000270037003800250201000100010001004C
:1003F00001000100010001004A0052004D004B00C5
:1004000001000100010001000100010001000100E4
:10041000500051004F004E0001000100010001009A
:1004200001000100010001000100010001000100C4
:1004300001000100010001000100010001000100B4
:100440000100010001000100010000700100010035
:1004500001000100010001000100010001004C0049
:100460000100010001001570167013700A703D70D4
:100470003E703F704070010001001C701B701870CE
:1004800019701D701E7001000100010001000100C3
:100490000100010001000100010001000100010054
:1004A0004A004E004B004D002803540068006500D0
:1004B000200050006C0061006E0063006B002000A3
:1004C0004B006500790062006F00610072006400FB
:1004D00000002C034F007200740068006F006C0075
:1004E00069006E0065006100720020004B0065002D
:1004F000790062006F006100720064007300000008
:100500000403090409026D00040100A0FA090400B3
:10051000000103010100092111010001224000072F
:1005200005810308000A0904010001030102000912
:100530002111010001224D000705820308000A096C
:10054000040200010300000009211101000122360C
:10055000000705830308000A0904030001030000E3
:100560000009211101000122390007058403100050
:10057000011201100100000008EDFE60600400019E
:1005800002000105010906A101050719E029E71587
:1005900000250195087501810205081901290595B5
:1005A000057501910295017503910105071900294F
:1005B0007715002501957875018102C00501098034
:1005C000A101850216810026B7001A81002AB70012
:1005D000751095018100C0050C0901A10185031664
:1005E0000100269C021A01002A9C027510950181C7
:1005F00000C005010902A1010901A10005091901B5
:1006000029051500250195057501810295017503E0
:1006100081010501093009311581257F9502750891
:10062000810609381581257F950175088106050C1D
:100630000A38021581257F950175088106C0C0051D
:10064000010906A101050719E029E7150025019513
:1006500008750181029501750881010508190129B4
:10066000059505750191029501750391010507191D
:100670000029FF150026FF00950675088100C000BF
:1006800011241FBECFEFDAE0DEBFCDBF04B603FEFC
:1006900024C08091AE049091AF04A091B004B091B9
:1006A000B1048730904BA740B04BB9F41092AE0420
:1006B0001092AF041092B0041092B10414BE84B72B
:1006C000877F84BF88E10FB6F89480936000109212
:1006D00060000FBEE0E0F8E3099513E0A0E0B1E0B0
:1006E000E0E6FFE502C005900D92A033B107D9F70F
:1006F00024E0A0E3B3E001C01D92AE3AB207E1F7F7
:100700000E944E260C94AE2F0C9400006E9A769A9E
:100710000C945004CF93DF93EC010E94851EBE0120
:1007200080E090E0DF91CF910C942F1B0F931F93EB
:10073000FB018F3320E79207B1F140F48D3320E7BE
:10074000920769F08E339047D9F08EC0803420E74D
:100750009207D1F18134904709F468C085C0828145
:10076000882309F482C000E010E0980140E064E0D2
:1007700070E088E292E00E940A1081E090E010C0F0
:100780008281882309F471C000E010E0980140E004
:1007900066E070E088EB91E00E940A1082E090E051
:1007A0000E948A035FC08281882309F45EC000E052
:1007B00010E0980140E068E070E088EE91E00E946F
:1007C0000A1084E090E0ECCF8281882309F44DC0C8
:1007D0000E94A40B00E010E0980140E066E070E0A9
:1007E00088E891E00E940A1084E00E94C71B85E01F
:1007F0000E94C71B86E00E94C71B87E00E94C71BA0
:1008000083E00E94A61B0E94721E811102C00E94FA
:100810004E1E0E948A1E90E090939F0480939E0437
:10082000806880939E040E948E1E10C0828188235F
:10083000E1F000E010E0980140E066E070E088E55B
:1008400091E00E940A1083E00E94C71B83EE0E9481
:1008500076138DE20E9476138DE20E94491483EE96
:100860000E94491480E001C081E01F910F9108951A
:100870000F931F932FEF89EF90E02150804090401D
:10088000E1F700C0000000E010E0980140E065E002
:1008900070E088E492E00E940A101F910F91089581
:1008A0000C9438040F931F9300E010E0980140E08F
:1008B00063E070E080E091E00E940A102FEF82E593
:1008C00097E0215080409040E1F700C000001F9168
:1008D0000F910C94A40B0F931F9300E010E098016C
:1008E00040E068E070E088E191E00E940A101F910A
:1008F0000F9108950C946B0481E008950C94960375
:100900000E943C0B0C94CA08279A2F988FEF9FEFF8
:1009100090938700809386008AE08093800089E12D
:10092000809381000C94FD230E9484040C94860320
:100930002F9881110AC080918000877F809380006A
:1009400010928D0010928C000895833041F48091B4
:1009500080008860809380008FEF9FEF12C090919D
:10096000800098609093800023E030E0281B3109DC
:10097000220F331F8FEF9FEF02C0969587952A9520
:10098000E2F790938D0080938C00089508950C9465
:10099000C6040C94C7040E9431170E94A40B0E9445
:1009A00052042FEF84E39CE0215080409040E1F717
:1009B00000C000000C94821FFF920F931F93CF93EF
:1009C000DF938C01FC01C081D1818281882349F0B1
:1009D000CE010E94B61CF82E682FCE010E945C1C2E
:1009E00004C0CE010E948A1CF82EBE018F2D0E94E9
:1009F000CD07EC01B8010E947E04882309F413C1DD
:100A0000B801CE010E94CB09882309F40CC1B801BA
:100A1000CE010E945C08882309F405C1C431F0E7C7
:100A2000DF0708F0CEC0C23080E7D80708F4A3C0C3
:100A3000F8018281882309F4AAC00E94721E8111E4
:100A400002C00E944E1E0E948A1E90E090939F0456
:100A500080939E04C230F0E7DF0721F480919E046A
:100A6000816082C0C33080E7D80721F480919E0462
:100A700082607AC0C430E0E7DE0721F480919E04F2
:100A8000846072C0C530F0E7DF0719F480919E04DE
:100A900027C0C63080E7D80721F480919E0480618A
:100AA00063C0C730E0E7DE0721F480919E048062D6
:100AB0005BC0C830F0E7DF0721F480919E048064BA
:100AC00053C0C93080E7D80721F480919E04806824
:100AD0004BC0CA30E0E7DE0729F480919E048460B1
:100AE000886042C0CB30F0E7DF0721F480919E049C
:100AF0008E7F3AC0CC3080E7D80721F480919E04E5
:100B00008D7F32C0CD30E0E7DE0721F480919E0476
:100B10008B7F2AC0CE30F0E7DF0719F480919E0466
:100B200022C0CF3080E7D80721F480919E048F7EC9
:100B30001BC0C031E0E7DE0721F480919E048F7D69
:100B400013C0C131F0E7DF0721F480919E048F7B51
:100B50000BC0C231D04721F480919E048F7704C02E
:100B600080919E048B7F877F80939E0480919E045A
:100B70000E948E1E58C0C115E0E7DE0781F0C1302B
:100B8000D047A9F081E08093300380933103C801FE
:100B9000DF91CF911F910F91FF900C947C04F8018D
:100BA0008281882309F43FC00E94CB043CC0F80135
:100BB00082818823C1F180916F04816080936F04EA
:100BC00032C0CB3380E7D807A1F4F80182818823B3
:100BD00021F01092300382E016C080913003811121
:100BE00006C086E20E94761386E20E94491482E0E3
:100BF00018C0CC33D04731F6F8018281882331F018
:100C00001092310380E20E9498140DC0809131034C
:100C1000811106C087E20E94761387E20E94491480
:100C200080E20E949F1480E0DF91CF911F910F918D
:100C3000FF9008952CE0729FF001112430E3839F10
:100C4000E00DF11D1124E60FF11DEE0FFF1FE85519
:100C5000FE4F859194910E94DF07811540E594072E
:100C600008F047C0811520E4920708F01BC1883EB8
:100C7000910520F5803E910508F08AC1883A9105DA
:100C800078F4853A910508F0A5C08130910509F402
:100C90007FC108F436C18430910508F079C131C1B3
:100CA0008D3B910508F4A1C0803C910508F429C151
:100CB000FC01EE0FFF1FE45FFF4FEEC0811530E235
:100CC000930758F4811541E0940708F061C1803F13
:100CD000910508F416C190650895811520E39207E7
:100CE00008F0DDC09F70880F991F84579E4FFC014C
:100CF000D3C0811535E5930708F043C0811544E55D
:100D0000940708F0E6C0811522E5920708F58115E1
:100D100031E5930708F0C9C0482F437021E030E067
:100D200002C0220F331F4A95E2F73C68AC0164E031
:100D3000569547956A95E1F74370342B8F708695E9
:100D4000869540E2849FC0011124822B932B089545
:100D5000282F26952695AC0143705527811593457C
:100D600008F0A8C030E2239FC001112421E030E048
:100D700002C0220F331F4A95E2F7822B932B9C6807
:100D800008958F3240E7940790F48F3120E792075F
:100D900008F0AAC0811536E5930708F49FC09C01AE
:100DA00030562115304108F0ACC09F709BC0803395
:100DB00020E7920709F49FC008F49AC0813340E706
:100DC000940709F49BC08233904709F09AC080E0F1
:100DD00093ED0895853A910509F496C0863A9105F8
:100DE00009F495C083E890E40895883A910509F4E0
:100DF00091C0893A910509F490C08A3A910509F4A5
:100E00008FC08B3A910509F48EC08C3A910509F494
:100E10008DC08B3B910509F48CC08C3B910509F486
:100E20008BC08D3A910509F48AC0803B910509F485
:100E300089C08E3A910509F488C08F3A910509F46A
:100E400087C0813B910509F486C0823B910509F476
:100E500085C0833B910509F484C0843B910509F466
:100E600083C0853B910509F482C0863B910509F456
:100E700081C0873B910509F480C0883B910509F446
:100E80007FC0893B910509F47EC08A3B910509F03A
:100E90007DC08AE296E408958591949108959927FA
:100EA000906C08959F70906A0895982F8827816F9D
:100EB000906A089530E2239FC001112421E030E0C0
:100EC00002C0220F331F4A95E2F7822B932B9A68B8
:100ED0000895982F8827846F906A08958F719927B5
:100EE000982F8827906208958F519047946D0895A8
:100EF00080E091ED089580E090ED089580E092ED1E
:100F0000089580E090E0089581E890E4089582E8F3
:100F100090E4089582EE94E4089589EE94E40895AF
:100F20008AEE94E4089585EB94E4089586EB94E4C6
:100F3000089583EB94E4089584EB94E4089587EB9B
:100F400094E408958CEC94E408958DEC94E4089571
:100F500083E895E408958AE895E4089582E995E4A4
:100F6000089584E995E4089581E296E4089583E282
:100F700096E4089584E296E4089585E296E408955F
:100F800086E296E4089587E296E4089580E094E48A
:100F9000089580E090E0089508959CE0799FF00125
:100FA000112490E3899FE00DF11D1124E60FF11D3E
:100FB000EE0FFF1FE855FE4F8591949108958238FA
:100FC000910549F1B0F48133910509F459C048F411
:100FD0008932910509F44FC08A32910509F455C050
:100FE00008958533910509F441C08933910599F03D
:100FF0000895833E910531F138F4803E910591F0DA
:10100000823E9105A9F00895863E910501F1873E43
:10101000910539F1089520919E0420FD3BC021FDEA
:1010200039C0089580919E0480FF34C089E341C097
:1010300080919E0482FF32C080919E0484FF2CC068
:1010400080E037C080919E0482FD28C0F5CF80915A
:101050009E0483FF25C080919E0484FDF1CF87EE1E
:1010600028C080919E0483FD1BC0F5CF80919E0413
:1010700085FF18C019C080919E0485FF15C012C05D
:1010800080919E0486FF12C013C080919E0486FF4B
:101090000FC00CC080EE0DC083EE0BC082EE09C005
:1010A00086EE07C085E305C089E203C081E301C085
:1010B0008AE290E008950895CF93DF93EC01FB015D
:1010C0008281811102C081E040C080913F03811183
:1010D00025C0C431D047B9F70E945B0881E08093F6
:1010E0003F030E94281F90933E0380933D0310927C
:1010F000320310923403109233031092360310928D
:101100003503109238031092370310923A0310926D
:10111000390310923C0310923B0316C080913D03AB
:1011200090913E030E94341F883C910560F68091A7
:101130003203E82FF0E0EE0FFF1FED5CFC4FD18390
:10114000C0838F5F8093320380E0DF91CF91089559
:10115000AEEBB2E021E030E08D91E82FF0E094E0DA
:10116000F595E7959A95E1F741A18F70B90102C015
:10117000660F771F8A95E2F7CB01962F909549234A
:1011800041A392A1982B92A372E0A23CB70721F74A
:10119000089508950C94C90885B7806885BF85B700
:1011A000806885BF0E94A808A2EBB2E021E030E091
:1011B0008D91E82FF0E044E0F595E7954A95E1F749
:1011C00041A18F70B90102C0660F771F8A95E2F7BF
:1011D000CB01962F9095492341A392A1982B92A3DE
:1011E00072E0AE3BB70721F7109249031092480313
:1011F000109241031092400310924B0310924A0345
:10120000109243031092420310924D0310924C032C
:10121000109245031092440310924F0310924E0314
:1012200010924703109246030C949404DF92EF92BD
:10123000FF920F931F93CF93DF930EEB12E0C0E466
:10124000D3E0EE24E394F12CE5E0DE2EF801819169
:101250008F01E82FF0E064E0F595E7956A95E1F7F6
:1012600021A18F70A70102C0440F551F8A95E2F794
:10127000CA01242B21A392A18095982392A350EA1E
:101280005A95F1F7A2EBB2E080E090E020E030E088
:101290006D91E62FF0E054E0F595E7955A95E1F76A
:1012A00040A150E06F7002C0559547956A95E2F7EE
:1012B00040FD08C0A701022E02C0440F551F0A942A
:1012C000E2F702C040E050E0842B952B2F5F3F4FA8
:1012D0002C303105E9F6288139812817390721F0AA
:1012E00099838883D09270020E94A808229682E097
:1012F000023C180709F0AACF80917002882361F19F
:10130000815080937002882339F0EFE9FFE0319734
:10131000F1F700C0000020C080914003909141038C
:101320009093490380934803809142039091430333
:1013300090934B0380934A0380914403909145031B
:1013400090934D0380934C03809146039091470303
:1013500090934F0380934E030E94800481E0DF91BD
:10136000CF911F910F91FF90EF90DF900895E82F9C
:10137000F0E0EE0FFF1FE85BFC4F80819181089544
:101380000895109297030C94A40B81E08093970327
:101390000C947A040895AF92BF92CF92DF92EF92AD
:1013A000FF920F931F93CF93DF93CDB7DEB7A39731
:1013B0000FB6F894DEBF0FBECDBF5C018B0185E197
:1013C000A81680E7B80639F4FB0182818823B1F1C1
:1013D0000E949E100BC0F6E1AF16F0E7BF0641F485
:1013E000FB018281882351F10E94A71080E033C164
:1013F000F7E1AF16F0E7BF0649F4FB0182818823CD
:10140000B9F10E949A108111EFCFE2CFF8E1AF1647
:10141000F0E7BF0639F4FB0182818823B9F10E940D
:10142000C509E4CFF9E1AF16F0E7BF0639F4FB01D7
:101430008281882359F10E94C109D8CFFAE1AF1601
:10144000F0E7BF0649F4F80182818823F9F0809122
:1014500097038111F0CFE3CFFBE1AF16F0E7BF06B2
:1014600039F4F8018281882389F00E94AE100BC004
:10147000FCE1AF16F0E7BF0649F4F801828188234A
:1014800029F00E94B9100E946B04B0CF809197039D
:10149000882309F4DFC0F0EEAF16B10489F4F80137
:1014A0008281882309F45FC00E94A40B81E08093AD
:1014B000960310929503109294031092530396CFC3
:1014C000F2EEAF16B10499F4F8018281882309F491
:1014D0004AC00E94A40B80919603882319F081E0F2
:1014E0008093950310929603109294037FCFF3EEAE
:1014F000AF16B104B1F4F80182818823A1F1809183
:101500009503882381F10E94A40B1092960381E039
:10151000809394031092520310925103109250033F
:1015200065CFF2E5AF16B10459F4F8018281882342
:1015300009F491C080917102909172020A970EC0D5
:10154000F1E5AF16B10479F4F8018281882309F43A
:1015500082C080917102909172020A9690937202F9
:101560008093710243CF2091750283E2EFE8F2E0AD
:10157000DE01119601900D928A95E1F7F8018081C4
:10158000E1E0F0E0EC0FFD1FE80FF11D8091730228
:1015900090917402E80FF91F6081772767FD7095BD
:1015A000620F711D882777FD8095982F0E94802CEF
:1015B00020E030E040E451E40E94E52B6B017C0127
:1015C000F801818164E070E0681B7109882777FD6C
:1015D0008095982F0E94802C9B01AC01C701B60119
:1015E0000E947D2B9B01AC0160E070E080E090E404
:1015F0000E94F32D20E030E04CED50E40E94902D4D
:101600006B017C01F80182818823D1F04FE050E02A
:10161000C701B6010E94AA0F809196038823A1F00A
:101620008091530394E0899FF0011124EC5AFC4F00
:10163000C082D182E282F3828F5F8093530304C021
:10164000C701B6010E94D70B81E0EFEFAE16B104DF
:1016500010F4CCCE81E0A3960FB6F894DEBF0FBE97
:10166000CDBFDF91CF911F910F91FF90EF90DF9051
:10167000CF90BF90AF90089580919403882309F490
:1016800048C08091500390915103009779F40E94D3
:10169000281F90935103809350038091520390E050
:1016A000009771F48091530390E00AC00E94341FA8
:1016B00020917102309172022817390740F3089582
:1016C0000197FC01EE0FFF1FEE0FFF1FEC5AFC4FBE
:1016D00060817181828193810E94D70BE0915203D6
:1016E00084E0E89FF0011124EC5AFC4F6081718185
:1016F000828193814FE050E00E94AA0F80915203B3
:1017000090E001966091530370E00E945E2F8093F9
:10171000520308950E94721E811102C00E944E1E43
:101720000E949C1E809396043E9A809171008D7F4A
:101730008093710082E0809390008AE18093910011
:1017400081E080939A03089580919A03811102C0E9
:101750000E948A0B1092EA031092E90380917100B3
:101760008D7F80937100809190008F7380939000A3
:101770001092AC031092AB031092E3031092E403B7
:101780001092E5031092E6031092E2031092E10337
:10179000E1ECF3E0A1EBB3E01192119211921192FE
:1017A0001D921D9283E0E13EF807B1F708958F92F4
:1017B0009F92AF92BF92CF92DF92EF92FF920F93E0
:1017C0001F93CF93DF936B017C018091AB03882340
:1017D00009F497C080919A03811102C00E948A0B7C
:1017E00001EE13E0C7E0D0E0A7019601D8019E9179
:1017F0008E917E916E918D010E94E12B811145C0E9
:10180000FE01EE0FFF1FEE0FFF1FEF53FC4F108284
:101810001182128213829E01220F331F2F543C4FDC
:10182000D9011D921C9240E050E060E070E06C5FD6
:101830007F4F4E5F5F4FC730D10551F121967F0139
:10184000E60EF71ED7018D909D90AD90BC9087015C
:1018500004501109D8018D929D92AD92BC921397BC
:10186000D7011D921D921D921C9213977901E40ECF
:10187000F51ED7010D911C91C7010297DC010D9354
:101880001C93D7011D921C92D2CF219708F0ACCFA8
:101890008091E9039091EA03019797FD05C0909329
:1018A000EA038093E90304C01092EA031092E9036B
:1018B0008091E9039091EA032091E7033091E803D6
:1018C0002817390724F01092E8031092E703892BB8
:1018D000C1F4809171008D7F8093710080919000A0
:1018E0008F73809390001092E3031092E4031092A0
:1018F000E5031092E6031092E2031092E1031092C6
:10190000AB03DF91CF911F910F91FF90EF90DF908C
:10191000CF90BF90AF909F908F9008951F920F929D
:101920000FB60F9211244F925F926F927F928F9217
:101930009F92AF92BF92CF92DF92EF92FF922F933E
:101940003F934F935F936F937F938F939F93AF9347
:10195000BF93CF93DF93EF93FF938091AB038823E3
:1019600009F49AC1C091E903D091EA031C161D063F
:101970000CF092C140909B0350909C0360909D039B
:1019800070909E0320E030E0A901C301B2010E94E3
:101990008C2D18160CF065C0C130D10509F452C069
:1019A0008091E7039091E803BE010E945E2F5C01E5
:1019B0009093E8038093E703C090AD03D090AE030B
:1019C000E090AF03F090B00320E030E040E85FE348
:1019D000C701B6010E947D2B6093AD037093AE03E7
:1019E0008093AF039093B003F501EE0FFF1FEE0F4E
:1019F000FF1FEF53FC4FA30192016081718182812F
:101A000093810E94E52B20E030E040E05EE30E94FD
:101A1000902D9B01AC01C701B6010E948C2D1816B8
:101A20008CF4C5010196BE010E945E2F9093E803DD
:101A30008093E7031092AD031092AE031092AF03B0
:101A40001092B003E091E703F091E803EE0FFF1F5F
:101A5000EE0FFF1FEF53FC4F6081718182819381F4
:101A6000CFC0C090E303D090E403E090E503F09092
:101A7000E60320E030E0A901C701B6010E94E12B96
:101A80002197882309F4A2C0FE01EE0FFF1FEE0F7D
:101A9000FF1FEF53FC4F80809180A280B380A5018F
:101AA0009401C701B6010E94E12B87FF31C0A50157
:101AB000940160E070E08CED93EC0E94E52B20E057
:101AC00030E040E451E40E94E52B20E030E040E0CB
:101AD0005FE30E94902D9B01AC0160E070E080E02C
:101AE00090E40E94F32D9B01AC01C501B4010E945A
:101AF000902D9B01AC01C701B6010E94E12B87FF2D
:101B000007C0A701960160E070E08CED93E439C056
:101B1000A5019401C701B6010E948C2D18160CF086
:101B200055C0A501940160E070E08CED93E40E9443
:101B3000E52B20E030E040E451E40E94E52B20E07A
:101B400030E040E05FE30E94902D9B01AC0160E03B
:101B500070E080E090E40E94F32D9B01AC01C50190
:101B6000B4010E94902D9B01AC01C701B6010E94F7
:101B70008C2D18165CF5A701960160E070E08CEDE5
:101B800093EC0E94E52B20E030E040E451E40E9419
:101B9000E52B20E030E040E05FE30E94902D9B01C8
:101BA000AC0160E070E080E090E40E94F32D9B01C6
:101BB000AC01C701B6010E94902D6093E3037093BE
:101BC000E4038093E5039093E60312C0CC0FDD1F7E
:101BD000CC0FDD1FCF53DC4F88819981AA81BB8157
:101BE0008093E3039093E403A093E503B093E603AB
:101BF0006091E3037091E4038091E5039091E60323
:101C000020919803309199032F3F4FEF340731F023
:101C10002F5F3F4F30939903209398030E94C41085
:101C20006B017C0120E034E244EF51E40E94E12B9F
:101C300087FF08C026EFC22E28E2D22E24EFE22E24
:101C400021E4F22E20E030E040E051E4C701B6018B
:101C50000E94902D9B01AC0160E074E284E79BE45C
:101C60000E94E52B6B017C010E94522C709397001F
:101C7000609396002091760230917702409178022D
:101C800050917902C701B6010E94902D0E94522CFA
:101C900070939900609398008091AC03882309F4B5
:101CA00032C1C090A703D090A803E090A903F090A0
:101CB000AA0320E030E0A901C701B6010E948C2DE3
:101CC0001816D4F580919803909199038F3F2FEFC8
:101CD000920729F001969093990380939803C70186
:101CE000B6010E94C41020E030E040E051E40E94C0
:101CF000902D9B01AC0160E074E284E79BE40E94BC
:101D0000E52B6B017C010E94522C7093970060932D
:101D1000960020917602309177024091780250919E
:101D20007902C701B6010E94902D0E94522C709337
:101D300099006093980008C0109297001092960046
:101D400010929900109298006091A1037091A203E3
:101D50006F5F7F4F7093A2036093A1032091960061
:101D60003091970080E090E0232BF1F0C091960035
:101D7000D09197000E947E2C6B017C01BE0180E017
:101D800090E00E947E2C9B01AC016091A3037091B6
:101D9000A4038091A5039091A6030E94E52B20E067
:101DA0003FEF4FE757E410C00E947E2C6B017C018F
:101DB00020E030EE4FEF54E46091A3037091A40350
:101DC0008091A5039091A6030E94902D9B01AC01E8
:101DD000C701B6010E948C2D87FD95C020919F03FD
:101DE0002F5F20939F0330E08091920490919304A1
:101DF00028173907A0F080919D04882319F01092CC
:101E00009F030DC0809171008D7F80937100809140
:101E100090008F73809390001092AC037CC08091EF
:101E2000A003C0919F03811128C0C0909704D09057
:101E30009804E0909904F0909A0420E030E0A90121
:101E4000C701B6010E948C2D1816BCF481E0809366
:101E5000A0031092A7031092A8031092A903109256
:101E6000AA03C092A303D092A403E092A503F09228
:101E7000A603C150C0939F0342C01092A0031092CA
:101E8000990310929803E0919404F091950448E02E
:101E9000C49FE00DF11D112480819181A281B38145
:101EA0008093A7039093A803A093A903B093AA03D8
:101EB00020E030E040E85EE36481758186819781AF
:101EC0000E94902D6B017C0160917A0270E080E0AD
:101ED00090E00E947E2C20E030E048EC52E40E942A
:101EE000E52B9B01AC01C701B6010E94902D6093C8
:101EF000A3037093A4038093A5039093A603109269
:101F0000A2031092A1038091960480FD04C0109258
:101F1000AC031092AB03FF91EF91DF91CF91BF9192
:101F2000AF919F918F917F916F915F914F913F9171
:101F30002F91FF90EF90DF90CF90BF90AF909F9048
:101F40008F907F906F905F904F900F900FBE0F908B
:101F50001F901895CF92DF92EF92FF92CF93DF936D
:101F60006B017C01EA0180919A03811102C00E94F9
:101F70008A0B8091960480FF46C08091E90390917E
:101F8000EA0308970CF03FC0809171008D7F809329
:101F900071008091AC0381110E94A40B81E08093B9
:101FA000AB03109299031092980320E030E0A9014E
:101FB000C701B6010E948C2D1816DCF48091E9034C
:101FC0009091EA03FC01EE0FFF1FEE0FFF1FEF538E
:101FD000FC4FC082D182E282F382FC01EE0FFF1F30
:101FE000EF54FC4FD183C08301969093EA03809312
:101FF000E90380917100826080937100809190006C
:10200000806880939000DF91CF91FF90EF90DF90F8
:10201000CF9008959F92AF92BF92CF92DF92EF92AE
:10202000FF920F931F93CF93DF93EC015B01942EEC
:102030006801790180919A03811102C00E948A0B84
:102040008091960480FF6AC0809171008D7F80939B
:1020500071008091AB0381110E94A40B81E08093F9
:10206000AC03D0939504C0939404B0929304A092CF
:10207000920490929D04C0929704D0929804E092AA
:102080009904F0929A041092AD031092AE0310924C
:10209000AF031092B00310929F0388819981AA81A7
:1020A000BB818093A7039093A803A093A903B09347
:1020B000AA0320E030E040E85EE36C817D818E8100
:1020C0009F810E94902D6B017C0160917A0270E0EB
:1020D00080E090E00E947E2C20E030E048EC52E46A
:1020E0000E94E52B9B01AC01C701B6010E94902D17
:1020F0006093A3037093A4038093A5039093A60316
:102100001092A2031092A1038091710082608093CB
:10211000710080919000806880939000DF91CF9152
:102120001F910F91FF90EF90DF90CF90BF90AF90F5
:102130009F900895809196048170089580919604EF
:102140008160809396040E94A01E0C94CA0980911D
:1021500096048E7F809396040C94A01E8091EB03CE
:1021600090E0019666E070E00E945E2F8093EB03A2
:1021700008958091EB0390E0019766E070E00E9483
:102180005E2F8093EB0308958F929F92AF92BF9240
:10219000CF92DF92EF92FF92CF93DF936B017C019E
:1021A000C0919803D0919903BE0180E090E00E9415
:1021B0007E2C4B015C01A701960160E070E08CE58C
:1021C00094E40E94E52B9B01AC01C501B4010E947F
:1021D000902D0E94522C9B014091EB03433009F457
:1021E00073C028F4442351F04130E9F02DC144304C
:1021F00009F4A0C0453009F4E0C026C180E090E0B9
:10220000A0E0BFE38093760290937702A0937802D8
:10221000B093790210929B0310929C0310929D033D
:1022200010929E0311C110929B0310929C03109276
:102230009D0310929E036431710540F46A3071056C
:1022400060F520E030E040E85EE32BC0693C7105BA
:1022500008F0AAC080E090E00E947E2C20E030E0F0
:1022600040EA51E40E947C2B20E030E044E353E458
:102270000E94E52B9B01AC010E94902D20E030E0F4
:1022800040E05EE30E94902D9B01AC0160E070E0B5
:1022900080E09EE30E947C2B44C020E030E040E0E0
:1022A0005FE3C701B6010E94902D6B017C0180E0C5
:1022B00090E0A0E0BEE38093760290937702A09333
:1022C0007802B0937902C0C010929B0310929C03D5
:1022D00010929D0310929E034AE0469F9001479FF3
:1022E000300D1124C90168EB7BE00E944A2FBC012C
:1022F0006C5D754077FF03C0719561957109882702
:1023000077FD8095982F0E94802C2EE333EC4EE2CF
:1023100059E30E94902D20E030E040EC5EE30E9403
:102320007D2B60937602709377028093780290936E
:1023300079028AC010929B0310929C0310929D0315
:1023400010929E03CE0183709927892BE1F0BE0184
:102350006170772780E090E00E947E2C20E030E0E2
:1023600040E05EE30E94902D20E030E040E45FE337
:102370000E947D2B6093760270937702809378029F
:10238000909379020CC080E090E0A0E0BFE38093DE
:10239000760290937702A0937802B0937902C77087
:1023A000DD27CD2B09F050C01092760210927702F3
:1023B000109278021092790247C010929B031092FB
:1023C0009C0310929D0310929E03812C912CA12CB2
:1023D0009FE3B92E8092760290927702A0927802C3
:1023E000B09279022739310578F180E090E00E94BF
:1023F0007E2C20E030E047E153E40E947C2B20E07B
:1024000030E04AE754E40E94E52B20E030E048E465
:1024100052E40E94902D20E030E040EA51E40E9416
:10242000C22C0E944D2CFB01EE0FFF1FEE0FFF1F71
:10243000EE53FD4F2081318142815381C701B601A6
:102440000E94902D6B017C01C701B601DF91CF91F5
:10245000FF90EF90DF90CF90BF90AF909F908F90C4
:1024600008959093F1038093F0030895E091F003B1
:10247000F091F103309721F00190F081E02D099463
:1024800080E00895E091F003F091F103309721F09E
:102490000280F381E02D09940895E091F003F0911A
:1024A000F103309721F00480F581E02D099408951F
:1024B0002091EE033091EF038217930771F0909310
:1024C000EF038093EE03E091F003F091F103309776
:1024D00021F00680F781E02D099408952091EC0306
:1024E0003091ED038217930771F09093ED03809381
:1024F000EC03E091F003F091F103309721F00084B8
:10250000F185E02D0994089508950C9484120E9499
:102510001F1F0E94CC080E94A51F0C94FD235F92F0
:102520006F927F928F929F92AF92BF92CF92DF92E3
:10253000EF92FF920F931F93CF93DF93CDB7DEB748
:102540002A970FB6F894DEBF0FBECDBF0E941609C2
:1025500093EFC92E93E0D92E00E010E0AA24A394B3
:10256000B12C502E802F0E94B7093C01F601E1905A
:10257000F1906F01E826F926E114F104B1F40F5F40
:102580001F4F0430110569F78FEF89838A831B82FF
:102590000E94281F8160782F9D838C8349815A81F6
:1025A0006B818D810E9448133AC080916F0481FD38
:1025B0000E94C00920E030E04501022E02C0880CD4
:1025C000991C0A94E2F7C4018E219F21892B09F1FD
:1025D0002E835F826820792081E0672809F480E0FB
:1025E00088870E94281F8160782F9A8789874E816B
:1025F0005F8168858A850E944813F801EE0FFF1FEE
:10260000ED50FC4F808191818825992591838083AD
:1026100006C02F5F3F4F2C30310571F6B0CF0E94BE
:102620003C211091F2030E9436121817D9F00E9433
:1026300036128093F2032A960FB6F894DEBF0FBECF
:10264000CDBFDF91CF911F910F91FF90EF90DF9061
:10265000CF90BF90AF909F908F907F906F905F9042
:102660000C94C9042A960FB6F894DEBF0FBECDBFF6
:10267000DF91CF911F910F91FF90EF90DF90CF905E
:10268000BF90AF909F908F907F906F905F900895D4
:10269000CF93DF93CDB7DEB72B970FB6F894DEBF9D
:1026A0000FBECDBF4F83588769877A878B87DE013E
:1026B000119686E0FD0111928A95E9F785E0FE0109
:1026C000379601900D928A95E1F749815A816B8185
:1026D0007C818D819E810E94011A2B960FB6F89401
:1026E000DEBF0FBECDBFDF91CF910895CF93C82F2E
:1026F000882309F4CCC0823859F40E94361281FD37
:10270000C6C089E30E94551D0E941F1E89E30CC0AC
:10271000833879F40E94361280FDB9C083E50E94A7
:10272000551D0E941F1E83E50E94951DCF910C949C
:102730001F1E843859F40E94361282FDA8C087E417
:102740000E94551D0E941F1E87E4EECF8CEF8C0F58
:10275000813A48F48C2F0E946923811198C08C2FF4
:102760000E94551DE3CF80E28C0F883048F4C7707B
:1027700081E001C0880FCA95EAF70E94D61DD6CF26
:102780008BE58C0F833078F4C53A29F0C63A31F4E2
:1027900082E890E005C081E890E002C083E890E024
:1027A000CF910C94581288E58C0F853108F06FC0DA
:1027B000C83A61F1C93A69F1CA3A71F1CB3A79F193
:1027C000CC3A81F1CB3B89F1CC3B91F1CD3A99F1F7
:1027D000C03BA1F1CE3AA9F1CF3AB1F1C13BB9F179
:1027E000C23BC1F1C33BC9F1C43BD1F1C53BD9F1F7
:1027F000C63BE1F1C73BE9F1C83BF1F1C93BF9F157
:10280000CA3B09F03FC08AE292E03EC082EE90E00F
:102810003BC089EE90E038C08AEE90E035C085EB91
:1028200090E032C086EB90E02FC083EB90E02CC0AC
:1028300084EB90E029C087EB90E026C08CEC90E020
:1028400023C08DEC90E020C083E891E01DC08AE8B1
:1028500091E01AC082E991E017C084E991E014C0C8
:1028600081E292E011C083E292E00EC084E292E045
:102870000BC085E292E008C086E292E005C087E2E4
:1028800092E002C080E090E0CF910C946E12CF9164
:102890000895882309F44BC0823859F40E943612F7
:1028A00081FF45C089E30E94551D0E941F1E89E3D8
:1028B0000CC0833871F40E94361280FF38C083E563
:1028C0000E94551D0E941F1E83E50E94951D0C94B9
:1028D0001F1E843859F40E94361282FF28C087E4F4
:1028E0000E94551D0E941F1E87E4EFCF9CEF980F9A
:1028F000913A58F390E2980F983050F4877091E035
:1029000001C0990F8A95EAF7892F0E94DC1DDFCF5D
:102910009BE5980F933020F480E090E00C945812DF
:10292000885A853120F480E090E00C946E1208956E
:10293000882321F00E94D61D0C941F1E0895882321
:1029400021F00E94DC1D0C941F1E08958F929F920F
:10295000AF92BF92CF92DF92EF92FF920F931F93AD
:10296000CF93DF931F92CDB7DEB74C01A62E472F32
:10297000FC01E580E2948FE0E822F280FF2021F064
:1029800079830E94F31D498149830E944E1D49812C
:10299000882381F0FF2071F080E28A0D883050F0AA
:1029A00082E00E94371D0E944E1DBB24B394B826BE
:1029B000498101C0B12CE42FE295EF70F0E0EA5AB2
:1029C000FF4F0C94722F842F807F142F1F70882349
:1029D00011F01295107FFF2089F0112309F496C1A0
:1029E00080E28A0D883020F4812F0E94D61D03C01A
:1029F000812F0E94E61D0E941F1E88C18A2D0E9401
:102A00004914112309F4BFC180E28A0D883020F4F3
:102A1000812F0E94DC1D03C0812F0E94EC1D0E94AB
:102A20001F1EB1C1242F207F842F8F70203211F000
:102A30008295807FAA2021F0F1E0AF16B1F021C08D
:102A4000FF2041F0EE2039F191E0E91224C00E940C
:102A5000061E99C1EE2021F0E1E0EE1609F493C1C3
:102A600089830E94091E89810BC1FF2029F0F5E0AE
:102A7000FE1508F488C10FC094E09E1508F483C1C8
:102A8000FFC0FF2059F0EE2031F0F401958190FF56
:102A90003DC19F7095830E94981475C1EE2009F482
:102AA000EFC03AC1242F26952695237030E02115DA
:102AB000310521F02130310561F065C1FF2021F0A1
:102AC0008A2D942F937002C080E090E00E945812EB
:102AD0005AC1FF2021F08A2D942F937002C080E00C
:102AE00090E00E946E124FC18A2DFF2019F00E94C3
:102AF000442002C00E94AC200E94312144C1842F96
:102B0000837009F04EC0F1103EC12A2D2295269502
:102B10002770220F220F8A2D8F70C82ED12CE12C06
:102B2000F12C022E04C0CC0CDD1CEE1CFF1C0A9400
:102B3000D2F7A4FE10C06FE070E080E090E004C027
:102B4000660F771F881F991F2A95D2F76095709599
:102B50008095909503C060E070E0CB01242F26950E
:102B60002695237030E02230310569F0233031059D
:102B700089F06C297D298E299F292130310571F03A
:102B80000E94531B00C16C297D298E299F290E9418
:102B90006D1BF9C00E94531BC701B6010E94391B6F
:102BA000F2C0FF2019F0842F817001C08695882320
:102BB00009F4E9C02A2D229526952770220F220FAD
:102BC0008A2D8F70C82ED12CE12CF12C022E04C03E
:102BD000CC0CDD1CEE1CFF1C0A94D2F7A4FE10C026
:102BE0006FE070E080E090E004C0660F771F881F00
:102BF000991F2A95D2F7609570958095909503C09E
:102C000060E070E0CB01242F26952695237030E0FC
:102C10002230310569F02330310589F06C297D2996
:102C20008E299F292130310571F00E94271CABC0ED
:102C30006C297D298E299F290E94411CA4C00E94D5
:102C4000271CC701B6010E940D1C9DC00A2D10E073
:102C5000F801E05EF109E531F10508F053C0EA59E9
:102C6000FF4F0C94722F1A2D1F70842F8F71FF202D
:102C700021F00E94A61B812F0ECF0E94C71B812F1F
:102C80000E949F1480C0FF2049F0F4E0FE1508F474
:102C90007AC0842F8F710E94EC1B75C085E08E1561
:102CA00008F471C0F6CFFF2039F0842F8F710E9495
:102CB000A61B69C0FF20C9F3842F8F710E94C71B18
:102CC00062C0FF2029F0842F8F710E94911B5BC08E
:102CD0000E94871B58C0FF2051F0142F1F71812FB5
:102CE0000E94A61B63E0812F0E942E1D4CC081E034
:102CF0000E94371D91E09E1508F045C082E00E94B9
:102D0000371D41C0FF2031F0EE2079F28A2D0E945C
:102D1000761339C0EE2081F28A2D0E94491433C007
:102D20004F706A2DC4010E94C9070E94AE1A2BC0C1
:102D3000F11029C0942F9F70492F50E04230510567
:102D4000B9F04CF44115510581F041305105D9F4E9
:102D50000E94252418C04330510569F044305105C4
:102D600091F48A2D0E9479240EC00E940E240BC07B
:102D70000E94412408C00E94542405C04F706A2D4F
:102D8000C4010E94CC07BB20F1F00E942A1D80FDE7
:102D90001AC0F40112820E94241D0E94A61BC401C5
:102DA0000E94F1160E94241D0F90DF91CF911F9178
:102DB0000F91FF90EF90DF90CF90BF90AF909F90DA
:102DC0008F900C94C71B0F90DF91CF911F910F91A3
:102DD000FF90EF90DF90CF90BF90AF909F908F903B
:102DE00008950F931F93CF93DF93EC0128813981CE
:102DF0008B819C81892B31F03F3F11F080E003C033
:102E00002F3FE1F781E0811113C0CE010E94DC0465
:102E1000882371F0688179818A810E94011D8C016B
:102E20000E945B1C0E942E1BB801CE010E94A614BA
:102E3000DF91CF911F910F9108950E94F31D0E9481
:102E4000031E0E94C81D0E941F1E0E94DD210E94B9
:102E5000312180E090E00E94581280E090E00C94D4
:102E60006E120E94E31D0C941D170E94F61C292F60
:102E700022952F7030E02C3031054CF42A3031058A
:102E80006CF42250310922303105B0F407C02C30E7
:102E9000310571F02F30310559F00EC0803F31F00F
:102EA00018F4803E48F402C0843F31F481E0089574
:102EB00093FB882780F9089580E00895CF93DF93EE
:102EC00000D000D01F92CDB7DEB70F900F900F90BB
:102ED0000F900F90DF91CF910895CF93DF9300D0A3
:102EE00000D000D0CDB7DEB726960FB6F894DEBF7F
:102EF0000FBECDBFDF91CF9108951F93CF93DF9386
:102F0000C091FC0316E08091FD03C81799F0D0E052
:102F10001C9FF0011D9FF00D1124E250FC4F4081D9
:102F2000518162817381848195810E946D17219600
:102F3000C770E9CFDF91CF911F91089540912E0482
:102F400050912F04609130047091310480913204CB
:102F5000909133040C946D17CF9380913304829534
:102F60008F7009F05FC080913004882309F45AC043
:102F70002091FC03A091FD0360912E0470912F0419
:102F8000809131049091320431E06F3F09F030E0DC
:102F9000B32FC6E02A1709F445C0009721F07F3F00
:102FA00021F44B2F03C041E001C040E030E040FD80
:102FB00035C0C29FF001C39FF00D1124E250FC4FB9
:102FC000418174132BC04081641328C04281411198
:102FD00025C0438154814817590710F441505109C5
:102FE000481B590B483C5105C8F4809133048F703D
:102FF00080618093330486E0829FF001839FF00D0F
:103000001124ED5FFB4F80818F70806180838EE2A1
:1030100094E00E94F116CF910C947D172F5F3F4FE3
:103020002770B8CFCF910895CF92DF92EF92FF92A1
:103030000F931F93CF93DF93CDB7DEB762970FB691
:10304000F894DEBF0FBECDBF8C0185E0F801DE0134
:103050001D9601900D928A95E1F7D8014C91119639
:103060005C91119712966C9112971396ED90FC90CB
:10307000149770912E04E0912F0420913104309127
:1030800032042115310531F0EF3F31F481E07F3F0B
:1030900019F403C081E001C080E0B82FB170CB2EDD
:1030A00080FD6CC1D0903004DD2009F4F5C0F091B2
:1030B0003304E216F30638F0C701821B930B883CF9
:1030C000910548F09BC0209530952E0D3F1D283C62
:1030D000310508F093C08F2F807F09F052C0E513AF
:1030E00014C0741312C0D62E61110FC0FF70F061AE
:1030F000F09333040E949E178EE294E00E94F11632
:1031000080913304F80185836CC1EF2831F05F3F73
:1031100031F481E04F3F19F403C081E001C080E049
:1031200080FD03C081E0862701C080E0F82FF170A8
:10313000FF2E80FF1CC08091FC032091FD0336E030
:10314000821709F428C190E0389FF001399FF00DF3
:103150001124E250FC4F7181571306C07081471350
:1031600003C07281671303C001968770E9CFD62E22
:10317000662309F436C1809133048160809333045F
:1031800053C0E51308C0741306C0611104C0D80110
:103190001596FC93AEC04D875E878D859E856A8BA4
:1031A0000E9435176A89882329F1D62E662311F1EA
:1031B00020913304822F82958F7090E002970CF457
:1031C00060C080912E0490912F0498878F83198678
:1031D000FB86EA862C87CE01079651C0E51731F1B0
:1031E0004D875E878D859E856A8B0E9435176A891B
:1031F00081112EC0C8010E94F116A4C08F2F807FBC
:1032000069F77E2DF98AE88A89890E945E178EE225
:1032100094E00E94F116EEE2F4E086E0DF011D92F8
:103220008A95E9F70E949E17D12CDBC07413D8CF82
:103230006111D6CFD8011596FC93C8010E94F116F2
:10324000EEE2F4E086E0DF011D928A95E9F7C9C05D
:10325000D62E662379F220913304822F82958F70C7
:1032600090E0029774F080912E0490912F049A833D
:1032700089831B82FD82EC822E83CE0101960E94FF
:10328000F11686E0F801AEE2B4E001900D928A9565
:10329000E1F70E94AC176FC0E216F30628F0C701F1
:1032A000821B930B9C0104C0209530952E0D3F1D71
:1032B000283C310508F052C0D62E662309F49ACF77
:1032C000E5132CC074132AC08091330480FD1DC007
:1032D000982F92959F70C9F0D80115968C931597E9
:1032E0009F3039F09F5F9295907F8F70892B159654
:1032F0008C93C8010E94F11686E0F801AEE2B4E0BA
:1033000001900D928A95E1F736C086E0F801AEE2B1
:10331000B4E001900D928A95E1F763C04D875E8716
:103320008D859E850E943517882379F086E0F80107
:10333000AEE2B4E001900D928A95E1F70E94AC17DD
:103340000E949E17DD24D3944CC080913304816089
:1033500080933304C8010E94F11643C07E2DF98A80
:10336000E88A89890E945E17EEE2F4E086E0DF01D8
:103370001D928A95E9F70E949E1733C0662309F4CF
:1033800039CF4D875E878D859E850E9435178823AE
:1033900009F430CFCBCF4D875E878D859E850E9407
:1033A000F61C292F22952F7030E0223031052CF4A5
:1033B0009F7041F0811106C00CC0243031052CF4FF
:1033C0009F7049F4805E883020F0C8010E94F11699
:1033D000CF2CDC2C06C0D80115969C91907F91F7DC
:1033E000F8CF8D2D62960FB6F894DEBF0FBECDBF1D
:1033F000DF91CF911F910F91FF90EF90DF90CF90D1
:1034000008951F93CF93DF93CDB7DEB72C970FB6F8
:10341000F894DEBF0FBECDBF4F83588769877A8788
:103420008B879C87CE0107960E9414188823C1F0D1
:103430002F8138858A859B85892B31F03F3F11F09C
:1034400080E003C02F3FE1F781E0811147C04F8149
:10345000588569857A858B859C850E946D173EC04D
:1034600086E0FE013796DE01119601900D928A9555
:10347000E1F7FF81E8854A855B854115510531F00B
:10348000EF3F31F481E0FF3F19F403C081E001C058
:1034900080E080FD23C02091FD0330E0C90101964A
:1034A000877099276091FC0370E086179707F1F108
:1034B000F983EA835D834C8396E0929FD001939FCA
:1034C000B00D1124A250BC4FFE01319601900D9217
:1034D0009A95E1F78093FD030E947D1716E0809195
:1034E000FC039091FD03891779F1189FC001112405
:1034F00082509C4F0E941418882331F1E091FC0304
:103500001E9FF0011124E250FC4F408151816281E5
:103510007381848195810E946D178091FC0390E0F6
:103520000196877099278093FC03D9CF0E943117A9
:103530001092FD031092FC03EEE2F4E086E0DF015E
:103540001D928A95E9F7CACF2C960FB6F894DEBF84
:103550000FBECDBFDF91CF911F910895EF92FF92E3
:103560000F931F93CF93DF93FC01009709F46FC073
:10357000F12CEE24E394EF0121968491843740F4FA
:10358000843008F055C0813081F0823021F15FC075
:10359000853709F447C0C0F19CE7980F903708F0D1
:1035A00056C08F770E94491445C08F010E5F1F4F90
:1035B000FE01849190E2980F983050F48770FE2DB0
:1035C00001C0FF0F8A95EAF78F2F0E94F61D15C0E4
:1035D0000E94761314C08F010E5F1F4FFE0184916D
:1035E00090E2980F983068F48770FE2D01C0FF0FAD
:1035F0008A95EAF78F2F0E94FC1D0E941F1EE8018A
:1036000019C00E944914FBCFCF010296FE01C4915C
:10361000CC2361F0EFE9FFE03197F1F700C0000043
:10362000C150F6CFCF010296FE01F490EC0102C02A
:103630000E9476138F2D882341F0EFE9FFE0319748
:10364000F1F700C000008150F6CFFE0194CFDF916A
:10365000CF911F910F91FF90EF900895089560937F
:1036600056047093570480935804909359040C9413
:103670001D170F931F93009156041091570420912A
:10368000580430915904062B172B282B392B009303
:1036900056041093570420935804309359041F91F3
:1036A0000F910C941D170F931F93009156041091C6
:1036B00057042091580430915904062317232823D6
:1036C00039230093560410935704209358043093E1
:1036D00059041F910F910C941D170F931F93009184
:1036E000560410915704209158043091590406272C
:1036F000172728273927009356041093570420933F
:103700005804309359041F910F910C941D17109277
:1037100052041092530410925404109255040C94C5
:103720001D1741E050E060E070E004C0440F551FF9
:10373000661F771F8A95D2F7409352045093530423
:1037400060935404709355040C941D1741E050E0AD
:1037500060E070E004C0440F551F661F771F8A9514
:10376000D2F78091520490915304A0915404B091E7
:103770005504842B952BA62BB72B80935204909342
:103780005304A0935404B09355040C941D1741E0C6
:1037900050E060E070E004C0440F551F661F771FC3
:1037A0008A95D2F740955095609570958091520416
:1037B00090915304A0915404B0915504842395230F
:1037C000A623B7238093520490935304A0935404E8
:1037D000B09355040C941D1741E050E060E070E098
:1037E00004C0440F551F661F771F8A95D2F780913A
:1037F000520490915304A0915404B091550484272D
:103800009527A627B7278093520490935304A0933B
:103810005404B09355040C941D170F931F930091FB
:103820005204109153042091540430915504062BF6
:10383000172B282B392B00935204109353042093F9
:103840005404309355041F910F910C941D170F933E
:103850001F9300915204109153042091540430910D
:103860005504062317232823392300935204109369
:10387000530420935404309355041F910F910C94DA
:103880001D170F931F930091520410915304209120
:103890005404309155040627172728273927009309
:1038A00052041093530420935404309355041F91F1
:1038B0000F910C941D1708952CE0929F800D1124F8
:1038C000482F4695469546958770B1E001C0BB0FDD
:1038D0008A95EAF785E0489FA00111244C5C5B4F74
:1038E00080E090E070E0FA01E80FF91FA0819B01F1
:1038F000082E02C0369527950A94E2F721703327E7
:1039000021952A272B232A2720830196853091058C
:1039100051F708952CE0929F800D1124682F669531
:1039200066956695982F977085E0689FB001112481
:103930006C5C7B4F40E050E080E0FB01E40FF51F42
:10394000208130E0092E02C0369527950A94E2F7CF
:1039500021703327042E01C0220F0A94EAF7822B2C
:103960004F5F5F4F4530510541F70895CF92DF9289
:10397000EF92FF920F931F93CF93DF93EC01C090D0
:103980005604D0905704E0905804F0905904809168
:10399000520490915304A0915404B0915504C82A44
:1039A000D92AEA2AFB2A0FE110E0B701A601002E6E
:1039B00004C076956795579547950A94D2F740FDD0
:1039C00005C00150110988F780E007C0BE01802FB3
:1039D0000E941A060197A9F3802FDF91CF911F91C2
:1039E0000F91FF90EF90DF90CF900895CF93DF93EA
:1039F000EC010E94B61CBE010E941A06DF91CF9115
:103A000008951F93CF93DF93EB019091FB039923CC
:103A100021F0CB010E94F61C13C0882349F0CB0192
:103A20000E94B61C182F682FCE010E945C1C04C097
:103A3000CB010E948A1C182FBE01812F0E941A06FA
:103A4000DF91CF911F91089580915A0485958595B6
:103A50008595089580915A048770089598E0899F0C
:103A600090011124622B60935A040C94A61B409180
:103A70005A048095842380935A04982F977069F490
:103A800050E0282F332727FD30954217530729F0A0
:103A90008595859585950C94C71B089590915A043A
:103AA000977081E009F480E0089590918E02992347
:103AB000D9F090917B029923B9F0982F969596951D
:103AC00096959F3088F5E0917C02F0917D02E90F98
:103AD000F11D877021E030E001C0220F8A95EAF7DE
:103AE0008181822B8183089540917C0250917D02D7
:103AF00020E030E09FEFFA01E20FF31F62816817C8
:103B000099F09F3F19F4611101C0922F2F5F3F4F31
:103B10002E30310581F79F3F39F0FA01E90FF11D91
:103B200097FDFA9582830895089590918E029923C6
:103B3000E1F090917B029923C1F0982F969596958C
:103B400096959F3020F5E0917C02F0917D02E90F7F
:103B5000F11D877021E030E001C0220F8A95EAF75D
:103B60002095818128232183089540917C025091E2
:103B70007D0220E030E0FA01E20FF31F92819813FA
:103B800001C012822F5F3F4F2E303105A1F70895FB
:103B900081E090E0E0917C02F0917D02E80FF91F56
:103BA0001082019680319105A9F7089590916E04D5
:103BB000982B90936E040895809590916E049823AD
:103BC00090936E04089510926E04089590916D0480
:103BD000982B90936D040895809590916D0498238F
:103BE00090936D04089510926D04089590916C0463
:103BF000982B90936C040895809590916C04982371
:103C000090936C04089510926C04089580935B0463
:103C1000089510925B04089540917C0250917D02BA
:103C200020E030E080E0FA01E20FF31F9181911172
:103C30008F5F2F5F3F4F2F303105A9F70895E09137
:103C40007C02F0917D0280916E048083E0917C0281
:103C5000F0917D02808190916D04892B8083E091A9
:103C60007C02F0917D02808190916C04892B80838D
:103C700090915B04992361F0E0917C02F0917D02C8
:103C80008081892B80830E940C1E811110925B041D
:103C900080917C0290917D020C9442126DEE7EEF39
:103CA00080E090E00E94982F60E082E090E00E9427
:103CB000862F60E083E090E00E94862F60E084E041
:103CC00090E00E94862F60E085E090E00E94862FC1
:103CD00060E086E090E00E94862F6FEF87E090E042
:103CE0000C94862F80E090E00E94802F21E08D3E92
:103CF0009E4F09F020E0822F089582E090E00C941E
:103D0000782F83E090E00C94782F682F83E090E088
:103D10000C94862F84E090E00C94782F682F84E038
:103D200090E00C94862F86E090E00C94782F682F1A
:103D300086E090E00C94862F87E090E00C94782F3A
:103D4000682F87E090E00C94862F8091A504843042
:103D500039F11092700420E488E190E00FB6F894F5
:103D6000A895809360000FBE2093600080E00E94C1
:103D7000980480E00E94C90483B7817F846083BF78
:103D800083B7816083BF7894889583B78E7F83BF24
:103D900088E10FB6F89480936000109260000FBE27
:103DA000089508950895CF9380E00E9498040E949A
:103DB000D11E0E9416090E94D21EC0E08C2F0E94C4
:103DC000B709892B29F4CF5FC430C1F780E001C067
:103DD00081E0CF9108950E94311780E00E949804FD
:103DE0000E94FD230E9436120C94C9041F920F9268
:103DF0000FB60F9211248F939F93AF93BF9380912F
:103E00007004811113C08091710490917204A0918B
:103E10007304B09174044196A11DB11D8093710487
:103E200090937204A0937304B0937404BF91AF9104
:103E30009F918F910F900FBE0F901F90189582E069
:103E400084BD93E095BD9AEF97BD80936E00089571
:103E50002FB7F8948091710490917204A09173042B
:103E6000B09174042FBF0895CF92DF92EF92FF922A
:103E70000F931F932FB7F8944091710450917204DF
:103E800060917304709174042FBF6A017B01EE246A
:103E9000FF248C0120E030E0C016D106E206F306D4
:103EA00010F441505109481B590BCA011F910F9141
:103EB000FF90EF90DF90CF9008951F920F920FB672
:103EC0000F9211248F939F93AF93BF9380917104AE
:103ED00090917204A0917304B09174040196A11D95
:103EE000B11D8093710490937204A0937304B093F6
:103EF0007404BF91AF919F918F910F900FBE0F905F
:103F00001F9018950E948728F8942FEF87EA91E672
:103F1000215080409040E1F700C0000087E090EB26
:103F2000DC018093AE049093AF04A093B004B093EF
:103F3000B1042CE088E190E00FB6F894A895809346
:103F400060000FBE20936000FFCF0E94721E81119F
:103F500002C00E944E1E0E947D1E80936F040E942C
:103F60008A1E90E090939F0480939E0487FB88278D
:103F700080F980937B020E94811E682F70E080E0B0
:103F800090E00C942F1B8091770480FF0BC0609110
:103F9000810285E0689FB00111247595679575953C
:103FA00067952AC081FF09C06091810285E0689F02
:103FB000B0011124759567951FC082FF07C06091FD
:103FC000810285E0689FB001112416C040917804F9
:103FD0004423C9F060918002461788F7209181023E
:103FE00085E0289F90011124429FC001439F900DBE
:103FF000112470E00E945E2F6038710540F4611555
:10400000710539F002C065E070E0862F08958FE7F2
:10401000089581E008958091770480FF08C0609141
:104020007F0270E0759567957595679521C081FF52
:1040300006C060917F0270E07595679519C082FF98
:1040400004C060917F0270E010C0809178048823E2
:10405000C1F060917E028617A0F790917F02989F31
:10406000C001112470E00E945E2F6038710528F4B1
:104070006115710521F0862F08958FE7089581E07D
:10408000089561E070E0F4CF803F21F40E94C31FE7
:10409000819504C0813F29F40E94C31F80937B0453
:1040A0000895823F21F40E94C31F819504C0833F7D
:1040B00029F40E94C31F80937A040895893F19F45C
:1040C0000E940B2005C08A3F31F40E940B2081958D
:1040D00080937C0408958B3F21F40E940B208195EE
:1040E00004C08C3F29F40E940B2080937D04089526
:1040F000843F21F480917904816017C0853F21F4C9
:1041000080917904826011C0863F21F48091790406
:1041100084600BC0873F21F480917904886005C0DA
:10412000883F31F480917904806180937904089507
:104130008D3F21F48091770481600BC08E3F21F484
:1041400080917704826005C08F3F29F480917704C5
:104150008460809377040895803F39F480917B04D4
:1041600087FF6CC010927B0469C0813F29F4809165
:104170007B041816BCF362C090917A04823F29F444
:1041800097FF5CC010927A0459C0833F19F4191646
:10419000CCF354C0893F41F480917C0418160CF094
:1041A0004DC010927C044AC08A3F29F480917C045F
:1041B00087FF44C0F6CF8B3F39F480917D0487FFA1
:1041C0003DC010927D043AC08C3F29F480917D045B
:1041D0001816BCF333C0843F21F4809179048E7F9C
:1041E00017C0853F21F4809179048D7F11C0863FEF
:1041F00021F4809179048B7F0BC0873F21F480915B
:104200007904877F05C0883F31F4809179048F7EDF
:104210008093790413C08D3F21F4809177048E7FC1
:104220000BC08E3F21F4809177048D7F05C08F3FB6
:1042300029F4809177048B7F8093770480917A04AE
:1042400081110EC080917B0481110AC080917C0491
:10425000811106C080917D04811102C01092780402
:10426000089589E794E00E944D120E94281F9093C0
:1042700076048093750408951F93CF93DF93809104
:104280007504909176040E94341F40917804442371
:1042900021F02091820230E006C0209183025AE092
:1042A000259F900111248217930708F482C0809102
:1042B0007A0410917B04D0917C04C0917D0481111B
:1042C00007C0111105C0D11103C0CC2309F471C07E
:1042D0004F3F19F04F5F40937804181624F40E9462
:1042E000C31F80937A0480917A0487FF05C00E94DF
:1042F000C31F819580937A04111624F40E94C31F72
:1043000080937B0480917B0487FF05C00E94C31FBC
:10431000819580937B0460917A04662339F1109132
:104320007B04112319F1772767FD7095872F972F4D
:104330000E94802C23E333E343E35FE30E94902D4C
:104340000E944D2C60937A04612F772767FD70954A
:10435000872F972F0E94802C23E333E343E35FE30F
:104360000E94902D0E944D2C60937B041D1624F416
:104370000E940B2080937C0480917C0487FF05C001
:104380000E940B20819580937C041C1624F40E94CB
:104390000B2080937D0480917D0487FF05C00E94DF
:1043A0000B20819580937D04DF91CF911F910C9418
:1043B0003121DF91CF911F910895E9E7F4E085E085
:1043C000DF011D928A95E9F7109278041092770424
:1043D0000895833081F128F4813059F08230D1F092
:1043E0000895853009F449C0B8F1863009F456C003
:1043F000089520918302862F90E0820F911D8F3FB8
:10440000910520F4620F6093830208958FEF8093EB
:104410008302089520918202862F90E0820F911DE1
:104420008F3F910520F4620F6093820208958FEF11
:1044300080938202089520918102862F90E0820F5E
:10444000911D8F3F910520F4620F609381020895C2
:104450008FEF80938102089520918002862F90E053
:10446000820F911D8F3F910520F4620F60938002AF
:1044700008958FEF80938002089520917F02862F08
:1044800090E0820F911D8F3F910520F4620F6093A1
:104490007F0208958FEF80937F02089520917E021E
:1044A000862F90E0820F911D8F3F910520F4620FBF
:1044B00060937E0208958FEF80937E02089583308B
:1044C00011F128F4813049F0823091F0089585305F
:1044D00081F120F18630C1F108958091830268173F
:1044E00020F4861B8093830208951092830208951E
:1044F00080918202681720F4861B809382020895BF
:1045000010928202089580918102681720F4861B20
:104510008093810208951092810208958091800213
:10452000681720F4861B8093800208951092800201
:10453000089580917F02681720F4861B80937F0284
:10454000089510927F02089580917E02681720F4EA
:10455000861B80937E02089510927E020895873212
:1045600020F58E3108F08EC0803109F46FC070F4F0
:10457000873009F447C018F4863089F12EC08B309B
:1045800009F496C08E3009F457C027C0863109F46B
:104590008FC020F4813109F46AC01FC0893109F449
:1045A00087C08B3109F43EC018C0883309F480C03D
:1045B00050F4893209F474C0853309F471C087322C
:1045C00009F46EC00AC0833409F46AC020F48A3347
:1045D00008F056C002C0883461F080E008958091F0
:1045E0006F04817F8E7F80936F0481E080937F04CE
:1045F00008950E9431170E94A40B0E9452040E9449
:10460000821F56C090916F04892F8095817080FB26
:1046100090F919F09660986027C0997F977F9093E2
:104620006F0446C090916F0491FB882780F921E0C8
:10463000822780FB91F913C090916F0492FB882729
:1046400080F921E0822780FB92F909C090916F04E4
:1046500093FB882780F921E0822780FB93F99093D0
:104660006F04882329F1916090936F0408950E944C
:10467000311780917B0291E0892780937B0218C0DB
:1046800027EC01C023EE280F61E070E080E090E0AD
:1046900004C0660F771F881F991F2A95D2F704C0A0
:1046A00061E070E080E090E00E942F1B0E943117D3
:1046B00081E0089580E0089580E008958E518A3069
:1046C00030F4E82FF0E0EE5EFC4F8081089580E04A
:1046D0000895CF93C82F80917F04813069F018F03E
:1046E0008230B1F180C0E0917C02F0917D02808146
:1046F000823209F07AC007C0E0917C02F0917D021D
:104700008081823249F48C2F0E945A2381111DC06E
:104710008C2F0E94AF221AC08C2F0E945C23811123
:1047200014C0C43179F048F4CB3079F0C03109F0CD
:1047300060C082E080937F0408C0C93219F0C8339A
:1047400021F057C010927F0454C081E0817053C0A3
:10475000C93289F118F5C43171F1B0F4C73009F0EC
:1047600046C08EE18093830282E3809382028AE0D6
:104770008093810284E18093800288E080937F02AD
:1047800088E280937E0233C082EE8C0F863078F50B
:104790008C2F0E945E2380937E0429C0CE34E9F0E2
:1047A00020F4CB3421F56AE013C0C13579F0C2356D
:1047B000F1F461E00DC080917E04882319F010921D
:1047C0007E0415C081E080937F0415C061E006C0BF
:1047D00080917E040E94E9210AC06AE080917E04F3
:1047E0000E945F2204C010927F0480E004C081E038
:1047F00002C080E0ABCFCF9108950E94721E81115C
:1048000002C00E944E1E0E94931E8093A00480FF4F
:1048100002C0869501C080E00C9498048091A004A9
:10482000982F9695292F30E0233031054CF49F5F67
:10483000990F8170892B81608093A0040E94971E3C
:104840008091A00486950C9498048091A004982FE0
:10485000969591F09158990F8170892B8093A004BF
:104860008E7F91E009F490E08091A00490FB80F9A4
:104870008093A0040E94971E8091A00486950C94BA
:1048800098048091A004982F909590FB80F98093D4
:10489000A0040E94971E8091A00480FF02C086950C
:1048A00001C080E00C9498043091A004232F269539
:1048B0002F5F2F77822F90E0317004972CF4220F16
:1048C000232B2093A00402C03093A0048091A00465
:1048D0008E7F91E009F490E08091A00490FB80F934
:1048E0008093A0040E94971E8091A00486950C944A
:1048F00098042091A004922F96959827990F822FC3
:104900008170892B8093A0048E7F91E009F490E060
:104910008091A00490FB80F98093A0040E94971ED0
:104920008091A00486950C94980480919004089539
:10493000CF93DF9300D01F92CDB7DEB72091A504AF
:10494000243019F523E029839B838A832093E9008F
:104950008FEF9091E800815095FD06C095ED9A95F6
:10496000F1F700008111F5CF8091E80085FF0DC0BF
:1049700040E050E063E070E0CE0101960E94F52631
:104980008091E8008E778093E8000F900F900F9051
:10499000DF91CF910895CF93DF9300D01F92CDB7D1
:1049A000DEB72091A504243021F522E029839B83E2
:1049B0008A8383E08093E9008FEF9091E800815033
:1049C00095FD06C095ED9A95F1F700008111F5CFA0
:1049D0008091E80085FF0DC040E050E063E070E0AA
:1049E000CE0101960E94F5268091E8008E77809393
:1049F000E8000F900F900F90DF91CF9108952091D4
:104A0000A5042430F1F422E02093E9002FEF309147
:104A1000E800215035FD06C035ED3A95F1F700006C
:104A20002111F5CF2091E80025FF0BC040E050E0B8
:104A300065E070E00E94F5268091E8008E77809313
:104A4000E8000895CF93DF93EC018091A5048430B2
:104A500009F046C090918E029923D9F090917B0283
:104A60009923B9F08093E9008FEF9091E80081508D
:104A700095FD06C095E19A95F1F700008111F5CFFB
:104A80008091E80085FF2CC040E050E060E170E0DC
:104A900017C081E08093E9008FEF9091E80081508A
:104AA00095FD06C095ED9A95F1F700008111F5CFBF
:104AB0008091E80085FF14C040E050E068E070E0BD
:104AC000CE010E94F5268091E8008E778093E80061
:104AD00080E1FE01A0E8B4E001900D928A95E1F733
:104AE000DF91CF9108958091A404811109C00E94A3
:104AF00087280E94E4288091E20084608093E2008D
:104B000008951092A4040895089508950C94EB1E3E
:104B100042E061EC81E00E94012842E061EC82E029
:104B20000E94012842E061EC83E00E94012842E1FA
:104B300061EC84E00C9401288091A704833009F48F
:104B400055C030F4813071F0823009F48EC0089580
:104B50008A3009F47AC08B3009F460C0893009F0DA
:104B60009CC020C08091A604813A09F096C0809133
:104B7000E800877F8093E8008091AA049091AB04BD
:104B8000892B21F060E080E090E003C060E180E8E4
:104B900094E070E00E943E278091E8008B7780933C
:104BA000E80008958091A604813209F076C08091D2
:104BB000AA049091AB04009719F0039709F06DC017
:104BC0008091E800877F8093E8008091E80082FD73
:104BD00005C08091A5048111F8CF5FC08091F100DC
:104BE000809390048091E8008B7753C08091A60455
:104BF000813A09F052C08091AA049091AB04892BAC
:104C000009F04BC08091E800877F8093E800809195
:104C1000E80080FFFCCF80918E0236C08091A60410
:104C20008132D9F58091AA049091AB04892BA9F522
:104C30008091E800877F8093E8000E943628809169
:104C4000A80480938E020C9431178091A6048132BF
:104C500021F58091E800877F8093E8000E94362844
:104C60008091A9048093910408958091A604813ACB
:104C7000A1F48091E800877F8093E8008091E800AC
:104C800080FFFCCF809191048093F1008091E80037
:104C90008E778093E8000C943628089584B7877F38
:104CA00084BF88E10FB6F894809360001092600092
:104CB0000FBE80E880936100109261000E9485120F
:104CC0000E9487280E94E4288091E20084608093FB
:104CD000E20078940E945F2B0E94871284E892E0A1
:104CE0000E9431128091A504853069F40E94A51EAE
:104CF0008091A3048823B1F30E94D31E882391F3EB
:104D00000E94DF26EFCF0E948F12ECCF292F33278E
:104D100023303105A9F06CF42130310509F442C08B
:104D20002230310509F043C08DE690E024E035E003
:104D300042C021323105C9F02232310519F137C0A4
:104D400099278130910541F08230910541F0892BFE
:104D500071F5E0E0F5E005C0E2EDF4E002C0E8EA5C
:104D6000F4E0849190E09F0126C0643000F5E62FC6
:104D7000F0E0EE0FFF1FE85DFC4F2081318189E0FC
:104D800090E019C0643098F4E62FF0E0DF01AA0F3C
:104D9000BB1FA05EBC4F2D913C91E45EFC4F808117
:104DA00090E009C082E190E021E735E004C080E0B6
:104DB00090E020E030E0FA0131832083089580E123
:104DC00089BD82E189BD09B400FEFDCF8091D80084
:104DD0008F7D8093D8008091E00082608093E00016
:104DE0008091E00081FDFCCF0895CF92DF92EF9299
:104DF000FF920F931F93CF93DF937C018B01EA0106
:104E00000E945728811131C0209731F08881998103
:104E1000081B190BE80EF91EC12CD12C0115110528
:104E200019F18091E80085FD14C08091E8008E772B
:104E30008093E800209741F0888199818C0D9D1D19
:104E40009983888385E011C00E945728882331F315
:104E50000CC0F70181917F018093F100015011098D
:104E6000FFEFCF1ADF0ADACF80E0DF91CF911F91F9
:104E70000F91FF90EF90DF90CF9008952091AC04B8
:104E80003091AD042617370748F06115710539F4E4
:104E90002091E8002E772093E80001C0B901FC01C1
:104EA00020E061157105B9F18091A504882309F40A
:104EB00040C0853009F43FC08091E80083FD3DC0CB
:104EC0008091E80082FF06C08091E80082FF26C042
:104ED00080E008958091E80080FFE3CF2091F30007
:104EE0008091F20090E0922B6115710551F08830AD
:104EF000910538F421912093F100615071090196D8
:104F0000F3CF21E0089709F020E08091E8008E7748
:104F10008093E800C6CF2111C7CFD6CF8091A504DA
:104F2000882339F0853039F08091E80083FFCCCFB9
:104F300004C082E0089583E0089581E008952091FF
:104F4000AC043091AD042617370748F061157105A0
:104F500039F42091E8002E772093E80001C0B901D0
:104F6000FC0120E061157105C1F18091A504882341
:104F700009F441C0853009F440C08091E80083FD08
:104F80003EC08091E80082FF06C08091E80082FF69
:104F900027C080E008958091E80080FFE3CF209152
:104FA000F3008091F20090E0922B6115710559F0A9
:104FB0008830910540F424912093F100319661509E
:104FC00071090196F2CF21E0089709F020E0809165
:104FD000E8008E778093E800C5CF2111C6CFD5CFEA
:104FE0008091A504882339F0853039F08091E8005C
:104FF00083FFCBCF04C082E0089583E0089581E071
:105000000895982F973058F59093E900981739F044
:105010007091EC002091ED005091F00003C0242F1E
:10502000762F50E021FF19C03091EB003E7F309386
:10503000EB003091ED003D7F3093ED003091EB00BF
:1050400031603093EB007093EC002093ED005093AF
:10505000F0002091EE0027FF07C09F5FD3CF8F7035
:105060008093E90081E0089580E008958091A6048E
:1050700087FD05C08091E80080FF0EC012C08091BE
:10508000E80082FD05C08091A5048111F8CF089544
:105090008091E8008B7708C08091A5048111EACF48
:1050A00008958091E8008E778093E80008958091BC
:1050B000E4009091E50045E62091EC0020FF21C03E
:1050C0002091E80020FD21C02091A504222389F031
:1050D000253089F02091EB0025FD0FC02091E400E0
:1050E0003091E5002817390739F3415041F0C901E3
:1050F000E3CF82E0089583E0089581E0089584E09D
:1051000008952091E80022FFDFCF80E008950E94FB
:10511000F5280E94FD28E0EEF0E080818160808328
:10512000E8EDF0E080818F77808319BCA7EDB0E0D7
:105130008C918E7F8C9380818F7E80831092A404CB
:1051400008950F931F93CF93DF930E94F5280E9439
:10515000FD28C8EDD0E088818F77888388818068BA
:10516000888388818F7D888319BC1092A504109252
:10517000A1041092A3041092A20400EE10E0F80122
:1051800080818B7F808388818160888342E060E0BA
:1051900080E00E940128E1EEF0E080818E7F808334
:1051A000E2EEF0E08081816080838081886080838E
:1051B000F80180818E7F8083888180618883DF9180
:1051C000CF911F910F910895E8EDF0E080818F7EDF
:1051D0008083E7EDF0E080818160808384E082BF9E
:1051E00081E08093A4040C94A128E8EDF0E0808194
:1051F0008E7F80831092E20008951092DA00109260
:10520000E10008951F920F920FB60F9211242F9371
:105210003F934F935F936F937F938F939F93AF933E
:10522000BF93EF93FF938091E10082FF0BC08091C9
:10523000E20082FF07C08091E1008B7F8093E10054
:105240000E945E2B8091DA0080FF1FC08091D80001
:1052500080FF1BC08091DA008E7F8093DA008091FE
:10526000D90080FF0DC080E189BD82E189BD09B40C
:1052700000FEFDCF81E08093A5040E94732505C048
:1052800019BC1092A5040E9481258091E10080FF45
:1052900019C08091E20080FF15C08091E2008E7FEE
:1052A0008093E2008091E20080618093E20080912F
:1052B000D80080628093D80019BC85E08093A50453
:1052C0000E9485258091E10084FF30C08091E2003A
:1052D00084FF2CC080E189BD82E189BD09B400FE54
:1052E000FDCF8091D8008F7D8093D8008091E10020
:1052F0008F7E8093E1008091E2008F7E8093E200B8
:105300008091E20081608093E2008091A104882373
:1053100011F084E007C08091E30087FF02C083E0C2
:1053200001C081E08093A5040E9486258091E10060
:1053300083FF29C08091E20083FF25C08091E100B6
:10534000877F8093E10082E08093A5041092A104FE
:105350008091E1008E7F8093E1008091E2008E7F5A
:105360008093E2008091E20080618093E20042E05D
:1053700060E080E00E9401288091F00088608093C6
:10538000F0000E948425FF91EF91BF91AF919F9112
:105390008F917F916F915F914F913F912F910F90DE
:1053A0000FBE0F901F9018951F920F920FB60F927D
:1053B00011242F933F934F935F936F937F938F931A
:1053C0009F93AF93BF93CF93EF93FF93C091E90067
:1053D000CF708091EC001092E9008091F000877FFF
:1053E0008093F00078940E94102A1092E900809136
:1053F000F00088608093F000C093E900FF91EF9186
:10540000CF91BF91AF919F918F917F916F915F915C
:105410004F913F912F910F900FBE0F901F901895B5
:105420001F93CF93DF93CDB7DEB7AA970FB6F8944B
:10543000DEBF0FBECDBFE6EAF4E08091F1008193BC
:1054400024E0EE3AF207C9F70E949C258091E8001B
:1054500083FF1CC12091A6043091A704832F90E004
:105460008A30910508F012C1FC01E558FF4F0C94F9
:10547000722F203881F0223809F008C18091AA04E7
:105480008F708093E9008091EB0085FB882780F97D
:105490001092E90006C08091A2049091A30491119A
:1054A00082609091E800977F9093E8008093F100EC
:1054B0001092F100C5C0822F8D7F09F0E7C0222332
:1054C00019F0223061F0E2C08091A804813009F027
:1054D000DDC0333009F080E08093A30428C08091C0
:1054E000A804811124C02091AA042F7009F4CEC011
:1054F0002093E9008091EB0080FF19C08091EB00C0
:10550000333011F4806211C080618093EB0081E040
:1055100090E0022E01C0880F0A94EAF78093EA0017
:105520001092EA008091EB0088608093EB0010926B
:10553000E9008091E800877F86C02111A7C0109103
:10554000A8041F778091E3008078812B8093E3008B
:105550008091E800877F8093E8000E943628809140
:10556000E80080FFFCCF8091E30080688093E30037
:10557000112311F083E001C082E08093A50486C06E
:105580002058223008F082C08091A8049091A9048C
:105590008C3D23E0920779F583E08A838AE2898350
:1055A0004FB7F894DE01139620E03EE051E2E32F7E
:1055B000F0E050935700E49120FF03C0E295EF70B4
:1055C0003F5FEF708E2F90E0EA3010F0C79601C079
:1055D000C0968D939D932F5F243149F74FBF8091E3
:1055E000E800877F8093E8006AE270E0CE010196D0
:1055F0000E943E2714C0AE014F5F5F4F6091AA0426
:105600000E948626009709F441C02091E800277F78
:105610002093E800BC0189819A810E949F27809194
:10562000E8008B778093E80031C0203879F58091CD
:10563000E800877F8093E8008091A1048093F100C7
:105640008091E8008E778093E8000E9436281EC083
:1056500021111CC09091A8049230C0F48091E80000
:10566000877F8093E8009093A1040E943628809160
:10567000A104811104C08091E30087FF02C084E08F
:1056800001C081E08093A5040E9488258091E800F4
:1056900083FF0AC08091E800877F8093E8008091B3
:1056A000EB0080628093EB00AA960FB6F894DEBF01
:1056B0000FBECDBFDF91CF911F9108950895CF9375
:1056C0008091A5048823B1F08091E9008F709091BA
:1056D000EC0090FF02C090E801C090E0C92FC82BF9
:1056E0001092E9008091E80083FD0E94102ACF709B
:1056F000C093E900CF9108955058BB27AA270ED038
:10570000D1C1C2D130F0C7D120F031F49F3F11F4A4
:105710001EF4B7C10EF4E095E7FB9FC1E92FD3D18A
:1057200080F3BA17620773078407950718F071F4BE
:105730009EF5EBC10EF4E0950B2EBA2FA02D0B01B8
:10574000B90190010C01CA01A0011124FF27591BC6
:1057500099F0593F50F4503E68F11A16F040A22FCC
:10576000232F342F4427585FF3CF4695379527953D
:10577000A795F0405395C9F77EF41F16BA0B620B3C
:10578000730B840BBAF09150A1F0FF0FBB1F661F83
:10579000771F881FC2F70EC0BA0F621F731F841FC6
:1057A00048F4879577956795B795F7959E3F08F0EC
:1057B000B3CF9395880F08F09927EE0F97958795AB
:1057C000089527D108F481E008950CD06BC163D10E
:1057D00040F05AD130F021F45F3F19F03EC1511131
:1057E00095C14FC170D198F39923C9F35523B1F3F3
:1057F000951B550BBB27AA2762177307840738F040
:105800009F5F5F4F220F331F441FAA1FA9F333D09E
:105810000E2E3AF0E0E830D091505040E695001C52
:10582000CAF729D0FE2F27D0660F771F881FBB1F0E
:10583000261737074807AB07B0E809F0BB0B802DE8
:10584000BF01FF2793585F4F2AF09E3F510568F034
:1058500004C15CC15F3FECF3983EDCF3869577951D
:105860006795B795F7959F5FC9F7880F911D969536
:10587000879597F90895E1E0660F771F881FBB1F92
:10588000621773078407BA0720F0621B730B840B3F
:10589000BA0BEE1F88F7E095089504D06894B11113
:1058A00035C1089518D188F09F5790F0B92F9927E6
:1058B000B751A0F0D1F0660F771F881F991F1AF01B
:1058C000BA95C9F712C0B13081F01FD1B1E0089587
:1058D0001CC1672F782F8827B85F39F0B93FCCF308
:1058E000869577956795B395D9F73EF49095809511
:1058F000709561957F4F8F4F9F4F0895E89409C031
:1059000097FB3EF490958095709561957F4F8F4FF2
:105910009F4F9923A9F0F92F96E9BB279395F69508
:10592000879577956795B795F111F8CFFAF4BB0F86
:1059300011F460FF1BC06F5F7F4F8F4F9F4F16C0EA
:10594000882311F096E911C0772321F09EE8872F74
:10595000762F05C0662371F096E8862F70E060E030
:105960002AF09A95660F771F881FDAF7880F9695A9
:10597000879597F9089588D018F011F08CD038F4F5
:1059800080C0C4C0E92F9FD0B0F35523C9F3E7FB13
:105990006217730784079507A8F199F3E92FFF278A
:1059A00088232AF03197660F771F881FDAF7952F23
:1059B0005527442332F091505040220F331F441F8B
:1059C000D2F7BB27E91BF50B621B730B840BB109E4
:1059D000C1F222F4620F731F841FB11D31972AF0A8
:1059E000660F771F881FBB1FEFCF915050405AF0B2
:1059F00041F0882332F0660F771F881F9150504086
:105A0000C1F7939530C08695779567959F5FD9F7D5
:105A1000F8CF990F0008550FAA0BE0E8FEEF161615
:105A20001706E807F907C0F012161306E407F50792
:105A300098F0621B730B840B950B39F40A2661F006
:105A4000232B242B252B21F408950A2609F4A140A9
:105A5000A6958FEF811D811D089597F99F6780E8B6
:105A600070E060E008959F3F31F0915020F48795F9
:105A700077956795B795880F911D9695879597F9B6
:105A800008959FEF80EC089500240A9416161706D7
:105A900018060906089500240A941216130614061F
:105AA00005060895092E0394000C11F4882352F082
:105AB000BB0F40F4BF2B11F460FF04C06F5F7F4F3A
:105AC0008F4F9F4F089557FD9058440F551F59F021
:105AD0005F3F71F04795880F97FB991F61F09F3FDB
