:100000000C943D030C9481030C9481030C948103A4
:100010000C9481030C9481030C9481030C94810350
:100020000C9481030C9481030C94BF290C94912AA5
:100030000C94B31F0C9481030C9481030C948103E2
:100040000C9481030C9481030C9481030C94810320
:100050000C9481030C941A200C9481030C9481035A
:100060000C9481030C9481030C9481030C94810300
:100070000C9481030C9481030C9481030C948103F0
:100080000C94E90C0C9481030C9481030C9481036F
:100090000C9481030C9481030C9481030C948103D0
:1000A0000C9481030C9481030C9481031916191686
:1000B000481648168816AA16F917F917B516F9172B
:1000C0005C175C17C617CE17F917F417691769176D
:1000D0006917691769176917691769176917691720
:1000E00069176917691769176917691779178917E0
:1000F00090179717A117F62A182B032C182B032CEF
:100100005A2B7D2B032CD22BE52B07634236B79B52
:10011000D8A71A39685618AEBAAB558C1D3CB7CC67
:100120005763BD6DEDFD753EF6177231BF000000DF
:10013000803F08000000BE922449123EABAAAA2AC2
:10014000BECDCCCC4C3E00000080BEABAAAAAA3EDD
:1001500000000000BF000000803F00000000000819
:100160004178D3BB4387D1133D190E3CC3BD4282B6
:10017000AD2B3E68EC8276BED98FE1A93E4C80EF74
:10018000FFBE01C4FF7F3F000000000029282D2290
:100190002EA52BA42C222A324CA450A6343238325D
:1001A0002831350014001A000800150017001C0043
:1001B00018000C00120013002A0000200400160092
:1001C000070009000A000B000D000E000F003300AD
:1001D0000A2001201D001B00060019000500110067
:1001E000100036003700380008200220E00039688F
:1001F000E3000320042005200620072051645268F4
:100200004F61350014001A000900130005000D00AD
:100210000F0018001C0033003100002004001500FE
:10022000160017000A001000110008000C00120050
:100230000A2001201D001B000600070019000E0007
:100240000B0036003700380008200220E000396833
:10025000E300032004200520062007205164526893
:100260004F61350034003600370013001C000900D0
:100270000A00060015000F002A00002004001200EA
:10028000080018000C0007000B00170011001600F2
:100290000A200120330014000D000E001B00050091
:1002A00010001A0019001D0009200220E000396822
:1002B000E300032004200520062007205164526833
:1002C0004F611E001E001E001E001E001E001E00AC
:1002D0001E001E001E001E001E00000014001A005A
:1002E0000800150017001C0018000C001200130075
:1002F0002F00000004001600070009000A000B0090
:100300000D000E000F0033003400417000000000AB
:10031000060019000000000011001000000000009D
:10032000000030021E001F002000210022002300D8
:100330002400250026002700300002711E021F0243
:100340002002210222022302240225020071270238
:10035000017145003A003B003C003D003E003F007B
:100360004000410042004300440001000100010040
:10037000010001000100010001004A004E004B0095
:100380004D00010001000100010001000100080210
:1003900009022400250026002D000751010001005C
:1003A00001000100010006020702210022002300D3
:1003B0002E02010001000100010001000100040201
:1003C00005021E001F0020002E0001000100010098
:1003D0000100010001002602270227003700380033
:1003E00025020100010001000100010001000100DF
:1003F00001004A0052004D004B00010001000100C5
:1004000001000100010001000100500051004F00F7
:100410004E00010001000100010001000100010087
:1004200001000100010001000100010001000100C4
:1004300001000100010001000100010001000100B4
:100440000100010000700100010001000100010035
:1004500001000100010001004C0001000100010049
:100460001570167013700A703D703E703F704070CA
:10047000010001001C701B70187019701D701E7037
:100480000100010001000100010001000100010064
:10049000010001000100010001004A004E004B0074
:1004A0004D002803540068006500200050006C00D7
:1004B00061006E0063006B0020004B006500790056
:1004C00062006F0061007200640000002C034F00A6
:1004D0007200740068006F006C0069006E006500B7
:1004E0006100720020004B006500790062006F001F
:1004F0006100720064007300000004030904090233
:100500006D00040100A0FA090400000103010100CC
:100510000921110100012240000705810308000A9A
:100520000904010001030102000921110100012257
:100530004D000705820308000A09040200010300B8
:10054000000009211101000122360007058303087C
:10055000000A090403000103000000092111010041
:100560000122390007058403100001120110010067
:10057000000008EDFE6060040001020001050109B1
:1005800006A101050719E029E71500250195087561
:10059000018102050819012905950575019102954A
:1005A00001750391010507190029771500250195AB
:1005B0007875018102C005010980A10185021681BB
:1005C0000026B7001A81002AB70075109501810036
:1005D000C0050C0901A1018503160100269C021A21
:1005E00001002A9C02751095018100C005010902D5
:1005F000A1010901A100050919012905150025011D
:100600009505750181029501750381010501093088
:1006100009311581257F95027508810609381581F4
:10062000257F950175088106050C0A38021581257C
:100630007F950175088106C0C005010906A1010565
:100640000719E029E7150025019508750181029534
:1006500001750881010508190129059505750191A4
:10066000029501750391010507190029FF15002660
:10067000FF00950675088100C00011241FBECFEF52
:10068000DAE0DEBFCDBF04B603FE24C08091AD0426
:100690009091AE04A091AF04B091B0048730904B1C
:1006A000A740B04BB9F41092AD041092AE04109272
:1006B000AF041092B00414BE84B7877F84BF88E172
:1006C0000FB6F89480936000109260000FBEE0E0D7
:1006D000F8E3099513E0A0E0B1E0EAEDF0E602C02E
:1006E00005900D92A834B107D9F724E0A8E4B3E04F
:1006F00001C01D92AD3AB207E1F70E940B270C949E
:100700006B300C9400006E9A769A0C94B304CF93DD
:10071000DF93EC018881823070F081EE0E94AC148E
:1007200086E20E94AC1486E20E947F1587E20E9456
:10073000AC1487E207C081EE0E94AC1486E20E94EE
:10074000AC1486E20E947F1581EE0E947F15CE01D7
:10075000DF91CF910C949412CF93DF93EC018881B9
:10076000823058F08FE20E94AC148FE20E947F1515
:1007700080E30E94AC1480E304C08FE20E94AC14BA
:100780008FE20E947F15CE01DF91CF910C949412DD
:10079000CF93DF93EC018881823070F081EE0E946C
:1007A000AC148FE20E94AC148FE20E947F1580E3AC
:1007B0000E94AC1480E307C081EE0E94AC148FE26B
:1007C0000E94AC148FE20E947F1581EE0E947F157B
:1007D000CE01DF91CF910C949412CF93DF93EC0173
:1007E0000E94421FBE0180E090E0DF91CF910C9407
:1007F000651C0F931F93FB018F3320E79207B1F124
:1008000040F48D3320E7920769F08E339047D9F09A
:100810008EC0803420E79207D1F18134904709F4EB
:1008200068C085C08281882309F482C000E010E09E
:10083000980140E064E070E088E292E00E94651078
:1008400081E090E010C08281882309F471C000E04B
:1008500010E0980140E066E070E088EB91E00E94D3
:10086000651082E090E00E94ED035FC082818823E2
:1008700009F45EC000E010E0980140E068E070E03C
:1008800088EE91E00E94651084E090E0ECCF8281D8
:10089000882309F44DC00E94FF0B00E010E098018E
:1008A00040E066E070E088E891E00E94651084E036
:1008B0000E94FD1C85E00E94FD1C86E00E94FD1C3C
:1008C00087E00E94FD1C83E00E94DC1C0E942F1F19
:1008D000811102C00E940B1F0E94471F90E090935D
:1008E0009E0480939D04806880939D040E944B1F0A
:1008F00010C082818823E1F000E010E0980140E020
:1009000066E070E088E591E00E94651083E00E9457
:10091000FD1C83EE0E94AC148DE20E94AC148DE2AB
:100920000E947F1583EE0E947F1580E001C081E068
:100930001F910F9108950F931F932FEF89EF90E070
:10094000215080409040E1F700C0000000E010E03E
:10095000980140E065E070E088E492E00E94651054
:100960001F910F9108950C949B040F931F9300E027
:1009700010E0980140E063E070E080E091E00E94C8
:1009800065102FEF82E597E0215080409040E1F71D
:1009900000C000001F910F910C94FF0B0F931F9349
:1009A00000E010E0980140E068E070E088E191E04C
:1009B0000E9465101F910F9108950C94CE0481E060
:1009C00008950C94F9030E94970B0E9444130C9411
:1009D0002509279A2F988FEF9FEF90938700809398
:1009E00086008AE08093800089E1809381000C94E6
:1009F000BA240E94E9040C9483032F9881110AC041
:100A000080918000877F8093800010928D001092EB
:100A10008C000895833041F4809180008860809339
:100A200080008FEF9FEF12C09091800098609093AC
:100A3000800023E030E0281B3109220F331F8FEFA5
:100A40009FEF02C0969587952A95E2F790938D00C7
:100A500080938C00089508950C942B050C942C051C
:100A60000E9467180E94FF0B0E94B5042FEF84E3D9
:100A70009CE0215080409040E1F700C000000C94C1
:100A80003F200F931F93CF93DF938C01FC01C08114
:100A9000D181CE010E94921DBE010E942808EC0166
:100AA000B8010E94E104882309F419C1B801CE01FC
:100AB0000E94260A882309F412C1B801CE010E94BF
:100AC000B212882309F40BC1B801CE010E94B70805
:100AD000882309F404C1C431F0E7DF0708F0CDC072
:100AE000C23080E7D80708F4A3C0F80182818823C8
:100AF00009F4AAC00E942F1F811102C00E940B1F7F
:100B00000E94471F90E090939E0480939D04C23002
:100B1000F0E7DF0721F480919D04816082C0C3303B
:100B200080E7D80721F480919D0482607AC0C430A8
:100B3000E0E7DE0721F480919D04846072C0C53037
:100B4000F0E7DF0719F480919D0427C0C63080E7E5
:100B5000D80721F480919D04806163C0C730E0E72D
:100B6000DE0721F480919D0480625BC0C830F0E70D
:100B7000DF0721F480919D04806453C0C93080E771
:100B8000D80721F480919D0480684BC0CA30E0E70B
:100B9000DE0729F480919D048460886042C0CB30D8
:100BA000F0E7DF0721F480919D048E7F3AC0CC30BE
:100BB00080E7D80721F480919D048D7F32C0CD302D
:100BC000E0E7DE0721F480919D048B7F2AC0CE30C0
:100BD000F0E7DF0719F480919D0422C0CF3080E751
:100BE000D80721F480919D048F7E1BC0C031E0E7BF
:100BF000DE0721F480919D048F7D13C0C131F0E7A1
:100C0000DF0721F480919D048F7B0BC0C231D04758
:100C100021F480919D048F7704C080919D048B7F87
:100C2000877F80939D0480919D040E944B1F57C035
:100C3000C115E0E7DE0779F0C130D047A1F081E0CF
:100C40008093480380934903C801DF91CF911F919E
:100C50000F910C94DF04F8018281882309F43FC0CE
:100C60000E9430053CC0F80182818823C1F1809147
:100C70006E04816080936E0432C0CB3380E7D80766
:100C8000A1F4F8018281882321F01092480382E0C8
:100C900016C080914803811106C086E20E94AC1400
:100CA00086E20E947F1582E018C0CC33D04739F627
:100CB000F8018281882331F01092490380E20E947A
:100CC000CE150DC080914903811106C087E20E94B4
:100CD000AC1487E20E947F1580E20E94D51580E067
:100CE000DF91CF911F910F9108952CE0729FF00139
:100CF000112430E3839FE00DF11D1124E60FF11D57
:100D0000EE0FFF1FEE55FE4F859194910E943A0819
:100D1000811540E5940708F047C0811520E492074B
:100D200008F01BC1883E910520F5803E910508F032
:100D30008AC1883A910578F4853A910508F0A5C0F2
:100D40008130910509F47FC108F436C184309105E2
:100D500008F079C131C18D3B910508F4A1C0803CF8
:100D6000910508F429C1FC01EE0FFF1FE45FFF4F5E
:100D7000EEC0811530E2930758F4811541E09407E5
:100D800008F061C1803F910508F416C1906508958F
:100D9000811520E3920708F0DDC09F70880F991F2E
:100DA00084579E4FFC01D3C0811535E5930708F0A9
:100DB00043C0811544E5940708F0E6C0811522E59B
:100DC000920708F5811531E5930708F0C9C0482F4F
:100DD000437021E030E002C0220F331F4A95E2F752
:100DE0003C68AC0164E0569547956A95E1F743701D
:100DF000342B8F708695869540E2849FC001112424
:100E0000822B932B0895282F26952695AC014370AD
:100E100055278115934508F0A8C030E2239FC001F3
:100E2000112421E030E002C0220F331F4A95E2F77F
:100E3000822B932B9C6808958F3240E7940790F49F
:100E40008F3120E7920708F0AAC0811536E5930795
:100E500008F49FC09C0130562115304108F0ACC009
:100E60009F709BC0803320E7920709F49FC008F46D
:100E70009AC0813340E7940709F49BC082339047BE
:100E800009F09AC080E093ED0895853A910509F440
:100E900096C0863A910509F495C083E890E40895D8
:100EA000883A910509F491C0893A910509F490C0F6
:100EB0008A3A910509F48FC08B3A910509F48EC0E6
:100EC0008C3A910509F48DC08B3B910509F48CC0D7
:100ED0008C3B910509F48BC08D3A910509F48AC0C9
:100EE000803B910509F489C08E3A910509F488C0C8
:100EF0008F3A910509F487C0813B910509F486C0BA
:100F0000823B910509F485C0833B910509F484C0B7
:100F1000843B910509F483C0853B910509F482C0A7
:100F2000863B910509F481C0873B910509F480C097
:100F3000883B910509F47FC0893B910509F47EC087
:100F40008A3B910509F07DC08AE296E40895859177
:100F5000949108959927906C08959F70906A0895D0
:100F6000982F8827816F906A089530E2239FC001EF
:100F7000112421E030E002C0220F331F4A95E2F72E
:100F8000822B932B9A680895982F8827846F906AF4
:100F900008958F719927982F8827906208958F510F
:100FA0009047946D089580E091ED089580E090ED74
:100FB000089580E092ED089580E090E0089581E842
:100FC00090E4089582E890E4089582EE94E4089510
:100FD00089EE94E408958AEE94E4089585EB94E410
:100FE000089586EB94E4089583EB94E4089584EBEC
:100FF00094E4089587EB94E408958CEC94E40895C8
:101000008DEC94E4089583E895E408958AE895E4E6
:10101000089582E995E4089584E995E4089581E2CC
:1010200096E4089583E296E4089584E296E40895B0
:1010300085E296E4089586E296E4089587E296E4D0
:10104000089580E094E4089580E090E00895089584
:101050009CE0799FF001112490E3899FE00DF11D40
:101060001124E60FF11DEE0FFF1FEE55FE4F859187
:10107000949108958238910549F1B0F48133910536
:1010800009F459C048F48932910509F44FC08A32F5
:10109000910509F455C008958533910509F441C0BF
:1010A0008933910599F00895833E910531F138F423
:1010B000803E910591F0823E9105A9F00895863E0B
:1010C000910501F1873E910539F1089520919D0424
:1010D00020FD3BC021FD39C0089580919D0480FF13
:1010E00034C089E341C080919D0482FF32C0809169
:1010F0009D0484FF2CC080E037C080919D0482FD58
:1011000028C0F5CF80919D0483FF25C080919D0468
:1011100084FDF1CF87EE28C080919D0483FD1BC024
:10112000F5CF80919D0485FF18C019C080919D0462
:1011300085FF15C012C080919D0486FF12C013C0A8
:1011400080919D0486FF0FC00CC080EE0DC083EE21
:101150000BC082EE09C086EE07C085E305C089E2B8
:1011600003C081E301C08AE290E008950895CF931F
:10117000DF93EC01FB018281811102C081E040C05C
:1011800080915703811125C0C431D047B9F70E941F
:10119000B60881E0809357030E94E51F90935603A1
:1011A0008093550310924A0310924C0310924B0304
:1011B00010924E0310924D031092500310924F0361
:1011C0001092520310925103109254031092530341
:1011D00016C080915503909156030E94F11F883CE0
:1011E000910560F680914A03E82FF0E0EE0FFF1FB3
:1011F000E55BFC4FD183C0838F5F80934A0380E01F
:10120000DF91CF910895A6EDB2E021E030E08D911D
:10121000E82FF0E094E0F595E7959A95E1F741A184
:101220008F70B90102C0660F771F8A95E2F7CB0174
:10123000962F9095492341A392A1982B92A372E0F7
:10124000AA3DB70721F7089508950C94240985B79E
:10125000806885BF85B7806885BF0E940309AAECB6
:10126000B2E021E030E08D91E82FF0E044E0F59528
:10127000E7954A95E1F741A18F70B90102C0660F69
:10128000771F8A95E2F7CB01962F9095492341A3CA
:1012900092A1982B92A372E0A63DB70721F7109276
:1012A0006103109260031092590310925803109238
:1012B00063031092620310925B0310925A03109220
:1012C00065031092640310925D0310925C03109208
:1012D00067031092660310925F0310925E030C94F2
:1012E000F904DF92EF92FF920F931F93CF93DF9356
:1012F00006ED12E0C8E5D3E0EE24E394F12CE5E03E
:10130000DE2EF80181918F01E82FF0E064E0F59581
:10131000E7956A95E1F721A18F70A70102C0440FFC
:10132000551F8A95E2F7CA01242B21A392A180952B
:10133000982392A350EA5A95F1F7AAECB2E080E024
:1013400090E020E030E06D91E62FF0E054E0F5957C
:10135000E7955A95E1F740A150E06F7002C05595AE
:1013600047956A95E2F740FD08C0A701022E02C02A
:10137000440F551F0A94E2F702C040E050E0842B6E
:10138000952B2F5F3F4F2C303105E9F628813981AD
:101390002817390721F099838883D09270020E9420
:1013A0000309229682E00A3D180709F0AACF80912E
:1013B0007002882361F1815080937002882339F094
:1013C000EFE9FFE03197F1F700C0000020C0809105
:1013D0005803909159039093610380936003809127
:1013E0005A0390915B03909363038093620380910F
:1013F0005C0390915D0390936503809364038091F7
:101400005E0390915F0390936703809366030E944D
:10141000E30481E0DF91CF911F910F91FF90EF9056
:10142000DF900895E82FF0E0EE0FFF1FE05AFC4F29
:1014300080819181089508951092AF030C94FF0B61
:1014400081E08093AF030C94DD040895AF92BF92C6
:10145000CF92DF92EF92FF920F931F93CF93DF9380
:10146000CDB7DEB7A3970FB6F894DEBF0FBECDBFE2
:101470005C018B0185E1A81680E7B80639F4FB0111
:1014800082818823B1F10E94F9100BC0F6E1AF16FA
:10149000F0E7BF0641F4FB018281882351F10E94ED
:1014A000021180E033C1F7E1AF16F0E7BF0649F45F
:1014B000FB0182818823B9F10E94F5108111EFCFE1
:1014C000E2CFF8E1AF16F0E7BF0639F4FB01828105
:1014D0008823B9F10E94200AE4CFF9E1AF16F0E7C2
:1014E000BF0639F4FB018281882359F10E941C0A4E
:1014F000D8CFFAE1AF16F0E7BF0649F4F8018281D0
:101500008823F9F08091AF038111F0CFE3CFFBE1A5
:10151000AF16F0E7BF0639F4F8018281882389F01D
:101520000E9409110BC0FCE1AF16F0E7BF0649F4B9
:10153000F8018281882329F00E9414110E94CE04B0
:10154000B0CF8091AF03882309F4DFC0F0EEAF166F
:10155000B10489F4F8018281882309F45FC00E94F4
:10156000FF0B81E08093AE031092AD031092AC03A9
:1015700010926B0396CFF2EEAF16B10499F4F80116
:101580008281882309F44AC00E94FF0B8091AE0338
:10159000882319F081E08093AD031092AE0310927E
:1015A000AC037FCFF3EEAF16B104B1F4F801828142
:1015B0008823A1F18091AD03882381F10E94FF0B64
:1015C0001092AE0381E08093AC0310926A031092F4
:1015D00069031092680365CFF2E5AF16B10459F4C0
:1015E000F8018281882309F491C080917102909161
:1015F00072020A970EC0F1E5AF16B10479F4F80152
:101600008281882309F482C08091710290917202D4
:101610000A96909372028093710243CF20917502D3
:1016200083E2EFE8F2E0DE01119601900D928A95D7
:10163000E1F7F8018081E1E0F0E0EC0FFD1FE80F39
:10164000F11D8091730290917402E80FF91F60817F
:10165000772767FD7095620F711D882777FD80954C
:10166000982F0E943D2D20E030E040E451E40E949C
:10167000A22C6B017C01F801818164E070E0681BA1
:101680007109882777FD8095982F0E943D2D9B0139
:10169000AC01C701B6010E943A2C9B01AC0160E08D
:1016A00070E080E090E40E94B02E20E030E04CED4D
:1016B00050E40E944D2E6B017C01F8018281882349
:1016C000D1F04FE050E0C701B6010E9405108091B3
:1016D000AE038823A1F080916B0394E0899FF00111
:1016E0001124E459FC4FC082D182E282F3828F5FE1
:1016F00080936B0304C0C701B6010E94320C81E0E5
:10170000EFEFAE16B10410F4CCCE81E0A3960FB685
:10171000F894DEBF0FBECDBFDF91CF911F910F9127
:10172000FF90EF90DF90CF90BF90AF9008958091A1
:10173000AC03882309F448C0809168039091690341
:10174000009779F40E94E51F9093690380936803E2
:1017500080916A0390E0009771F480916B0390E0B0
:101760000AC00E94F11F2091710230917202281765
:10177000390740F308950197FC01EE0FFF1FEE0FAC
:10178000FF1FE459FC4F60817181828193810E9427
:10179000320CE0916A0384E0E89FF0011124E459DF
:1017A000FC4F60817181828193814FE050E00E9403
:1017B000051080916A0390E0019660916B0370E0E0
:1017C0000E941B3080936A0308950E942F1F81118D
:1017D00002C00E940B1F0E94591F809395043E9ADD
:1017E000809171008D7F8093710082E080939000E2
:1017F0008AE18093910081E08093B2030895809103
:10180000B203811102C00E94E50B109202041092F3
:101810000104809171008D7F809371008091900010
:101820008F73809390001092C4031092C3031092A0
:10183000FB031092FC031092FD031092FE03109222
:10184000FA031092F903E9EDF3E0A9ECB3E0119289
:101850001192119211921D921D9283E0E93FF807B7
:10186000B1F708958F929F92AF92BF92CF92DF927D
:10187000EF92FF920F931F93CF93DF936B017C0145
:101880008091C303882309F497C08091B20381112A
:1018900002C00E94E50B09EF13E0C7E0D0E0A7010A
:1018A0009601D8019E918E917E916E918D010E943C
:1018B0009E2C811145C0FE01EE0FFF1FEE0FFF1F92
:1018C000E752FC4F10821182128213829E01220F76
:1018D000331F27533C4FD9011D921C9240E050E02A
:1018E00060E070E06C5F7F4F4E5F5F4FC730D105A7
:1018F00051F121967F01E60EF71ED7018D909D9044
:10190000AD90BC90870104501109D8018D929D9231
:10191000AD92BC921397D7011D921D921D921C92FD
:1019200013977901E40EF51ED7010D911C91C701A3
:101930000297DC010D931C93D7011D921C92D2CF0C
:10194000219708F0ACCF8091010490910204019797
:1019500097FD05C0909302048093010404C0109287
:1019600002041092010480910104909102042091DC
:10197000FF03309100042817390724F01092000467
:101980001092FF03892BC1F4809171008D7F8093A9
:101990007100809190008F73809390001092FB03F0
:1019A0001092FC031092FD031092FE031092FA03B2
:1019B0001092F9031092C303DF91CF911F910F9101
:1019C000FF90EF90DF90CF90BF90AF909F908F905F
:1019D00008951F920F920FB60F9211244F925F92AB
:1019E0006F927F928F929F92AF92BF92CF92DF922F
:1019F000EF92FF922F933F934F935F936F937F9359
:101A00008F939F93AF93BF93CF93DF93EF93FF9306
:101A10008091C303882309F49AC1C0910104D09135
:101A200002041C161D060CF092C14090B3035090A6
:101A3000B4036090B5037090B60320E030E0A901D4
:101A4000C301B2010E94492E18160CF065C0C130C6
:101A5000D10509F452C08091FF0390910004BE01AA
:101A60000E941B305C01909300048093FF03C090A0
:101A7000C503D090C603E090C703F090C80320E0F0
:101A800030E040E85FE3C701B6010E943A2C609362
:101A9000C5037093C6038093C7039093C803F501F1
:101AA000EE0FFF1FEE0FFF1FE752FC4FA301920145
:101AB00060817181828193810E94A22C20E030E0BC
:101AC00040E05EE30E944D2E9B01AC01C701B601D0
:101AD0000E94492E18168CF4C5010196BE010E9481
:101AE0001B30909300048093FF031092C503109263
:101AF000C6031092C7031092C803E091FF03F09150
:101B00000004EE0FFF1FEE0FFF1FE752FC4F608136
:101B1000718182819381CFC0C090FB03D090FC0380
:101B2000E090FD03F090FE0320E030E0A901C70142
:101B3000B6010E949E2C2197882309F4A2C0FE01C1
:101B4000EE0FFF1FEE0FFF1FE752FC4F80809180CA
:101B5000A280B380A5019401C701B6010E949E2C0A
:101B600087FF31C0A501940160E070E08CED93EC3B
:101B70000E94A22C20E030E040E451E40E94A22C1C
:101B800020E030E040E05FE30E944D2E9B01AC017D
:101B900060E070E080E090E40E94B02E9B01AC0118
:101BA000C501B4010E944D2E9B01AC01C701B601D5
:101BB0000E949E2C87FF07C0A701960160E070E09D
:101BC0008CED93E439C0A5019401C701B6010E94D0
:101BD000492E18160CF055C0A501940160E070E084
:101BE0008CED93E40E94A22C20E030E040E451E42C
:101BF0000E94A22C20E030E040E05FE30E944D2EE6
:101C00009B01AC0160E070E080E090E40E94B02EA7
:101C10009B01AC01C501B4010E944D2E9B01AC019A
:101C2000C701B6010E94492E18165CF5A70196015E
:101C300060E070E08CED93EC0E94A22C20E030E09C
:101C400040E451E40E94A22C20E030E040E05FE359
:101C50000E944D2E9B01AC0160E070E080E090E4BA
:101C60000E94B02E9B01AC01C701B6010E944D2E0F
:101C70006093FB037093FC038093FD039093FE033A
:101C800012C0CC0FDD1FCC0FDD1FC752DC4F888187
:101C90009981AA81BB818093FB039093FC03A0935D
:101CA000FD03B093FE036091FB037091FC038091F0
:101CB000FD039091FE032091B0033091B1032F3FBB
:101CC0004FEF340731F02F5F3F4F3093B103209334
:101CD000B0030E941F116B017C0120E034E244EF4D
:101CE00051E40E949E2C87FF08C026EFC22E28E2F6
:101CF000D22E24EFE22E21E4F22E20E030E040E06C
:101D000051E4C701B6010E944D2E9B01AC0160E079
:101D100074E284E79BE40E94A22C6B017C010E9488
:101D20000F2D70939700609396002091760230916A
:101D300077024091780250917902C701B6010E9462
:101D40004D2E0E940F2D7093990060939800809102
:101D5000C403882309F432C1C090BF03D090C003EC
:101D6000E090C103F090C20320E030E0A901C70178
:101D7000B6010E94492E1816D4F58091B0039091B7
:101D8000B1038F3F2FEF920729F001969093B10393
:101D90008093B003C701B6010E941F1120E030E01C
:101DA00040E051E40E944D2E9B01AC0160E074E2E2
:101DB00084E79BE40E94A22C6B017C010E940F2D02
:101DC000709397006093960020917602309177028D
:101DD0004091780250917902C701B6010E944D2EC0
:101DE0000E940F2D709399006093980008C0109284
:101DF00097001092960010929900109298006091AE
:101E0000B9037091BA036F5F7F4F7093BA03609309
:101E1000B903209196003091970080E090E0232B49
:101E2000F1F0C0919600D09197000E943B2D6B017C
:101E30007C01BE0180E090E00E943B2D9B01AC0143
:101E40006091BB037091BC038091BD039091BE0370
:101E50000E94A22C20E03FEF4FE757E410C00E9401
:101E60003B2D6B017C0120E030EE4FEF54E460919C
:101E7000BB037091BC038091BD039091BE030E948F
:101E80004D2E9B01AC01C701B6010E94492E87FD72
:101E900095C02091B7032F5F2093B70330E0809166
:101EA00091049091920428173907A0F080919C0426
:101EB000882319F01092B7030DC0809171008D7FB7
:101EC00080937100809190008F73809390001092A6
:101ED000C4037CC08091B803C091B703811128C0AE
:101EE000C0909604D0909704E0909804F0909904E4
:101EF00020E030E0A901C701B6010E94492E181662
:101F0000BCF481E08093B8031092BF031092C00329
:101F10001092C1031092C203C092BB03D092BC03C3
:101F2000E092BD03F092BE03C150C093B70342C01C
:101F30001092B8031092B1031092B003E091930491
:101F4000F091940448E0C49FE00DF11D11248081BC
:101F50009181A281B3818093BF039093C003A0932A
:101F6000C103B093C20320E030E040E85EE3648147
:101F70007581868197810E944D2E6B017C01609155
:101F80007A0270E080E090E00E943B2D20E030E09B
:101F900048EC52E40E94A22C9B01AC01C701B6019F
:101FA0000E944D2E6093BB037093BC038093BD03CE
:101FB0009093BE031092BA031092B90380919504D6
:101FC00080FD04C01092C4031092C303FF91EF91EF
:101FD000DF91CF91BF91AF919F918F917F916F9141
:101FE0005F914F913F912F91FF90EF90DF90CF90B5
:101FF000BF90AF909F908F907F906F905F904F9029
:102000000F900FBE0F901F901895CF92DF92EF9216
:10201000FF92CF93DF936B017C01EA018091B203C1
:10202000811102C00E94E50B8091950480FF46C09B
:10203000809101049091020408970CF03FC08091B8
:1020400071008D7F809371008091C40381110E9483
:10205000FF0B81E08093C3031092B1031092B00391
:1020600020E030E0A901C701B6010E94492E1816F0
:10207000DCF48091010490910204FC01EE0FFF1F3B
:10208000EE0FFF1FE752FC4FC082D182E282F38243
:10209000FC01EE0FFF1FE753FC4FD183C083019675
:1020A0009093020480930104809171008260809378
:1020B000710080919000806880939000DF91CF91B3
:1020C000FF90EF90DF90CF9008959F92AF92BF92D4
:1020D000CF92DF92EF92FF920F931F93CF93DF93F4
:1020E000EC015B01942E680179018091B2038111AA
:1020F00002C00E94E50B8091950480FF6AC0809128
:1021000071008D7F809371008091C30381110E94C3
:10211000FF0B81E08093C403D0939404C093930495
:10212000B0929204A092910490929C04C092960462
:10213000D0929704E0929804F09299041092C5030B
:102140001092C6031092C7031092C8031092B703EF
:1021500088819981AA81BB818093BF039093C0033A
:10216000A093C103B093C20320E030E040E85EE3F7
:102170006C817D818E819F810E944D2E6B017C013F
:1021800060917A0270E080E090E00E943B2D20E0B8
:1021900030E048EC52E40E94A22C9B01AC01C70144
:1021A000B6010E944D2E6093BB037093BC038093D5
:1021B000BD039093BE031092BA031092B9038091AD
:1021C000710082608093710080919000806880939C
:1021D0009000DF91CF911F910F91FF90EF90DF90D2
:1021E000CF90BF90AF909F9008958091950481709B
:1021F0000895809195048160809395040E945D1FED
:102200000C94250A809195048E7F809395040C94FC
:102210005D1F8091030490E0019666E070E00E94EB
:102220001B308093030408958091030490E001978C
:1022300066E070E00E941B308093030408958F9243
:102240009F92AF92BF92CF92DF92EF92FF92CF9385
:10225000DF936B017C01C091B003D091B103BE014B
:1022600080E090E00E943B2D4B015C01A7019601AC
:1022700060E070E08CE594E40E94A22C9B01AC012C
:10228000C501B4010E944D2E0E940F2D9B0140916B
:102290000304433009F473C028F4442351F041305F
:1022A000E9F02DC1443009F4A0C0453009F4E0C084
:1022B00026C180E090E0A0E0BFE380937602909397
:1022C0007702A0937802B09379021092B303109230
:1022D000B4031092B5031092B60311C11092B30368
:1022E0001092B4031092B5031092B60364317105D5
:1022F00040F46A30710560F520E030E040E85EE3CC
:102300002BC0693C710508F0AAC080E090E00E94F3
:102310003B2D20E030E040EA51E40E94392C20E0DF
:1023200030E044E353E40E94A22C9B01AC010E94E4
:102330004D2E20E030E040E05EE30E944D2E9B01F8
:10234000AC0160E070E080E09EE30E94392C44C064
:1023500020E030E040E05FE3C701B6010E944D2E6F
:102360006B017C0180E090E0A0E0BEE38093760208
:1023700090937702A0937802B0937902C0C0109234
:10238000B3031092B4031092B5031092B6034AE05F
:10239000469F9001479F300D1124C90168EB7BE0F7
:1023A0000E940730BC016C5D754077FF03C07195DA
:1023B00061957109882777FD8095982F0E943D2DA2
:1023C0002EE333EC4EE259E30E944D2E20E030E044
:1023D00040EC5EE30E943A2C6093760270937702A1
:1023E00080937802909379028AC01092B30310927E
:1023F000B4031092B5031092B603CE0183709927EF
:10240000892BE1F0BE016170772780E090E00E94A7
:102410003B2D20E030E040E05EE30E944D2E20E0C6
:1024200030E040E45FE30E943A2C609376027093C0
:10243000770280937802909379020CC080E090E05C
:10244000A0E0BFE38093760290937702A093780296
:10245000B0937902C770DD27CD2B09F050C01092E0
:10246000760210927702109278021092790247C099
:102470001092B3031092B4031092B5031092B603F6
:10248000812C912CA12C9FE3B92E80927602909200
:102490007702A0927802B09279022739310578F15B
:1024A00080E090E00E943B2D20E030E047E153E4E3
:1024B0000E94392C20E030E04AE754E40E94A22C2C
:1024C00020E030E048E452E40E944D2E20E030E06D
:1024D00040EA51E40E947F2D0E940A2DFB01EE0F7D
:1024E000FF1FEE0FFF1FE652FD4F20813181428119
:1024F0005381C701B6010E944D2E6B017C01C701BB
:10250000B601DF91CF91FF90EF90DF90CF90BF9019
:10251000AF909F908F900895FB01309721F0BC0100
:1025200084E094E009940895CF93DF93EC01E9816E
:10253000FA818D8181FD13C083E0EE0FFF1F8A9524
:10254000E1F7EE54F54864817581868197810E9498
:102550008C121A82198218828D818E7F8D83DF9171
:10256000CF910895AF92BF92CF92DF92EF92FF92F8
:102570000F931F93CF93DF931F92CDB7DEB75C010C
:102580008B01FC01F157EF3FF10511F008F04BC052
:1025900023E0EE0FFF1F2A95E1F7EE54FD4FC280B6
:1025A000D380E680F78060817181C7010E948C1220
:1025B0008091050490910604009741F08A159B05CF
:1025C00029F0B601C7010E948C120AC0809109044B
:1025D00080FF08C081FF06C084E094E00E9494124E
:1025E00021E001C020E0809109048160809309040A
:1025F000F801928190FB81F98093090482818823FC
:10260000B1F1B0920604A092050429830E94E51F4F
:102610009093080480930704809104048F5F809353
:102620000404298124C0E0910504F0910604309748
:10263000E9F093E0EE0FFF1F9A95E1F7EE54F548AD
:1026400002811381E680F78060817181C7010E9459
:102650008C12B801C7010E948C1284E094E00E94A1
:102660009412809109048E7F8093090421E0822FC7
:102670000F90DF91CF911F910F91FF90EF90DF901E
:10268000CF90BF90AF9008958091090480FF1EC045
:1026900080910704909108040E94F11F8D329140AF
:1026A000A8F0E0910504F091060433E0EE0FFF1F5F
:1026B0003A95E1F7EE54F5486281738186819781FE
:1026C0000E948C1284E094E00C94941208959093EC
:1026D0000F0480930E040895E0910E04F0910F040E
:1026E000309721F00190F081E02D099480E0089569
:1026F000E0910E04F0910F04309721F00280F381F5
:10270000E02D09940895E0910E04F0910F043097A4
:1027100021F00480F581E02D0994089520910C04A6
:1027200030910D048217930771F090930D048093FC
:102730000C04E0910E04F0910F04309721F0068014
:10274000F781E02D0994089520910A0430910B043B
:102750008217930771F090930B0480930A04E09121
:102760000E04F0910F04309721F00084F185E02DE4
:102770000994089508950C94BA130E94DC1F0E94D6
:1027800027090E9462200C94BA245F926F927F9274
:102790008F929F92AF92BF92CF92DF92EF92FF9271
:1027A0000F931F93CF93DF93CDB7DEB72A970FB662
:1027B000F894DEBF0FBECDBF0E94710991E1C92E12
:1027C00094E0D92E00E010E0AA24A394B12C502E5E
:1027D000802F0E94120A3C01F601E190F1906F01F6
:1027E000E826F926E114F104B1F40F5F1F4F04301D
:1027F000110569F78FEF89838A831B820E94E51F89
:102800008160782F9D838C8349815A816B818D8172
:102810000E947E143AC080916E0481FD0E941B0AC2
:1028200020E030E04501022E02C0880C991C0A9479
:10283000E2F7C4018E219F21892B09F12E835F824B
:102840006820792081E0672809F480E088870E9469
:10285000E51F8160782F9A8789874E815F8168851F
:102860008A850E947E14F801EE0FFF1FEF5EFB4F7A
:1028700080819181882599259183808306C02F5F6F
:102880003F4F2C30310571F6B0CF0E94F9211091E5
:1028900010040E946C131817D9F00E946C138093D7
:1028A00010042A960FB6F894DEBF0FBECDBFDF919D
:1028B000CF911F910F91FF90EF90DF90CF90BF903D
:1028C000AF909F908F907F906F905F900C942E05AB
:1028D0002A960FB6F894DEBF0FBECDBFDF91CF9121
:1028E0001F910F91FF90EF90DF90CF90BF90AF902E
:1028F0009F908F907F906F905F900895CF93DF931C
:10290000CDB7DEB72B970FB6F894DEBF0FBECDBFA5
:102910004F83588769877A878B87DE01119686E017
:10292000FD0111928A95E9F785E0FE013796019045
:102930000D928A95E1F749815A816B817C818D8165
:102940009E810E94371B2B960FB6F894DEBF0FBEF8
:10295000CDBFDF91CF910895CF93C82F882309F47D
:10296000CCC0823859F40E946C1381FDC6C089E343
:102970000E94121E0E94DC1E89E30CC0833879F489
:102980000E946C1380FDB9C083E50E94121E0E9454
:10299000DC1E83E50E94521ECF910C94DC1E84380D
:1029A00059F40E946C1382FDA8C087E40E94121E95
:1029B0000E94DC1E87E4EECF8CEF8C0F813A48F446
:1029C0008C2F0E942624811198C08C2F0E94121EE9
:1029D000E3CF80E28C0F883048F4C77081E001C0FB
:1029E000880FCA95EAF70E94931ED6CF8BE58C0F0D
:1029F000833078F4C53A29F0C63A31F482E890E0A1
:102A000005C081E890E002C083E890E0CF910C948B
:102A10008E1388E58C0F853108F06FC0C83A61F1DC
:102A2000C93A69F1CA3A71F1CB3A79F1CC3A81F1FC
:102A3000CB3B89F1CC3B91F1CD3A99F1C03BA1F16F
:102A4000CE3AA9F1CF3AB1F1C13BB9F1C23BC1F1E4
:102A5000C33BC9F1C43BD1F1C53BD9F1C63BE1F160
:102A6000C73BE9F1C83BF1F1C93BF9F1CA3B09F0B9
:102A70003FC08AE292E03EC082EE90E03BC089EE29
:102A800090E038C08AEE90E035C085EB90E032C02F
:102A900086EB90E02FC083EB90E02CC084EB90E0BD
:102AA00029C087EB90E026C08CEC90E023C08DEC31
:102AB00090E020C083E891E01DC08AE891E01AC050
:102AC00082E991E017C084E991E014C081E292E0CC
:102AD00011C083E292E00EC084E292E00BC085E276
:102AE00092E008C086E292E005C087E292E002C070
:102AF00080E090E0CF910C94A413CF9108958823A7
:102B000009F44BC0823859F40E946C1381FF45C010
:102B100089E30E94121E0E94DC1E89E30CC08338E8
:102B200071F40E946C1380FF38C083E50E94121E6E
:102B30000E94DC1E83E50E94521E0C94DC1E843829
:102B400059F40E946C1382FF28C087E40E94121E71
:102B50000E94DC1E87E4EFCF9CEF980F913A58F368
:102B600090E2980F983050F4877091E001C0990F6F
:102B70008A95EAF7892F0E94991EDFCF9BE5980F6F
:102B8000933020F480E090E00C948E13885A8531C5
:102B900020F480E090E00C94A4130895882321F0A1
:102BA0000E94931E0C94DC1E0895882321F00E943D
:102BB000991E0C94DC1E08958F929F92AF92BF9243
:102BC000CF92DF92EF92FF920F931F93CF93DF93F9
:102BD0001F92CDB7DEB74C01A62E472FFC01E58032
:102BE000E2948FE0E822F280FF2021F079830E94B6
:102BF000B01E498149830E940B1E4981882381F0C0
:102C0000FF2071F080E28A0D883050F082E00E944F
:102C1000F41D0E940B1EBB24B394B826498101C049
:102C2000B12CE42FE295EF70F0E0EA5AFF4F0C94DC
:102C30002F30842F807F142F1F70882311F012955E
:102C4000107FFF2089F0112309F496C180E28A0DDC
:102C5000883020F4812F0E94931E03C0812F0E9490
:102C6000A31E0E94DC1E88C18A2D0E947F1511239D
:102C700009F4BFC180E28A0D883020F4812F0E94C0
:102C8000991E03C0812F0E94A91E0E94DC1EB1C1A3
:102C9000242F207F842F8F70203211F08295807F27
:102CA000AA2021F0F1E0AF16B1F021C0FF2041F0E1
:102CB000EE2039F191E0E91224C00E94C31E99C1AF
:102CC000EE2021F0E1E0EE1609F493C189830E9421
:102CD000C61E89810BC1FF2029F0F5E0FE1508F41E
:102CE00088C10FC094E09E1508F483C1FFC0FF2087
:102CF00059F0EE2031F0F401958190FF3DC19F70B5
:102D000095830E94CE1575C1EE2009F4EFC03AC13B
:102D1000242F26952695237030E02115310521F0CA
:102D20002130310561F065C1FF2021F08A2D942FFB
:102D3000937002C080E090E00E948E135AC1FF2081
:102D400021F08A2D942F937002C080E090E00E94C1
:102D5000A4134FC18A2DFF2019F00E94012102C047
:102D60000E9469210E94EE2144C1842F837009F0E2
:102D70004EC0F1103EC12A2D229526952770220FB4
:102D8000220F8A2D8F70C82ED12CE12CF12C022E0F
:102D900004C0CC0CDD1CEE1CFF1C0A94D2F7A4FE70
:102DA00010C06FE070E080E090E004C0660F771F15
:102DB000881F991F2A95D2F76095709580959095F8
:102DC00003C060E070E0CB01242F26952695237088
:102DD00030E02230310569F02330310589F06C296B
:102DE0007D298E299F292130310571F00E94891C8F
:102DF00000C16C297D298E299F290E94A31CF9C03E
:102E00000E94891CC701B6010E946F1CF2C0FF20FE
:102E100019F0842F817001C08695882309F4E9C0D8
:102E20002A2D229526952770220F220F8A2D8F702A
:102E3000C82ED12CE12CF12C022E04C0CC0CDD1CB0
:102E4000EE1CFF1C0A94D2F7A4FE10C06FE070E0E5
:102E500080E090E004C0660F771F881F991F2A95B5
:102E6000D2F7609570958095909503C060E070E012
:102E7000CB01242F26952695237030E02230310592
:102E800069F02330310589F06C297D298E299F292D
:102E90002130310571F00E945D1DABC06C297D2988
:102EA0008E299F290E94771DA4C00E945D1DC70125
:102EB000B6010E94431D9DC00A2D10E0F801E05E9E
:102EC000F109E531F10508F053C0EA59FF4F0C94C0
:102ED0002F301A2D1F70842F8F71FF2021F00E9438
:102EE000DC1C812F0ECF0E94FD1C812F0E94D51566
:102EF00080C0FF2049F0F4E0FE1508F47AC0842F6A
:102F00008F710E94221D75C085E08E1508F471C076
:102F1000F6CFFF2039F0842F8F710E94DC1C69C02E
:102F2000FF20C9F3842F8F710E94FD1C62C0FF2017
:102F300029F0842F8F710E94C71C5BC00E94BD1CAA
:102F400058C0FF2051F0142F1F71812F0E94DC1CEC
:102F500063E0812F0E94EB1D4CC081E00E94F41DB4
:102F600091E09E1508F045C082E00E94F41D41C02A
:102F7000FF2031F0EE2079F28A2D0E94AC1439C086
:102F8000EE2081F28A2D0E947F1533C04F706A2D8A
:102F9000C4010E9424080E94E41B2BC0F11029C028
:102FA000942F9F70492F50E042305105B9F04CF4F6
:102FB0004115510581F041305105D9F40E94E224B8
:102FC00018C04330510569F04430510591F48A2D01
:102FD0000E9436250EC00E94CB240BC00E94FE2406
:102FE00008C00E94112505C04F706A2DC4010E94BF
:102FF0002708BB20F1F00E94E71D80FD1AC0F401F4
:1030000012820E94E11D0E94DC1CC4010E9427184C
:103010000E94E11D0F90DF91CF911F910F91FF90C2
:10302000EF90DF90CF90BF90AF909F908F900C94D7
:10303000FD1C0F90DF91CF911F910F91FF90EF90AA
:10304000DF90CF90BF90AF909F908F9008950F9397
:103050001F93CF93DF93EC01288139818B819C8171
:10306000892B31F03F3F11F080E003C02F3FE1F7A3
:1030700081E0811113C0CE010E944105882371F0C7
:10308000688179818A810E94DD1D8C010E94911DD9
:103090000E94641CB801CE010E94DC15DF91CF9123
:1030A0001F910F9108950E94B01E0E94C01E0E94A1
:1030B000851E0E94DC1E0E949A220E94EE2180E062
:1030C00090E00E948E1380E090E00C94A4130E9484
:1030D000A01E0C9453180E94D21D292F22952F70E8
:1030E00030E02C3031054CF42A3031056CF422509C
:1030F000310922303105B0F407C02C30310571F0B0
:103100002F30310559F00EC0803F31F018F4803E69
:1031100048F402C0843F31F481E0089593FB88278E
:1031200080F9089580E00895CF93DF9300D000D018
:103130001F92CDB7DEB70F900F900F900F900F90AA
:10314000DF91CF910895CF93DF9300D000D000D0CE
:10315000CDB7DEB726960FB6F894DEBF0FBECDBF53
:10316000DF91CF9108951F93CF93DF93C0911904FE
:1031700016E080911A04C81799F0D0E01C9FF00166
:103180001D9FF00D1124E55EFB4F4081518162814E
:103190007381848195810E94A3182196C770E9CF1D
:1031A000DF91CF911F91089540914B0450914C04B1
:1031B00060914D0470914E0480914F0490915004A1
:1031C0000C94A318CF938091500482958F7009F0CE
:1031D0005FC080914D04882309F45AC020911904DE
:1031E000A0911A0460914B0470914C0480914E049C
:1031F00090914F0431E06F3F09F030E0B32FC6E00B
:103200002A1709F445C0009721F07F3F21F44B2F86
:1032100003C041E001C040E030E040FD35C0C29F46
:10322000F001C39FF00D1124E55EFB4F4181741343
:103230002BC04081641328C04281411125C04381C5
:1032400054814817590710F441505109481B590B34
:103250004C325140C8F4809150048F70806180934B
:10326000500486E0829FF001839FF00D1124E05E00
:10327000FB4F80818F70806180838BE494E00E949B
:103280002718CF910C94B3182F5F3F4F2770B8CFFA
:10329000CF910895CF92DF92EF92FF920F931F93F9
:1032A000CF93DF93CDB7DEB762970FB6F894DEBF4A
:1032B0000FBECDBF8C0185E0F801DE011D960190A7
:1032C0000D928A95E1F7D8014C9111965C91119776
:1032D00012966C9112971396ED90FC901497709142
:1032E0004B04E0914C0420914E0430914F04211581
:1032F000310531F0EF3F31F481E07F3F19F403C035
:1033000081E001C080E0B82FB170CB2E80FD6DC18F
:10331000D0904D04DD2009F4F6C0F0915004E2167F
:10332000F30638F0C701821B930B8C32914048F0B2
:103330009CC0209530952E0D3F1D2C32314008F059
:1033400094C08F2F807F09F053C0E51315C074130C
:1033500013C0D62E611110C0FF70F061F0935004BD
:103360000E94D4188BE494E00E94271880915004A6
:10337000D80115968C936BC1EF2831F05F3F31F483
:1033800081E04F3F19F403C081E001C080E080FD7F
:1033900003C081E0862701C080E0B82FB170FB2E0A
:1033A00080FF1CC08091190420911A0436E0821716
:1033B00009F428C190E0389FF001399FF00D1124E5
:1033C000E55EFB4F7181571306C07081471303C040
:1033D0007281671303C001968770E9CFD62E6623EA
:1033E00009F435C18091500481608093500453C02A
:1033F000E51308C0741306C0611104C0D801159606
:10340000FC93AEC04D875E878D859E856A8B0E943A
:103410006B186A89882329F1D62E662311F1209131
:103420005004822F82958F7090E002970CF460C058
:1034300080914B0490914C0498878F831986FB866A
:10344000EA862C87CE01079651C0E51731F14D87EA
:103450005E878D859E856A8B0E946B186A898111B3
:103460002EC0C8010E942718A4C08F2F807F69F743
:103470007E2DF98AE88A89890E9494188BE494E069
:103480000E942718EBE4F4E086E0DF011D928A95A4
:10349000E9F70E94D418D12CDAC07413D8CF611187
:1034A000D6CFD8011596FC93C8010E942718EBE4EB
:1034B000F4E086E0DF011D928A95E9F7C8C0D62EB8
:1034C000662379F220915004822F82958F7090E0CC
:1034D000029774F080914B0490914C049A838983F5
:1034E0001B82FD82EC822E83CE0101960E9427185A
:1034F00086E0F801ABE4B4E001900D928A95E1F723
:103500000E94E2186FC0E216F30640F0C701821B6A
:10351000930B9C012C32314048F057C020953095D8
:103520002E0D3F1D2C32314008F04FC0D62E6623A1
:1035300009F497CFE51329C0741327C08091500474
:1035400080FD1AC0982F92959F70B1F0F801858385
:103550009F3031F09F5F9295907F8F70892B85838C
:10356000C8010E94271886E0F801ABE4B4E001909E
:103570000D928A95E1F736C086E0F801ABE4B4E03D
:1035800001900D928A95E1F762C04D875E878D8527
:103590009E850E946B18882379F086E0F801ABE4E1
:1035A000B4E001900D928A95E1F70E94E2180E9422
:1035B000D418DD24D3944BC0809150048160809353
:1035C0005004C8010E94271842C07E2DF98AE88A5B
:1035D00089890E949418EBE4F4E086E0DF011D92F3
:1035E0008A95E9F70E94D41832C0662309F439CFCE
:1035F0004D875E878D859E850E946B18882309F410
:1036000030CFCBCF4D875E878D859E850E94D21DA2
:10361000292F22952F7030E0223031052CF49F7035
:1036200041F0811106C00CC0243031052CF49F708C
:1036300049F4805E883020F0C8010E942718CF2C02
:10364000DC2C05C0F8019581907F99F7F9CF8D2D7D
:1036500062960FB6F894DEBF0FBECDBFDF91CF915B
:103660001F910F91FF90EF90DF90CF9008951F93DF
:10367000CF93DF93CDB7DEB72C970FB6F894DEBFAC
:103680000FBECDBF4F83588769877A878B879C870A
:10369000CE0107960E944A198823C1F02F813885F0
:1036A0008A859B85892B31F03F3F11F080E003C074
:1036B0002F3FE1F781E0811147C04F81588569852F
:1036C0007A858B859C850E94A3183EC086E0FE010A
:1036D0003796DE01119601900D928A95E1F7FF81F0
:1036E000E8854A855B854115510531F0EF3F31F49E
:1036F00081E0FF3F19F403C081E001C080E080FD5C
:1037000023C020911A0430E0C901019687709927DF
:103710006091190470E086179707F1F1F983EA8345
:103720005D834C8396E0929FD001939FB00D11244E
:10373000A55EBB4FFE01319601900D929A95E1F77F
:1037400080931A040E94B31816E080911904909196
:103750001A04891779F1189FC0011124855E9B4FC7
:103760000E944A19882331F1E09119041E9FF0014B
:103770001124E55EFB4F4081518162817381848118
:1037800095810E94A3188091190490E0019687709A
:10379000992780931904D9CF0E94671810921A04B0
:1037A00010921904EBE4F4E086E0DF011D928A95A3
:1037B000E9F7CACF2C960FB6F894DEBF0FBECDBF87
:1037C000DF91CF911F910895EF92FF920F931F9376
:1037D000CF93DF93FC01009709F46FC0F12CEE2426
:1037E000E394EF0121968491843740F4843008F00B
:1037F00055C0813081F0823021F15FC0853709F4F6
:1038000047C0C0F19CE7980F903708F056C08F77FB
:103810000E947F1545C08F010E5F1F4FFE018491EE
:1038200090E2980F983050F48770FE2D01C0FF0F82
:103830008A95EAF78F2F0E94B31E15C00E94AC1420
:1038400014C08F010E5F1F4FFE01849190E2980F0C
:10385000983068F48770FE2D01C0FF0F8A95EAF753
:103860008F2F0E94B91E0E94DC1EE80119C00E9421
:103870007F15FBCFCF010296FE01C491CC2361F0EE
:10388000EFE9FFE03197F1F700C00000C150F6CF3B
:10389000CF010296FE01F490EC0102C00E94AC142C
:1038A0008F2D882341F0EFE9FFE03197F1F700C059
:1038B00000008150F6CFFE0194CFDF91CF911F9190
:1038C0000F91FF90EF9008950895609355047093C1
:1038D000560480935704909358040C9453180F93F4
:1038E0001F93009155041091560420915704309174
:1038F0005804062B172B282B392B009355041093B3
:10390000560420935704309358041F910F910C9440
:1039100053180F931F930091550410915604209152
:103920005704309158040623172328233923009382
:1039300055041093560420935704309358041F9154
:103940000F910C9453180F931F93009155041091ED
:10395000560420915704309158040627172728272A
:10396000392700935504109356042093570430933D
:1039700058041F910F910C945318109251041092F7
:10398000520410925304109254040C94531841E0C2
:1039900050E060E070E004C0440F551F661F771FC1
:1039A0008A95D2F740935104509352046093530484
:1039B000709354040C94531841E050E060E070E0C0
:1039C00004C0440F551F661F771F8A95D2F7809158
:1039D000510490915204A0915304B0915404842B4B
:1039E000952BA62BB72B8093510490935204A09350
:1039F0005304B09354040C94531841E050E060E039
:103A000070E004C0440F551F661F771F8A95D2F7D8
:103A10004095509560957095809151049091520415
:103A2000A0915304B091540484239523A623B72373
:103A30008093510490935204A0935304B093540480
:103A40000C94531841E050E060E070E004C0440F73
:103A5000551F661F771F8A95D2F780915104909168
:103A60005204A0915304B091540484279527A627AB
:103A7000B7278093510490935204A0935304B093BA
:103A800054040C9453180F931F93009151041091F8
:103A900052042091530430915404062B172B282BE9
:103AA000392B009351041093520420935304309304
:103AB00054041F910F910C9453180F931F9300916E
:103AC0005104109152042091530430915404062360
:103AD0001723282339230093510410935204209371
:103AE0005304309354041F910F910C9453180F9367
:103AF0001F9300915104109152042091530430916E
:103B000054040627172728273927009351041093B8
:103B1000520420935304309354041F910F910C943A
:103B200053180895CF92DF92EF92FF920F931F9355
:103B3000CF93DF93EC01C0905504D0905604E090F1
:103B40005704F09058048091510490915204A09130
:103B50005304B0915404C82AD92AEA2AFB2A0FE157
:103B600010E0B701A601002E04C076956795579521
:103B700047950A94D2F740FD05C00150110988F716
:103B800080E007C0BE01802F0E9475060197A9F34F
:103B9000802FDF91CF911F910F91FF90EF90DF90D9
:103BA000CF900895CF93DF93EC010E94921DBE0148
:103BB0000E947506DF91CF910895CB010E94D21D1E
:103BC00008958091590485958595859508958091EE
:103BD00059048770089598E0899F90011124622B01
:103BE000609359040C94DC1C409159048095842303
:103BF00080935904982F977069F450E0282F332749
:103C000027FD30954217530729F0859585958595B1
:103C10000C94FD1C089590915904977081E009F46B
:103C200080E0089590918E029923D9F090917B02C3
:103C30009923B9F0982F9695969596959F3088F58B
:103C4000E0917C02F0917D02E90FF11D877021E087
:103C500030E001C0220F8A95EAF78181822B8183AF
:103C6000089540917C0250917D0220E030E09FEF6A
:103C7000FA01E20FF31F6281681799F09F3F19F470
:103C8000611101C0922F2F5F3F4F2E30310581F718
:103C90009F3F39F0FA01E90FF11D97FDFA958283F4
:103CA0000895089590918E029923E1F090917B02FE
:103CB0009923C1F0982F9695969596959F3020F56B
:103CC000E0917C02F0917D02E90FF11D877021E007
:103CD00030E001C0220F8A95EAF7209581812823E0
:103CE0002183089540917C0250917D0220E030E0D4
:103CF000FA01E20FF31F9281981301C012822F5F25
:103D00003F4F2E303105A1F7089581E090E0E0911A
:103D10007C02F0917D02E80FF91F1082019680313C
:103D20009105A9F7089590916D04982B90936D04D7
:103D30000895809590916D04982390936D04089553
:103D400010926D04089590916C04982B90936C04DC
:103D50000895809590916C04982390936C04089535
:103D600010926C04089590916B04982B90936B04BF
:103D70000895809590916B04982390936B04089517
:103D800010926B04089580935A04089510925A0477
:103D9000089540917C0250917D0220E030E080E067
:103DA000FA01E20FF31F918191118F5F2F5F3F4F57
:103DB0002F303105A9F70895E0917C02F0917D0242
:103DC00080916D048083E0917C02F0917D0280817E
:103DD00090916C04892B8083E0917C02F0917D02AC
:103DE000808190916B04892B808390915A04992350
:103DF00061F0E0917C02F0917D028081892B8083CB
:103E00000E94C91E811110925A0480917C029091E7
:103E10007D020C9478136DEE7EEF80E090E00E94BE
:103E2000553060E082E090E00E94433060E083E043
:103E300090E00E94433060E084E090E00E944330D4
:103E400060E085E090E00E94433060E086E090E032
:103E50000E9443306FEF87E090E00C94433080E0A5
:103E600090E00E943D3021E08D3E9E4F09F020E021
:103E7000822F089582E090E00C94353083E090E04A
:103E80000C943530682F83E090E00C94433084E04C
:103E900090E00C943530682F84E090E00C9443302F
:103EA00086E090E00C943530682F86E090E00C942A
:103EB000433087E090E00C943530682F87E090E045
:103EC0000C9443308091A404843039F110926F0433
:103ED00020E488E190E00FB6F894A8958093600004
:103EE0000FBE2093600080E00E94FD0480E00E94ED
:103EF0002E0583B7817F846083BF83B7816083BFD2
:103F00007894889583B78E7F83BF88E10FB6F89445
:103F100080936000109260000FBE08950895089588
:103F2000CF9380E00E94FD040E948E1F0E947109C1
:103F30000E948F1FC0E08C2F0E94120A892B29F447
:103F4000CF5FC430C1F780E001C081E0CF91089518
:103F50000E94671880E00E94FD040E94BA240E941B
:103F60006C130C942E051F920F920FB60F92112412
:103F70008F939F93AF93BF9380916F04811113C070
:103F80008091700490917104A0917204B0917304B7
:103F90004196A11DB11D8093700490937104A0936C
:103FA0007204B0937304BF91AF919F918F910F9062
:103FB0000FBE0F901F90189582E084BD93E095BDD1
:103FC0009AEF97BD80936E0008952FB7F894809173
:103FD000700490917104A0917204B09173042FBF8A
:103FE0000895CF92DF92EF92FF920F931F932FB716
:103FF000F894409170045091710460917204709132
:1040000073042FBF6A017B01EE24FF248C0120E0A2
:1040100030E0C016D106E206F30610F44150510913
:10402000481B590BCA011F910F91FF90EF90DF9031
:10403000CF9008951F920F920FB60F9211248F9375
:104040009F93AF93BF938091700490917104A0915E
:104050007204B09173040196A11DB11D8093700488
:1040600090937104A0937204B0937304BF91AF91C5
:104070009F918F910F900FBE0F901F9018950E94E7
:104080004429F8942FEF87EA91E621508040904030
:10409000E1F700C0000087E090EBDC018093AD0405
:1040A0009093AE04A093AF04B093B0042CE088E1E9
:1040B00090E00FB6F894A895809360000FBE20930F
:1040C0006000FFCF0E942F1F811102C00E940B1FB2
:1040D0000E943A1F80936E040E94471F90E09093C5
:1040E0009E0480939D0487FB882780F980937B0240
:1040F0000E943E1F682F70E080E090E00C94651CE9
:104100008091760480FF0BC06091810285E0689FFA
:10411000B001112475956795759567952AC081FF43
:1041200009C06091810285E0689FB00111247595F6
:1041300067951FC082FF07C06091810285E0689F7C
:10414000B001112416C0409177044423C9F0609156
:104150008002461788F72091810285E0289F900110
:104160001124429FC001439F900D112470E00E94D2
:104170001B306038710540F46115710539F002C0DB
:1041800065E070E0862F08958FE7089581E0089537
:104190008091760480FF08C060917F0270E0759581
:1041A00067957595679521C081FF06C060917F0274
:1041B00070E07595679519C082FF04C060917F0219
:1041C00070E010C0809177048823C1F060917E0276
:1041D0008617A0F790917F02989FC001112470E08C
:1041E0000E941B306038710528F46115710521F0BB
:1041F000862F08958FE7089581E0089561E070E0CB
:10420000F4CF803F21F40E948020819504C0813F3B
:1042100029F40E94802080937A040895823F21F43B
:104220000E948020819504C0833F29F40E94802051
:10423000809379040895893F19F40E94C82005C02D
:104240008A3F31F40E94C820819580937B040895B1
:104250008B3F21F40E94C820819504C08C3F29F433
:104260000E94C82080937C040895843F21F48091AB
:104270007804816017C0853F21F4809178048260C2
:1042800011C0863F21F48091780484600BC0873F81
:1042900021F480917804886005C0883F31F48091D2
:1042A000780480618093780408958D3F21F4809193
:1042B000760481600BC08E3F21F480917604826089
:1042C00005C08F3F29F48091760484608093760442
:1042D0000895803F39F480917A0487FF6CC0109272
:1042E0007A0469C0813F29F480917A041816BCF3DE
:1042F00062C090917904823F29F497FF5CC01092CC
:10430000790459C0833F19F41916CCF354C0893F7E
:1043100041F480917B0418160CF04DC010927B0480
:104320004AC08A3F29F480917B0487FF44C0F6CFBE
:104330008B3F39F480917C0487FF3DC010927C0450
:104340003AC08C3F29F480917C041816BCF333C02A
:10435000843F21F4809178048E7F17C0853F21F43B
:10436000809178048D7F11C0863F21F4809178047C
:104370008B7F0BC0873F21F480917804877F05C035
:10438000883F31F4809178048F7E8093780413C045
:104390008D3F21F4809176048E7F0BC08E3F21F4F7
:1043A000809176048D7F05C08F3F29F4809176043B
:1043B0008B7F809376048091790481110EC0809167
:1043C0007A0481110AC080917B04811106C080911A
:1043D0007C04811102C010927704089588E794E06C
:1043E0000E9483130E94E51F9093750480937404C8
:1043F00008951F93CF93DF93809174049091750477
:104400000E94F11F40917704442321F02091820201
:1044100030E006C0209183025AE0259F90011124CC
:104420008217930708F482C08091790410917A046E
:10443000D0917B04C0917C04811107C0111105C08B
:10444000D11103C0CC2309F471C04F3F19F04F5F65
:1044500040937704181624F40E94802080937904F6
:104460008091790487FF05C00E9480208195809308
:104470007904111624F40E94802080937A0480919C
:104480007A0487FF05C00E948020819580937A047A
:1044900060917904662339F110917A04112319F19E
:1044A000772767FD7095872F972F0E943D2D23E377
:1044B00033E343E35FE30E944D2E0E940A2D609395
:1044C0007904612F772767FD7095872F972F0E94BA
:1044D0003D2D23E333E343E35FE30E944D2E0E942F
:1044E0000A2D60937A041D1624F40E94C82080933C
:1044F0007B0480917B0487FF05C00E94C8208195C2
:1045000080937B041C1624F40E94C82080937C04B2
:1045100080917C0487FF05C00E94C820819580930C
:104520007C04DF91CF911F910C94EE21DF91CF910C
:104530001F910895E8E7F4E085E0DF011D928A9578
:10454000E9F710927704109276040895833081F190
:1045500028F4813059F08230D1F00895853009F483
:1045600049C0B8F1863009F456C0089520918302FD
:10457000862F90E0820F911D8F3F910520F4620FEE
:104580006093830208958FEF8093830208952091B2
:104590008202862F90E0820F911D8F3F910520F4BB
:1045A000620F6093820208958FEF809382020895D4
:1045B00020918102862F90E0820F911D8F3F9105FF
:1045C00020F4620F6093810208958FEF809381023F
:1045D000089520918002862F90E0820F911D8F3FD9
:1045E000910520F4620F6093800208958FEF80930D
:1045F0008002089520917F02862F90E0820F911D06
:104600008F3F910520F4620F60937F0208958FEF32
:1046100080937F02089520917E02862F90E0820F82
:10462000911D8F3F910520F4620F60937E020895E3
:104630008FEF80937E020895833011F128F481304A
:1046400049F0823091F00895853081F120F1863073
:10465000C1F1089580918302681720F4861B80932E
:104660008302089510928302089580918202681750
:1046700020F4861B8093820208951092820208958E
:1046800080918102681720F4861B8093810208952F
:1046900010928102089580918002681720F4861B91
:1046A00080938002089510928002089580917F0285
:1046B000681720F4861B80937F02089510927F0272
:1046C000089580917E02681720F4861B80937E02F5
:1046D000089510927E020895873220F58E3108F0F9
:1046E0008EC0803109F46FC070F4873009F447C080
:1046F00018F4863089F12EC08B3009F496C08E30C4
:1047000009F457C027C0863109F48FC020F48131E5
:1047100009F46AC01FC0893109F487C08B3109F4DC
:104720003EC018C0883309F480C050F4893209F4BF
:1047300074C0853309F471C0873209F46EC00AC0B1
:10474000833409F46AC020F48A3308F056C002C0EA
:10475000883461F080E0089580916E04817F8E7FBF
:1047600080936E0481E080937E0408950E94671810
:104770000E94FF0B0E94B5040E943F2056C09091FA
:104780006E04892F8095817080FB90F919F09660F6
:10479000986027C0997F977F90936E0446C0909150
:1047A0006E0491FB882780F921E0822780FB91F934
:1047B00013C090916E0492FB882780F921E0822734
:1047C00080FB92F909C090916E0493FB882780F9D1
:1047D00021E0822780FB93F990936E04882329F1CE
:1047E000916090936E0408950E94671880917B02F7
:1047F00091E0892780937B0218C027EC01C023EE4B
:10480000280F61E070E080E090E004C0660F771F41
:10481000881F991F2A95D2F704C061E070E080E0FC
:1048200090E00E94651C0E94671881E0089580E076
:10483000089580E008958E518A3030F4E82FF0E03A
:10484000E65DFC4F8081089580E00895CF93C82FE6
:1048500080917E04813069F018F08230B1F180C01F
:10486000E0917C02F0917D028081823209F07AC071
:1048700007C0E0917C02F0917D028081823249F490
:104880008C2F0E94172481111DC08C2F0E946C2335
:104890001AC08C2F0E941924811114C0C43179F0E0
:1048A00048F4CB3079F0C03109F060C082E08093E9
:1048B0007E0408C0C93219F0C83321F057C01092E5
:1048C0007E0454C081E0817053C0C93289F118F56B
:1048D000C43171F1B0F4C73009F046C08EE1809365
:1048E000830282E3809382028AE08093810284E1E2
:1048F0008093800288E080937F0288E280937E022A
:1049000033C082EE8C0F863078F58C2F0E941B24EA
:1049100080937D0429C0CE34E9F020F4CB3421F516
:104920006AE013C0C13579F0C235F1F461E00DC021
:1049300080917D04882319F010927D0415C081E0D8
:1049400080937E0415C061E006C080917D040E94C2
:10495000A6220AC06AE080917D040E941C2304C044
:1049600010927E0480E004C081E002C080E0ABCF02
:10497000CF9108950E942F1F811102C00E940B1F2A
:104980000E94501F80939F0480FF02C0869501C043
:1049900080E00C94FD0480919F04982F9695292F18
:1049A00030E0233031054CF49F5F990F8170892BE3
:1049B000816080939F040E94541F80919F0486957C
:1049C0000C94FD0480919F04982F969591F0915836
:1049D000990F8170892B80939F048E7F91E009F459
:1049E00090E080919F0490FB80F980939F040E9447
:1049F000541F80919F0486950C94FD0480919F0420
:104A0000982F909590FB80F980939F040E94541FEB
:104A100080919F0480FF02C0869501C080E00C94C5
:104A2000FD0430919F04232F26952F5F2F77822F2F
:104A300090E0317004972CF4220F232B20939F04D5
:104A400002C030939F0480919F048E7F91E009F40F
:104A500090E080919F0490FB80F980939F040E94D6
:104A6000541F80919F0486950C94FD0420919F040F
:104A7000922F96959827990F822F8170892B80937A
:104A80009F048E7F91E009F490E080919F0490FB59
:104A900080F980939F040E94541F80919F04869503
:104AA0000C94FD0480918F040895CF93DF9300D080
:104AB0001F92CDB7DEB72091A404243019F523E06E
:104AC00029839B838A832093E9008FEF9091E800EC
:104AD000815095FD06C095ED9A95F1F70000811182
:104AE000F5CF8091E80085FF0DC040E050E063E025
:104AF00070E0CE0101960E94B2278091E8008E7787
:104B00008093E8000F900F900F90DF91CF91089560
:104B1000CF93DF9300D01F92CDB7DEB72091A404CE
:104B2000243021F522E029839B838A8383E08093CC
:104B3000E9008FEF9091E800815095FD06C095ED5A
:104B40009A95F1F700008111F5CF8091E80085FF7B
:104B50000DC040E050E063E070E0CE0101960E949D
:104B6000B2278091E8008E778093E8000F900F9035
:104B70000F90DF91CF9108952091A4042430F1F497
:104B800022E02093E9002FEF3091E800215035FD1D
:104B900006C035ED3A95F1F700002111F5CF2091CF
:104BA000E80025FF0BC040E050E065E070E00E94A7
:104BB000B2278091E8008E778093E8000895CF9324
:104BC000DF93EC018091A404843009F046C09091F9
:104BD0008E029923D9F090917B029923B9F08093AA
:104BE000E9008FEF9091E800815095FD06C095E1B6
:104BF0009A95F1F700008111F5CF8091E80085FFCB
:104C00002CC040E050E060E170E017C081E080938C
:104C1000E9008FEF9091E800815095FD06C095ED79
:104C20009A95F1F700008111F5CF8091E80085FF9A
:104C300014C040E050E068E070E0CE010E94B2276E
:104C40008091E8008E778093E80080E1FE01AFE775
:104C5000B4E001900D928A95E1F7DF91CF9108952C
:104C60008091A304811109C00E9444290E94A129B6
:104C70008091E20084608093E20008951092A30482
:104C80000895089508950C94A81F42E061EC81E016
:104C90000E94BE2842E061EC82E00E94BE2842E011
:104CA00061EC83E00E94BE2842E161EC84E00C9458
:104CB000BE288091A604833009F455C030F48130B9
:104CC00071F0823009F48EC008958A3009F47AC0F8
:104CD0008B3009F460C0893009F09CC020C08091FD
:104CE000A504813A09F096C08091E800877F8093FF
:104CF000E8008091A9049091AA04892B21F060E03A
:104D000080E090E003C060E18FE794E070E00E94F3
:104D1000FB278091E8008B778093E80008958091CD
:104D2000A504813209F076C08091A9049091AA046B
:104D3000009719F0039709F06DC08091E800877F14
:104D40008093E8008091E80082FD05C08091A40472
:104D50008111F8CF5FC08091F10080938F04809122
:104D6000E8008B7753C08091A504813A09F052C0C6
:104D70008091A9049091AA04892B09F04BC08091DD
:104D8000E800877F8093E8008091E80080FFFCCFF7
:104D900080918E0236C08091A5048132D9F5809130
:104DA000A9049091AA04892BA9F58091E800877F36
:104DB0008093E8000E94F3288091A70480938E02DC
:104DC0000C9467188091A504813221F58091E80048
:104DD000877F8093E8000E94F3288091A804809345
:104DE000900408958091A504813AA1F48091E8008F
:104DF000877F8093E8008091E80080FFFCCF80915E
:104E000090048093F1008091E8008E778093E80011
:104E10000C94F328089584B7877F84BF88E10FB688
:104E2000F89480936000109260000FBE80E8809339
:104E30006100109261000E94BB130E9444290E94ED
:104E4000A1298091E20084608093E20078940E941E
:104E50001C2C0E94BD1384E892E00E94671380918D
:104E6000A404853069F40E94621F8091A204882303
:104E7000B1F30E94901F882391F30E949C27EFCFEB
:104E80000E94C513ECCF292F332723303105A9F019
:104E90006CF42130310509F442C02230310509F0AB
:104EA00043C08DE690E02EEF34E042C02132310560
:104EB000C9F02232310519F137C0992781309105A7
:104EC00041F08230910541F0892B71F5EAEFF4E071
:104ED00005C0ECECF4E002C0E2EAF4E0849190E07A
:104EE0009F0126C0643000F5E62FF0E0EE0FFF1FB3
:104EF000E05CFC4F2081318189E090E019C0643092
:104F000098F4E62FF0E0DF01AA0FBB1FA85CBC4FAE
:104F10002D913C91EC5CFC4F808190E009C082E1D6
:104F200090E02BE635E004C080E090E020E030E047
:104F3000FA0131832083089580E189BD82E189BD32
:104F400009B400FEFDCF8091D8008F7D8093D800FA
:104F50008091E00082608093E0008091E00081FD1C
:104F6000FCCF0895CF92DF92EF92FF920F931F93A1
:104F7000CF93DF937C018B01EA010E9414298111F8
:104F800031C0209731F088819981081B190BE80EF8
:104F9000F91EC12CD12C0115110519F18091E800E1
:104FA00085FD14C08091E8008E778093E8002097FB
:104FB00041F0888199818C0D9D1D9983888385E0BE
:104FC00011C00E941429882331F30CC0F70181918C
:104FD0007F018093F10001501109FFEFCF1ADF0A22
:104FE000DACF80E0DF91CF911F910F91FF90EF908A
:104FF000DF90CF9008952091AB043091AC04261738
:10500000370748F06115710539F42091E8002E77D3
:105010002093E80001C0B901FC0120E06115710591
:10502000B9F18091A404882309F440C0853009F4C3
:105030003FC08091E80083FD3DC08091E80082FF81
:1050400006C08091E80082FF26C080E0089580912C
:10505000E80080FFE3CF2091F3008091F20090E020
:10506000922B6115710551F08830910538F421912A
:105070002093F100615071090196F3CF21E0089768
:1050800009F020E08091E8008E778093E800C6CF99
:105090002111C7CFD6CF8091A404882339F0853061
:1050A00039F08091E80083FFCCCF04C082E00895FE
:1050B00083E0089581E008952091AB043091AC0421
:1050C0002617370748F06115710539F42091E8007B
:1050D0002E772093E80001C0B901FC0120E06115A2
:1050E0007105C1F18091A404882309F441C0853081
:1050F00009F440C08091E80083FD3EC08091E80043
:1051000082FF06C08091E80082FF27C080E00895FA
:105110008091E80080FFE3CF2091F3008091F200BE
:1051200090E0922B6115710559F08830910540F49B
:1051300024912093F1003196615071090196F2CFCC
:1051400021E0089709F020E08091E8008E778093B5
:10515000E800C5CF2111C6CFD5CF8091A404882304
:1051600039F0853039F08091E80083FFCBCF04C05F
:1051700082E0089583E0089581E00895982F9730A4
:1051800058F59093E900981739F07091EC00209150
:10519000ED005091F00003C0242F762F50E021FF46
:1051A00019C03091EB003E7F3093EB003091ED0061
:1051B0003D7F3093ED003091EB0031603093EB0098
:1051C0007093EC002093ED005093F0002091EE00DE
:1051D00027FF07C09F5FD3CF8F708093E90081E0E6
:1051E000089580E008958091A50487FD05C0809111
:1051F000E80080FF0EC012C08091E80082FD05C06B
:105200008091A4048111F8CF08958091E8008B77F4
:1052100008C08091A4048111EACF08958091E8002C
:105220008E778093E80008958091E4009091E500E6
:1052300045E62091EC0020FF21C02091E80020FDF0
:1052400021C02091A404222389F0253089F02091E7
:10525000EB0025FD0FC02091E4003091E5002817F8
:10526000390739F3415041F0C901E3CF82E0089595
:1052700083E0089581E0089584E008952091E80096
:1052800022FFDFCF80E008950E94B2290E94BA2950
:10529000E0EEF0E0808181608083E8EDF0E08081E5
:1052A0008F77808319BCA7EDB0E08C918E7F8C93B3
:1052B00080818F7E80831092A30408950F931F93A3
:1052C000CF93DF930E94B2290E94BA29C8EDD0E0A3
:1052D00088818F77888388818068888388818F7DA3
:1052E000888319BC1092A4041092A0041092A20406
:1052F0001092A10400EE10E0F80180818B7F808382
:1053000088818160888342E060E080E00E94BE285E
:10531000E1EEF0E080818E7F8083E2EEF0E080813C
:1053200081608083808188608083F80180818E7FA6
:105330008083888180618883DF91CF911F910F9155
:105340000895E8EDF0E080818F7E8083E7EDF0E066
:1053500080818160808384E082BF81E08093A304A8
:105360000C945E29E8EDF0E080818E7F80831092BE
:10537000E20008951092DA001092E10008951F9261
:105380000F920FB60F9211242F933F934F935F9379
:105390006F937F938F939F93AF93BF93EF93FF93FD
:1053A0008091E10082FF0BC08091E20082FF07C084
:1053B0008091E1008B7F8093E1000E941B2C809103
:1053C000DA0080FF1FC08091D80080FF1BC0809151
:1053D000DA008E7F8093DA008091D90080FF0DC0C3
:1053E00080E189BD82E189BD09B400FEFDCF81E085
:1053F0008093A4040E94302605C019BC1092A40416
:105400000E943E268091E10080FF19C08091E20059
:1054100080FF15C08091E2008E7F8093E200809132
:10542000E20080618093E2008091D80080628093E6
:10543000D80019BC85E08093A4040E944226809184
:10544000E10084FF30C08091E20084FF2CC080E145
:1054500089BD82E189BD09B400FEFDCF8091D800ED
:105460008F7D8093D8008091E1008F7E8093E10052
:105470008091E2008F7E8093E2008091E200816063
:105480008093E2008091A004882311F084E007C09B
:105490008091E30087FF02C083E001C081E0809338
:1054A000A4040E9443268091E10083FF29C08091DB
:1054B000E20083FF25C08091E100877F8093E100B7
:1054C00082E08093A4041092A0048091E1008E7F7A
:1054D0008093E1008091E2008E7F8093E2008091D2
:1054E000E20080618093E20042E060E080E00E94A0
:1054F000BE288091F00088608093F0000E944126D1
:10550000FF91EF91BF91AF919F918F917F916F919B
:105510005F914F913F912F910F900FBE0F901F9071
:1055200018951F920F920FB60F9211242F933F934D
:105530004F935F936F937F938F939F93AF93BF939B
:10554000CF93EF93FF93C091E900CF708091EC006F
:105550001092E9008091F000877F8093F0007894AA
:105560000E94CD2A1092E9008091F000886080931B
:10557000F000C093E900FF91EF91CF91BF91AF91FF
:105580009F918F917F916F915F914F913F912F915B
:105590000F900FBE0F901F9018951F93CF93DF931E
:1055A000CDB7DEB7AA970FB6F894DEBF0FBECDBF5A
:1055B000E5EAF4E08091F100819324E0ED3AF2070E
:1055C000C9F70E9459268091E80083FF1CC12091F1
:1055D000A5043091A604832F90E08A30910508F04D
:1055E00012C1FC01E558FF4F0C942F30203881F098
:1055F000223809F008C18091A9048F708093E900D6
:105600008091EB0085FB882780F91092E90006C0A5
:105610008091A1049091A204911182609091E80080
:10562000977F9093E8008093F1001092F100C5C03D
:10563000822F8D7F09F0E7C0222319F0223061F01C
:10564000E2C08091A704813009F0DDC0333009F059
:1056500080E08093A20428C08091A704811124C017
:105660002091A9042F7009F4CEC02093E900809105
:10567000EB0080FF19C08091EB00333011F48062A1
:1056800011C080618093EB0081E090E0022E01C0A8
:10569000880F0A94EAF78093EA001092EA0080915A
:1056A000EB0088608093EB001092E9008091E800A5
:1056B000877F86C02111A7C01091A7041F77809112
:1056C000E3008078812B8093E3008091E800877F5E
:1056D0008093E8000E94F3288091E80080FFFCCFCF
:1056E0008091E30080688093E300112311F083E050
:1056F00001C082E08093A40486C02058223008F0C4
:1057000082C08091A7049091A8048C3D23E0920769
:1057100079F583E08A838AE289834FB7F894DE01C2
:10572000139620E03EE051E2E32FF0E05093570063
:10573000E49120FF03C0E295EF703F5FEF708E2F82
:1057400090E0EA3010F0C79601C0C0968D939D930B
:105750002F5F243149F74FBF8091E800877F809306
:10576000E8006AE270E0CE0101960E94FB2714C0B7
:10577000AE014F5F5F4F6091A9040E9443270097DD
:1057800009F441C02091E800277F2093E800BC0184
:1057900089819A810E945C288091E8008B778093B0
:1057A000E80031C0203879F58091E800877F809348
:1057B000E8008091A0048093F1008091E8008E774A
:1057C0008093E8000E94F3281EC021111CC0909114
:1057D000A7049230C0F48091E800877F8093E800AE
:1057E0009093A0040E94F3288091A004811104C02A
:1057F0008091E30087FF02C084E001C081E08093D4
:10580000A4040E9445268091E80083FF0AC080918D
:10581000E800877F8093E8008091EB0080628093AE
:10582000EB00AA960FB6F894DEBF0FBECDBFDF9196
:10583000CF911F9108950895CF938091A404882358
:10584000B1F08091E9008F709091EC0090FF02C060
:1058500090E801C090E0C92FC82B1092E900809118
:10586000E80083FD0E94CD2ACF70C093E900CF915C
:1058700008955058BB27AA270ED0D1C1C2D130F00D
:10588000C7D120F031F49F3F11F41EF4B7C10EF4DC
:10589000E095E7FB9FC1E92FD3D180F3BA176207E8
:1058A00073078407950718F071F49EF5EBC10EF4A9
:1058B000E0950B2EBA2FA02D0B01B90190010C0120
:1058C000CA01A0011124FF27591B99F0593F50F438
:1058D000503E68F11A16F040A22F232F342F442790
:1058E000585FF3CF469537952795A795F040539588
:1058F000C9F77EF41F16BA0B620B730B840BBAF058
:105900009150A1F0FF0FBB1F661F771F881FC2F7C2
:105910000EC0BA0F621F731F841F48F487957795D6
:105920006795B795F7959E3F08F0B3CF9395880F8D
:1059300008F09927EE0F97958795089527D108F4D9
:1059400081E008950CD06BC163D140F05AD130F0A2
:1059500021F45F3F19F03EC1511195C14FC170D183
:1059600098F39923C9F35523B1F3951B550BBB2726
:10597000AA2762177307840738F09F5F5F4F220FD3
:10598000331F441FAA1FA9F333D00E2E3AF0E0E8CC
:1059900030D091505040E695001CCAF729D0FE2F18
:1059A00027D0660F771F881FBB1F261737074807AA
:1059B000AB07B0E809F0BB0B802DBF01FF27935860
:1059C0005F4F2AF09E3F510568F004C15CC15F3F04
:1059D000ECF3983EDCF3869577956795B795F79548
:1059E0009F5FC9F7880F911D9695879597F9089540
:1059F000E1E0660F771F881FBB1F621773078407DC
:105A0000BA0720F0621B730B840BBA0BEE1F88F7EA
:105A1000E095089504D06894B11135C1089518D166
:105A200088F09F5790F0B92F9927B751A0F0D1F087
:105A3000660F771F881F991F1AF0BA95C9F712C011
:105A4000B13081F01FD1B1E008951CC1672F782FCC
:105A50008827B85F39F0B93FCCF38695779567957D
:105A6000B395D9F73EF490958095709561957F4FE9
:105A70008F4F9F4F0895E89409C097FB3EF490958F
:105A80008095709561957F4F8F4F9F4F9923A9F017
:105A9000F92F96E9BB279395F695879577956795A6
:105AA000B795F111F8CFFAF4BB0F11F460FF1BC0EA
:105AB0006F5F7F4F8F4F9F4F16C0882311F096E97D
:105AC00011C0772321F09EE8872F762F05C066232B
:105AD00071F096E8862F70E060E02AF09A95660FE4
