:100000000C94F6040C943A050C943A050C943A05B9
:100010000C943A050C943A050C943A050C943A0564
:100020000C943A050C943A050C94762A0C94482BBF
:100030000C946A200C943A050C943A050C943A05F9
:100040000C943A050C943A050C943A050C943A0534
:100050000C943A050C94D1200C943A050C943A0572
:100060000C943A050C943A050C943A050C943A0514
:100070000C943A050C943A050C943A050C943A0504
:100080000C947B0E0C943A050C943A050C943A05AA
:100090000C943A050C943A050C943A050C943A05E4
:1000A0000C943A050C943A050C943A055D056D05DF
:1000B0007F05AF058F059105A405DD05D016D01687
:1000C000FF16FF163F176117B018B0186C17B0185D
:1000D000131813187D188518B018AB18201820189D
:1000E0002018201820182018201820182018201850
:1000F0002018201820182018201820183018401810
:1001000047184E185818AD2BCF2BBA2CCF2BBA2C22
:10011000112C342CBA2C892C9C2C07634236B79BAB
:10012000D8A71A39685618AEBAAB558C1D3CB7CC57
:100130005763BD6DEDFD753EF6177231BF000000CF
:10014000803F08000000BE922449123EABAAAA2AB2
:10015000BECDCCCC4C3E00000080BEABAAAAAA3ECD
:1001600000000000BF000000803F00000000000809
:100170004178D3BB4387D1133D190E3CC3BD4282A6
:10018000AD2B3E68EC8276BED98FE1A93E4C80EF64
:10019000FFBE01C4FF7F3F000000000029B02D22F8
:1001A0002EA739282BA62C222A324CA6503451389F
:1001B000523134322B0014001A00080015001700C9
:1001C0001C0018000C00120013002A002900040073
:1001D0001600070009000A000B000D000E000F00BA
:1001E00033003400E1001D001B000600190005006B
:1001F0001100100036003700380028004370E0007E
:10020000E200E30041702C002C00427050005100CD
:1002100052004F00350014001A00090013000500B9
:100220000D000F0018001C003300310000200400F6
:100230001500160017000A001000110008000C003D
:100240001200280001201D001B00060007001900F5
:100250000E000B003600370038000B200220E000B3
:100260000320E300042005200620072008200920A1
:100270000A204F002B0034003600370013001C000A
:1002800009000A00060015000F002A0029000400DA
:100290001200080018000C0007000B0017001100E6
:1002A00016003800E100330014000D000E001B00A2
:1002B000050010001A0019001D0028004370E0001E
:1002C000E200E30041702C002C004270500051000D
:1002D00052004F0035021E021F022002210222029C
:1002E000230224022502260227022A004C003A009B
:1002F0003B003C003D003E003F002D022E022F023D
:10030000300231020100400041004200430044003D
:1003100045003202640201000100010001000100F9
:10032000010001000100010001000100AB00AA0072
:10033000A900AE0035001E001F0020002100220091
:10034000230024002500260027002A004C003A0044
:100350003B003C003D003E003F002D002E002F00E2
:1003600030003100010040004100420043004400E1
:10037000450032006400010001000100010001009D
:10038000010001000100010001000100AB00AA0012
:10039000A900AE001E001E001E001E001E001E0052
:1003A0001E001E001E001E001E001E000000140085
:1003B0001A000800150017001C0018000C0012009D
:1003C00013002F00000004001600070009000A00B7
:1003D0000B000D000E000F003300340044700000CD
:1003E00000000600190000000000110010000000CD
:1003F0000000000030021E001F002000210022002B
:100400002300240025002600270030002F021E02B2
:100410001F022002210222022302240225022602B8
:1004200027022F0045003A003B003C003D003E0003
:100430003F00400041004200430044000100010031
:100440000100010001000100010001004A004E000E
:100450004B004D00010001000100010001000100FE
:10046000040205022400250026002D0001000100E1
:100470000100010001000100060207022100220024
:1004800023002E0201000100010001000100010013
:10049000080209021E001F0020002E0001000100BA
:1004A00001000100010001000100010027003700E8
:1004B00038002502000000000000000000000000DD
:1004C000000000000000000000000000000000002C
:1004D000000000000000000000000000000000001C
:1004E000000000000000000000000000000000000C
:1004F00000000000000000000000000000000000FC
:1007B00000000000010000700100010001000100C4
:1007C000010001000100010001004C0001000100D6
:1007D00001001570167013700A703D703E703F7006
:1007E0004070010001001C701B70187019701D70A2
:1007F0001E70010001000100010001000100010064
:1008000001000100010001000100010001000100E0
:10081000010001002803540068006500200050001A
:100820006C0061006E0063006B0020004B006500EF
:10083000790062006F0061007200640000002C0308
:100840004F007200740068006F006C0069006E0059
:1008500065006100720020004B00650079006200B5
:100860006F0061007200640073000000040309045B
:1008700009026D00040100A0FA090400000103014F
:100880000100092111010001224000070581030830
:10089000000A0904010001030102000921110100FD
:1008A00001224D000705820308000A090402000125
:1008B0000300000009211101000122360007058311
:1008C0000308000A090403000103000000092111C4
:1008D00001000122390007058403100001120110F4
:1008E0000100000008EDFE60600400010200010547
:1008F000010906A101050719E029E7150025019561
:1009000008750181020508190129059505750191F0
:100910000295017503910105071900297715002536
:1009200001957875018102C005010980A101850248
:1009300016010026B7001A01002AB70075109501AC
:100940008100C0050C0901A1018503160100269C48
:10095000021A01002A9C02751095018100C0050150
:100960000902A1010901A1000509190129051500C4
:100970002501950575018102950175038101050128
:10098000093009311581257F9502750881060938DE
:100990001581257F950175088106050C0A38021519
:1009A00081257F950175088106C0C005010906A152
:1009B00001050719E029E715002501950875018152
:1009C000029501750881010508190129059505752C
:1009D0000191029501750391010507190029FF1581
:1009E0000026FF00950675088100C00011241FBE77
:1009F000CFEFDAE0DEBFCDBF04B603FE24C08091A6
:100A00008E0490918F04A0919004B091910487304E
:100A1000904BA740B04BB9F410928E0410928F0403
:100A2000109290041092910414BE84B7877F84BF03
:100A300088E10FB6F89480936000109260000FBEBA
:100A4000E0E0F8E3099513E0A0E0B1E0E8E4F2E6C5
:100A500002C005900D92A033B107D9F724E0A0E3BE
:100A6000B3E001C01D92AE38B207E1F70E94C22781
:100A70000C9422310C9400006E9A769A0C9418060D
:100A8000CF93DF93EC010E94F91FBE0180E090E05C
:100A9000DF91CF910C941C1D0F931F93CF93FC01FA
:100AA000ED53F047E830F10508F0A4C0EA5AFF4FD3
:100AB000DB011296CC910C94E630CC2309F49BC058
:100AC00000E010E0980140E064E070E088E292E02D
:100AD0000E94F71181E090E00FC0CC2309F48BC095
:100AE00000E010E0980140E066E070E088EB91E003
:100AF0000E94F71182E090E00E94400579C0CC236B
:100B000009F479C000E010E0980140E068E070E08E
:100B100088EE91E00E94F71184E090E0EDCF83E051
:100B200001C084E0CC2341F00E94931D40E164E0C9
:100B300083E00E9448065CC00E94B41D40E164E06E
:100B400083E00E94480657C085EECC2329F00E941E
:100B500063150E94C8254CC00E9436164CC0CC2399
:100B600009F449C00E94910D00E010E0980140E0B6
:100B700066E070E088E891E00E94F71184E00E944E
:100B8000B41D83E00E94B41D80E10E94B41D85E085
:100B90000E94931D0E94E61F811102C00E94C21F85
:100BA0000E94FE1F90E090937F0480937E048068F3
:100BB00080937E040E9402200FC0CC23E1F000E06D
:100BC00010E0980140E066E070E088E591E00E9466
:100BD000F71185E00E94B41D83EE0E9463158DE23B
:100BE0000E9463158DE20E94361683EE0E9436162F
:100BF000C0E001C0C1E08C2FCF911F910F910895EB
:100C00000F931F932FEF89EF90E021508040904089
:100C1000E1F700C0000000E010E0980140E065E06E
:100C200070E088E492E00E94F7111F910F910895FF
:100C30000C9400060F931F9300E010E0980140E031
:100C400063E070E080E091E00E94F7112FEF82E511
:100C500097E0215080409040E1F700C000001F91D4
:100C60000F910C94910D0F931F9300E010E09801E9
:100C700040E068E070E088E191E00E94F7111F9188
:100C80000F9108950C94330681E008950C944C055F
:100C9000CF92DF92EF92FF920F931F9301E010E04B
:100CA00020E030E06801790104C0CC0CDD1CEE1CB2
:100CB000FF1C8A95D2F7D701C60104C0000F111F8F
:100CC000221F331F6A95D2F7802B912BA22BB32BB7
:100CD0000091320410913304209134043091350492
:100CE000082319232A233B23081719072A073B0740
:100CF00049F4842F1F910F91FF90EF90DF90CF90D8
:100D00000C94931D842F1F910F91FF90EF90DF9013
:100D1000CF900C94B41D0E94290D0C94C40A279AFC
:100D20002F988FEF9FEF90938700809386008AE043
:100D30008093800089E1809381000C9471250E944A
:100D40008F060C943C052F9881110AC08091800079
:100D5000877F8093800010928D0010928C00089500
:100D6000833041F4809180008860809380008FEF11
:100D70009FEF12C09091800098609093800023E0D4
:100D800030E0281B3109220F331F8FEF9FEF02C085
:100D9000969587952A95E2F790938D0080938C0025
:100DA000089508950C94D1060C94D2060E941E1941
:100DB0000E94910D0E941A062FEF84E39CE02150BF
:100DC00080409040E1F700C000000C94F6200F93A3
:100DD0001F93CF93DF938C01FC01C081D181CE01A1
:100DE0000E94491EBE010E94C709EC01B8010E9481
:100DF0004606882309F412C1B801CE010E94C50B32
:100E0000882309F40BC1B801CE010E94560A882339
:100E100009F404C1C431F0E7DF0708F0CDC0C230E7
:100E200080E7D80708F4A3C0F8018281882309F479
:100E3000AAC00E94E61F811102C00E94C21F0E9428
:100E4000FE1F90E090937F0480937E04C230F0E711
:100E5000DF0721F480917E04816082C0C33080E787
:100E6000D80721F480917E0482607AC0C430E0E724
:100E7000DE0721F480917E04846072C0C530F0E703
:100E8000DF0719F480917E0427C0C63080E7D807B9
:100E900021F480917E04806163C0C730E0E7DE0703
:100EA00021F480917E0480625BC0C830F0E7DF07E8
:100EB00021F480917E04806453C0C93080E7D80754
:100EC00021F480917E0480684BC0CA30E0E7DE07E1
:100ED00029F480917E048460886042C0CB30F0E7C2
:100EE000DF0721F480917E048E7F3AC0CC3080E70A
:100EF000D80721F480917E048D7F32C0CD30E0E7A9
:100F0000DE0721F480917E048B7F2AC0CE30F0E78B
:100F1000DF0719F480917E0422C0CF3080E7D80724
:100F200021F480917E048F7E1BC0C031E0E7DE0794
:100F300021F480917E048F7D13C0C131F0E7DF077B
:100F400021F480917E048F7B0BC0C231D04721F405
:100F500080917E048F7704C080917E048B7F877F91
:100F600080937E0480917E040E94022057C0C115A8
:100F7000E0E7DE0779F0C130D047A1F081E080934F
:100F8000300380933103C801DF91CF911F910F91FE
:100F90000C944406F8018281882309F43FC00E9422
:100FA000D6063CC0F80182818823C1F180914F04AC
:100FB000816080934F0432C0CB3380E7D807A1F41F
:100FC000F8018281882321F01092300382E016C05C
:100FD00080913003811106C086E20E94631586E28B
:100FE0000E94361682E018C0CC33D04739F6F8019B
:100FF0008281882331F01092310380E20E948516AD
:101000000DC080913103811106C087E20E946315F3
:1010100087E20E94361680E20E948C1680E0DF9103
:10102000CF911F910F9108952CE0729FF001112430
:1010300030E3839FE00DF11D1124E60FF11DEE0F4B
:10104000FF1FEC54FE4F859194910E94D9098115A0
:1010500040E5940708F047C0811520E4920708F0A6
:101060001BC1883E910520F5803E910508F08AC19C
:10107000883A910578F4853A910508F0A5C0813049
:10108000910509F47FC108F436C18430910508F058
:1010900079C131C18D3B910508F4A1C0803C910517
:1010A00008F429C1FC01EE0FFF1FE45EFF4FEEC004
:1010B000811530E2930758F4811541E0940708F058
:1010C00061C1803F910508F416C1906508958115AE
:1010D00020E3920708F0DDC09F70880F991F8456A7
:1010E0009E4FFC01D3C0811535E5930708F043C03E
:1010F000811544E5940708F0E6C0811522E59207C2
:1011000008F5811531E5930708F0C9C0482F4370F1
:1011100021E030E002C0220F331F4A95E2F73C681D
:10112000AC0164E0569547956A95E1F74370342B1E
:101130008F708695869540E2849FC0011124822B92
:10114000932B0895282F26952695AC01437055279B
:101150008115934508F0A8C030E2239FC0011124F7
:1011600021E030E002C0220F331F4A95E2F7822BC4
:10117000932B9C6808958F3240E7940790F48F3149
:1011800020E7920708F0AAC0811536E5930708F416
:101190009FC09C0130562115304108F0ACC09F70B3
:1011A0009BC0803320E7920709F49FC008F49AC0DF
:1011B000813340E7940709F49BC08233904709F0DC
:1011C0009AC080E093ED0895853A910509F496C0A0
:1011D000863A910509F495C083E890E40895883A29
:1011E000910509F491C0893A910509F490C08A3AB1
:1011F000910509F48FC08B3A910509F48EC08C3AA1
:10120000910509F48DC08B3B910509F48CC08C3B92
:10121000910509F48BC08D3A910509F48AC0803B91
:10122000910509F489C08E3A910509F488C08F3A76
:10123000910509F487C0813B910509F486C0823B82
:10124000910509F485C0833B910509F484C0843B72
:10125000910509F483C0853B910509F482C0863B62
:10126000910509F481C0873B910509F480C0883B52
:10127000910509F47FC0893B910509F47EC08A3B42
:10128000910509F07DC08AE296E4089585919491D4
:1012900008959927906C08959F70906A0895982FEB
:1012A0008827816F906A089530E2239FC00111243E
:1012B00021E030E002C0220F331F4A95E2F7822B73
:1012C000932B9A680895982F8827846F906A0895C1
:1012D0008F719927982F8827906208958F51904792
:1012E000946D089580E091ED089580E090ED08956B
:1012F00080E092ED089580E090E0089581E890E428
:10130000089582E890E4089582EE94E4089589EEC9
:1013100094E408958AEE94E4089585EB94E40895A6
:1013200086EB94E4089583EB94E4089584EB94E4CD
:10133000089587EB94E408958CEC94E408958DEC83
:1013400094E4089583E895E408958AE895E408957F
:1013500082E995E4089584E995E4089581E296E4AC
:10136000089583E296E4089584E296E4089585E280
:1013700096E4089586E296E4089587E296E4089557
:1013800080E094E4089580E090E0089508959CE062
:10139000799FF001112490E3899FE00DF11D112444
:1013A000E60FF11DEE0FFF1FEC54FE4F8591949157
:1013B00008958238910549F1B0F48133910509F41B
:1013C00059C048F48932910509F44FC08A32910519
:1013D00009F455C008958533910509F441C0893356
:1013E000910599F00895833E910531F138F4803EDE
:1013F000910591F0823E9105A9F00895863E9105F0
:1014000001F1873E910539F1089520917E0420FD78
:101410003BC021FD39C0089580917E0480FF34C017
:1014200089E341C080917E0482FF32C080917E04B6
:1014300084FF2CC080E037C080917E0482FD28C0EC
:10144000F5CF80917E0483FF25C080917E0484FDCA
:10145000F1CF87EE28C080917E0483FD1BC0F5CFBD
:1014600080917E0485FF18C019C080917E0485FF9D
:1014700015C012C080917E0486FF12C013C08091F7
:101480007E0486FF0FC00CC080EE0DC083EE0BC043
:1014900082EE09C086EE07C085E305C089E203C07D
:1014A00081E301C08AE290E008950895CF93DF932D
:1014B000EC01FB018281811102C081E040C080917A
:1014C0003F03811125C0C431D047B9F70E94550AA6
:1014D00081E080933F030E949C2090933E03809381
:1014E0003D03109232031092340310923303109292
:1014F000360310923503109238031092370310927E
:101500003A031092390310923C0310923B0316C029
:1015100080913D0390913E030E94A820883C910554
:1015200060F680913203E82FF0E0EE0FFF1FED5CD4
:10153000FC4FD183C0838F5F8093320380E0DF91C3
:10154000CF910895AEEBB2E021E030E08D91E82F2D
:10155000F0E094E0F595E7959A95E1F741A18F7059
:10156000B90102C0660F771F8A95E2F7CB01962F6B
:101570009095492341A392A1982B92A372E0A23C9B
:10158000B70721F7089508950C94C30A85B78068BA
:1015900085BF85B7806885BF0E94A20AA2EBB2E032
:1015A00021E030E08D91E82FF0E044E0F595E795FB
:1015B0004A95E1F741A18F70B90102C0660F771F0C
:1015C0008A95E2F7CB01962F9095492341A392A1EA
:1015D000982B92A372E0AE3BB70721F71092490314
:1015E00010924803109241031092400310924B0353
:1015F00010924A03109243031092420310924D033B
:1016000010924C03109245031092440310924F0322
:1016100010924E0310924703109246030C949F06BB
:10162000DF92EF92FF920F931F93CF93DF930EEB16
:1016300012E0C0E4D3E0EE24E394F12CE5E0DE2EEA
:10164000F80181918F01E82FF0E064E0F595E795CE
:101650006A95E1F721A18F70A70102C0440F551FC1
:101660008A95E2F7CA01242B21A392A180959823A1
:1016700092A350EA5A95F1F7A2EBB2E080E090E035
:1016800020E030E06D91E62FF0E054E0F595E7952D
:101690005A95E1F740A150E06F7002C0559547950B
:1016A0006A95E2F740FD08C0A701022E02C0440F70
:1016B000551F0A94E2F702C040E050E0842B952BBE
:1016C0002F5F3F4F2C303105E9F6288139812817EB
:1016D000390721F099838883D09270020E94A20A70
:1016E000229682E0023C180709F0AACF809170028E
:1016F000882361F1815080937002882339F0EFE9EB
:10170000FFE03197F1F700C0000020C08091400356
:101710009091410390934903809348038091420341
:101720009091430390934B0380934A038091440329
:101730009091450390934D0380934C038091460311
:101740009091470390934F0380934E030E948B0622
:1017500081E0DF91CF911F910F91FF90EF90DF908B
:101760000895E82FF0E0EE0FFF1FE85BFC4F80814B
:10177000918108950895109296030C94910D81E043
:10178000809396030C9442060895AF92BF92CF9235
:10179000DF92EF92FF920F931F93CF93DF93CDB71A
:1017A000DEB7A3970FB6F894DEBF0FBECDBF5C01C6
:1017B0008B0185E1A81680E7B80639F4FB01828128
:1017C0008823B1F10E948B120BC0F6E1AF16F0E74F
:1017D000BF0641F4FB018281882351F10E949412DB
:1017E00080E026C1F7E1AF16F0E7BF0649F4FB0140
:1017F00082818823B9F10E9487128111EFCFE2CF55
:10180000F8E1AF16F0E7BF0639F4FB0182818823C7
:10181000B9F10E94BF0BE4CFF9E1AF16F0E7BF06C4
:1018200039F4FB018281882359F10E94BB0BD8CF88
:10183000FAE1AF16F0E7BF0649F4F8018281882388
:10184000F9F0809196038111F0CFE3CFFBE1AF1661
:10185000F0E7BF0639F4F8018281882389F00E94FD
:101860009B120BC0FCE1AF16F0E7BF0649F4F8018C
:101870008281882329F00E94A6120E943306B0CFED
:1018800080919603882309F4D2C0F0EEAF16B1041C
:1018900079F4F8018281882309F452C00E94910DE5
:1018A00081E080939503109294031092530398CF94
:1018B000F2EEAF16B10461F4F8018281882309F4D5
:1018C0003FC00E94910D109295031092940388CF0F
:1018D000F3EEAF16B10491F4F8018281882381F10F
:1018E0000E94910D1092950381E0809394031092D1
:1018F0005203109251031092500372CFF2E5AF16CB
:10190000B10459F4F8018281882309F491C08091CF
:101910007102909172020A970EC0F1E5AF16B10400
:1019200079F4F8018281882309F482C080917102E0
:10193000909172020A96909372028093710250CF36
:101940002091750283E2EFE8F2E0DE01119601904A
:101950000D928A95E1F7F8018081E1E0F0E0EC0F6B
:10196000FD1FE80FF11D8091730290917402E80F42
:10197000F91F6081772767FD7095620F711D8827B9
:1019800077FD8095982F0E94F42D20E030E040E410
:1019900051E40E94592D6B017C01F801818164E0C2
:1019A00070E0681B7109882777FD8095982F0E9449
:1019B000F42D9B01AC01C701B6010E94F12C9B01E3
:1019C000AC0160E070E080E090E40E94672F20E0CE
:1019D00030E04CED50E40E94042F6B017C01F801D3
:1019E00082818823D1F04FE050E0C701B6010E9408
:1019F0009711809195038823A1F08091530394E07F
:101A0000899FF0011124EC5AFC4FC082D182E282FE
:101A1000F3828F5F8093530304C0C701B6010E9415
:101A2000C40D81E0EFEFAE16B10410F4D9CE81E021
:101A3000A3960FB6F894DEBF0FBECDBFDF91CF9156
:101A40001F910F91FF90EF90DF90CF90BF90AF90DC
:101A5000089580919403882309F448C0809150032D
:101A600090915103009779F40E949C209093510328
:101A7000809350038091520390E0009771F480911D
:101A8000530390E00AC00E94A82020917102309177
:101A900072022817390740F308950197FC01EE0FF1
:101AA000FF1FEE0FFF1FEC5AFC4F60817181828196
:101AB00093810E94C40DE091520384E0E89FF001FD
:101AC0001124EC5AFC4F60817181828193814FE037
:101AD00050E00E9497118091520390E0019660912E
:101AE000530370E00E94D2308093520308950E9405
:101AF000E61F811102C00E94C21F0E941020809325
:101B000076043E9A809171008D7F8093710082E00F
:101B1000809390008AE18093910081E08093990303
:101B2000089580919903811102C00E94770D10924F
:101B3000E9031092E803809171008D7F809371001A
:101B4000809190008F73809390001092AB0310925D
:101B5000AA031092E2031092E3031092E40310929E
:101B6000E5031092E1031092E003E0ECF3E0A0EB58
:101B7000B3E011921192119211921D921D9283E085
:101B8000E03EF807B1F708958F929F92AF92BF920F
:101B9000CF92DF92EF92FF920F931F93CF93DF9339
:101BA0006B017C018091AA03882309F497C080917E
:101BB0009903811102C00E94770D00EE13E0C7E087
:101BC000D0E0A7019601D8019E918E917E916E91F1
:101BD0008D010E94552D811145C0FE01EE0FFF1FA2
:101BE000EE0FFF1FE054FC4F10821182128213820D
:101BF0009E01220F331F20553C4FD9011D921C928C
:101C000040E050E060E070E06C5F7F4F4E5F5F4F00
:101C1000C730D10551F121967F01E60EF71ED7019D
:101C20008D909D90AD90BC90870104501109D80112
:101C30008D929D92AD92BC921397D7011D921D92E9
:101C40001D921C9213977901E40EF51ED7010D9198
:101C50001C91C7010297DC010D931C93D7011D92C3
:101C60001C92D2CF219708F0ACCF8091E8039091DD
:101C7000E903019797FD05C09093E9038093E8037A
:101C800004C01092E9031092E8038091E803909158
:101C9000E9032091E6033091E7032817390724F080
:101CA0001092E7031092E603892BC1F48091710032
:101CB0008D7F80937100809190008F73809390004E
:101CC0001092E2031092E3031092E4031092E503F2
:101CD0001092E1031092E0031092AA03DF91CF91DA
:101CE0001F910F91FF90EF90DF90CF90BF90AF903A
:101CF0009F908F9008951F920F920FB60F9211240C
:101D00004F925F926F927F928F929F92AF92BF920B
:101D1000CF92DF92EF92FF922F933F934F935F9377
:101D20006F937F938F939F93AF93BF93CF93DF93E3
:101D3000EF93FF938091AA03882309F49AC1C0917D
:101D4000E803D091E9031C161D060CF092C14090E7
:101D50009A0350909B0360909C0370909D0320E039
:101D600030E0A901C301B2010E94002F18160CF047
:101D700065C0C130D10509F452C08091E60390914D
:101D8000E703BE010E94D2305C019093E703809389
:101D9000E603C090AC03D090AD03E090AE03F090AA
:101DA000AF0320E030E040E85FE3C701B6010E94E6
:101DB000F12C6093AC037093AD038093AE039093CA
:101DC000AF03F501EE0FFF1FEE0FFF1FE054FC4FB6
:101DD000A301920160817181828193810E94592DBA
:101DE00020E030E040E05EE30E94042F9B01AC0164
:101DF000C701B6010E94002F18168CF4C501019688
:101E0000BE010E94D2309093E7038093E6031092C4
:101E1000AC031092AD031092AE031092AF03E091A9
:101E2000E603F091E703EE0FFF1FEE0FFF1FE054F4
:101E3000FC4F6081718182819381CFC0C090E203A9
:101E4000D090E303E090E403F090E50320E030E07D
:101E5000A901C701B6010E94552D2197882309F4D5
:101E6000A2C0FE01EE0FFF1FEE0FFF1FE054FC4F5C
:101E700080809180A280B380A5019401C701B60142
:101E80000E94552D87FF31C0A501940160E070E0EC
:101E90008CED93EC0E94592D20E030E040E451E4B9
:101EA0000E94592D20E030E040E05FE30E94042FC3
:101EB0009B01AC0160E070E080E090E40E94672F3D
:101EC0009B01AC01C501B4010E94042F9B01AC0130
:101ED000C701B6010E94552D87FF07C0A7019601D3
:101EE00060E070E08CED93E439C0A5019401C70176
:101EF000B6010E94002F18160CF055C0A5019401E0
:101F000060E070E08CED93E40E94592D20E030E019
:101F100040E451E40E94592D20E030E040E05FE3CE
:101F20000E94042F9B01AC0160E070E080E090E42F
:101F30000E94672F9B01AC01C501B4010E94042FD0
:101F40009B01AC01C701B6010E94002F18165CF579
:101F5000A701960160E070E08CED93EC0E94592D92
:101F600020E030E040E451E40E94592D20E030E0D0
:101F700040E05FE30E94042F9B01AC0160E070E051
:101F800080E090E40E94672F9B01AC01C701B6017D
:101F90000E94042F6093E2037093E3038093E403B1
:101FA0009093E50312C0CC0FDD1FCC0FDD1FC05492
:101FB000DC4F88819981AA81BB818093E203909351
:101FC000E303A093E403B093E5036091E20370910F
:101FD000E3038091E4039091E5032091970330910E
:101FE00098032F3F4FEF340731F02F5F3F4F30936F
:101FF0009803209397030E94B1126B017C0120E0AB
:1020000034E244EF51E40E94552D87FF08C026EFCB
:10201000C22E28E2D22E24EFE22E21E4F22E20E07E
:1020200030E040E051E4C701B6010E94042F9B015B
:10203000AC0160E074E284E79BE40E94592D6B01DF
:102040007C010E94C62D70939700609396002091AA
:102050007602309177024091780250917902C7015F
:10206000B6010E94042F0E94C62D709399006093C0
:1020700098008091AB03882309F432C1C090A60375
:10208000D090A703E090A803F090A90320E030E0EF
:10209000A901C701B6010E94002F1816D4F580913E
:1020A0009703909198038F3F2FEF920729F00196A5
:1020B0009093980380939703C701B6010E94B112D1
:1020C00020E030E040E051E40E94042F9B01AC018D
:1020D00060E074E284E79BE40E94592D6B017C016F
:1020E0000E94C62D7093970060939600209176020F
:1020F000309177024091780250917902C701B60180
:102100000E94042F0E94C62D70939900609398003E
:1021100008C01092970010929600109299001092A9
:1021200098006091A0037091A1036F5F7F4F70933F
:10213000A1036093A003209196003091970080E066
:1021400090E0232BF1F0C0919600D09197000E946F
:10215000F22D6B017C01BE0180E090E00E94F22D27
:102160009B01AC016091A2037091A3038091A40331
:102170009091A5030E94592D20E03FEF4FE757E4CF
:1021800010C00E94F22D6B017C0120E030EE4FEF79
:1021900054E46091A2037091A3038091A4039091F1
:1021A000A5030E94042F9B01AC01C701B6010E9448
:1021B000002F87FD95C020919E032F5F20939E03E3
:1021C00030E0809172049091730428173907A0F0D1
:1021D00080917D04882319F010929E030DC0809198
:1021E00071008D7F80937100809190008F73809338
:1021F00090001092AB037CC080919F03C0919E031E
:10220000811128C0C0907704D0907804E0907904C0
:10221000F0907A0420E030E0A901C701B6010E94E5
:10222000002F1816BCF481E080939F031092A60340
:102230001092A7031092A8031092A903C092A203C0
:10224000D092A303E092A403F092A503C150C093DF
:102250009E0342C010929F0310929803109297031E
:10226000E0917404F091750448E0C49FE00DF11D05
:10227000112480819181A281B3818093A6039093E0
:10228000A703A093A803B093A90320E030E040E89F
:102290005EE364817581868197810E94042F6B01C2
:1022A0007C0160917A0270E080E090E00E94F22D63
:1022B00020E030E048EC52E40E94592D9B01AC0133
:1022C000C701B6010E94042F6093A2037093A30379
:1022D0008093A4039093A5031092A1031092A003EE
:1022E0008091760480FD04C01092AB031092AA0383
:1022F000FF91EF91DF91CF91BF91AF919F918F911E
:102300007F916F915F914F913F912F91FF90EF904F
:10231000DF90CF90BF90AF909F908F907F906F9005
:102320005F904F900F900FBE0F901F901895CF9217
:10233000DF92EF92FF92CF93DF936B017C01EA0172
:1023400080919903811102C00E94770D80917604DB
:1023500080FF46C08091E8039091E90308970CF054
:102360003FC0809171008D7F809371008091AB039D
:1023700081110E94910D81E08093AA03109298032D
:102380001092970320E030E0A901C701B6010E9436
:10239000002F1816DCF48091E8039091E903FC010A
:1023A000EE0FFF1FEE0FFF1FE054FC4FC082D182E3
:1023B000E282F382FC01EE0FFF1FE055FC4FD18358
:1023C000C08301969093E9038093E80380917100A4
:1023D000826080937100809190008068809390006B
:1023E000DF91CF91FF90EF90DF90CF9008959F9273
:1023F000AF92BF92CF92DF92EF92FF920F931F9313
:10240000CF93DF93EC015B01942E680179018091F9
:102410009903811102C00E94770D8091760480FF9C
:102420006AC0809171008D7F809371008091AA03B2
:1024300081110E94910D81E08093AB03D0937504CC
:10244000C0937404B0927304A092720490927D04BD
:10245000C0927704D0927804E0927904F0927A04E2
:102460001092AC031092AD031092AE031092AF0322
:1024700010929E0388819981AA81BB818093A603D3
:102480009093A703A093A803B093A90320E030E0A2
:1024900040E85EE36C817D818E819F810E94042FE4
:1024A0006B017C0160917A0270E080E090E00E9414
:1024B000F22D20E030E048EC52E40E94592D9B01BF
:1024C000AC01C701B6010E94042F6093A203709370
:1024D000A3038093A4039093A5031092A1031092E9
:1024E000A0038091710082608093710080919000C0
:1024F000806880939000DF91CF911F910F91FF90A2
:10250000EF90DF90CF90BF90AF909F900895809113
:1025100076048170089580917604816080937604BA
:102520000E9414200C94C40B809176048E7F8093BB
:1025300076040C9414208091EA0390E0019666E002
:1025400070E00E94D2308093EA0308958091EA03FC
:1025500090E0019766E070E00E94D2308093EA0339
:1025600008958F929F92AF92BF92CF92DF92EF9297
:10257000FF92CF93DF936B017C01C0919703D091C1
:102580009803BE0180E090E00E94F22D4B015C01B7
:10259000A701960160E070E08CE594E40E94592D5B
:1025A0009B01AC01C501B4010E94042F0E94C62DFD
:1025B0009B014091EA03433009F473C028F444239B
:1025C00051F04130E9F02DC1443009F4A0C045304C
:1025D00009F4E0C026C180E090E0A0E0BFE3809372
:1025E000760290937702A0937802B09379021092CA
:1025F0009A0310929B0310929C0310929D0311C1A9
:1026000010929A0310929B0310929C0310929D03C8
:102610006431710540F46A30710560F520E030E006
:1026200040E85EE32BC0693C710508F0AAC080E079
:1026300090E00E94F22D20E030E040EA51E40E9458
:10264000F02C20E030E044E353E40E94592D9B013C
:10265000AC010E94042F20E030E040E05EE30E94E5
:10266000042F9B01AC0160E070E080E09EE30E94DB
:10267000F02C44C020E030E040E05FE3C701B60149
:102680000E94042F6B017C0180E090E0A0E0BEE39B
:102690008093760290937702A0937802B0937902A8
:1026A000C0C010929A0310929B0310929C03109248
:1026B0009D034AE0469F9001479F300D1124C901B8
:1026C00068EB7BE00E94BE30BC016C5D754077FF1B
:1026D00003C0719561957109882777FD8095982FC2
:1026E0000E94F42D2EE333EC4EE259E30E94042FB6
:1026F00020E030E040EC5EE30E94F12C6093760233
:102700007093770280937802909379028AC0109236
:102710009A0310929B0310929C0310929D03CE018A
:1027200083709927892BE1F0BE016170772780E0E3
:1027300090E00E94F22D20E030E040E05EE30E9455
:10274000042F20E030E040E45FE30E94F12C60932E
:1027500076027093770280937802909379020CC08E
:1027600080E090E0A0E0BFE3809376029093770250
:10277000A0937802B0937902C770DD27CD2B09F0C2
:1027800050C0109276021092770210927802109246
:10279000790247C010929A0310929B0310929C03F7
:1027A00010929D03812C912CA12C9FE3B92E809235
:1027B000760290927702A0927802B092790227393D
:1027C000310578F180E090E00E94F22D20E030E0C9
:1027D00047E153E40E94F02C20E030E04AE754E463
:1027E0000E94592D20E030E048E452E40E94042F7A
:1027F00020E030E040EA51E40E94362E0E94C12DD4
:10280000FB01EE0FFF1FEE0FFF1FEE53FD4F208168
:10281000318142815381C701B6010E94042F6B01AF
:102820007C01C701B601DF91CF91FF90EF90DF905F
:10283000CF90BF90AF909F908F9008959093F003AA
:102840008093EF030895E091EF03F091F003309748
:1028500021F00190F081E02D099480E00895E0914D
:10286000EF03F091F003309721F00280F381E02D27
:1028700009940895E091EF03F091F003309721F06F
:102880000480F581E02D099408952091ED033091A5
:10289000EE038217930771F09093EE038093ED039C
:1028A000E091EF03F091F003309721F00680F7817B
:1028B000E02D099408952091EB033091EC038217E9
:1028C000930771F09093EC038093EB03E091EF0397
:1028D000F091F003309721F00084F185E02D099408
:1028E000089508950C9471140E9493200E94C60AC2
:1028F0000E9419210C9471255F926F927F928F92A2
:102900009F92AF92BF92CF92DF92EF92FF920F937E
:102910001F93CF93DF93CDB7DEB72A970FB6F89406
:10292000DEBF0FBECDBF0E94100B92EFC92E93E009
:10293000D92E00E010E0AA24A394B12C502E802FB1
:102940000E94B10B3C01F601E190F1906F01E82685
:10295000F926E114F104B1F40F5F1F4F04301105A3
:1029600069F78FEF89838A831B820E949C20816094
:10297000782F9D838C8349815A816B818D810E9440
:1029800035153AC080914F0481FD0E94BA0B20E0BA
:1029900030E04501022E02C0880C991C0A94E2F72F
:1029A000C4018E219F21892B09F12E835F8268202B
:1029B000792081E0672809F480E088870E949C20C4
:1029C0008160782F9A8789874E815F8168858A85A3
:1029D0000E943515F801EE0FFF1FEE50FC4F80816D
:1029E0009181882599259183808306C02F5F3F4F71
:1029F0002C30310571F6B0CF0E94B0221091F10356
:102A00000E9423141817D9F00E9423148093F10315
:102A10002A960FB6F894DEBF0FBECDBFDF91CF91DF
:102A20001F910F91FF90EF90DF90CF90BF90AF90EC
:102A30009F908F907F906F905F900C94D4062A9611
:102A40000FB6F894DEBF0FBECDBFDF91CF911F91BF
:102A50000F91FF90EF90DF90CF90BF90AF909F903D
:102A60008F907F906F905F900895CF93DF93CDB755
:102A7000DEB72B970FB6F894DEBF0FBECDBF4F83E6
:102A8000588769877A878B87DE01119686E0FD017A
:102A900011928A95E9F785E0FE01379601900D9233
:102AA0008A95E1F749815A816B817C818D819E8174
:102AB0000E94EE1B2B960FB6F894DEBF0FBECDBF63
:102AC000DF91CF910895CF93C82F882309F4CCC00C
:102AD000823859F40E94231481FDC6C089E30E9404
:102AE000C91E0E94931F89E30CC0833879F40E94A9
:102AF000231480FDB9C083E50E94C91E0E94931F64
:102B000083E50E94091FCF910C94931F843859F4D8
:102B10000E94231482FDA8C087E40E94C91E0E945F
:102B2000931F87E4EECF8CEF8C0F813A48F48C2F03
:102B30000E94DD24811198C08C2F0E94C91EE3CF12
:102B400080E28C0F883048F4C77081E001C0880FA4
:102B5000CA95EAF70E944A1FD6CF8BE58C0F8330C7
:102B600078F4C53A29F0C63A31F482E890E005C01D
:102B700081E890E002C083E890E0CF910C94451486
:102B800088E58C0F853108F06FC0C83A61F1C93A09
:102B900069F1CA3A71F1CB3A79F1CC3A81F1CB3B88
:102BA00089F1CC3B91F1CD3A99F1C03BA1F1CE3AFC
:102BB000A9F1CF3AB1F1C13BB9F1C23BC1F1C33B7D
:102BC000C9F1C43BD1F1C53BD9F1C63BE1F1C73BEB
:102BD000E9F1C83BF1F1C93BF9F1CA3B09F03FC04B
:102BE0008AE292E03EC082EE90E03BC089EE90E047
:102BF00038C08AEE90E035C085EB90E032C086EBBD
:102C000090E02FC083EB90E02CC084EB90E029C0D3
:102C100087EB90E026C08CEC90E023C08DEC90E038
:102C200020C083E891E01DC08AE891E01AC082E9E3
:102C300091E017C084E991E014C081E292E011C0F4
:102C400083E292E00EC084E292E00BC085E292E063
:102C500008C086E292E005C087E292E002C080E010
:102C600090E0CF910C945B14CF910895882309F4E0
:102C70004BC0823859F40E94231481FF45C089E378
:102C80000E94C91E0E94931F89E30CC0833871F40F
:102C90000E94231480FF38C083E50E94C91E0E9451
:102CA000931F83E50E94091F0C94931F843859F4E5
:102CB0000E94231482FF28C087E40E94C91E0E943C
:102CC000931F87E4EFCF9CEF980F913A58F390E26F
:102CD000980F983050F4877091E001C0990F8A9551
:102CE000EAF7892F0E94501FDFCF9BE5980F9330A2
:102CF00020F480E090E00C944514885A853120F44B
:102D000080E090E00C945B140895882321F00E94E9
:102D10004A1F0C94931F0895882321F00E94501F8E
:102D20000C94931F08958F929F92AF92BF92CF926F
:102D3000DF92EF92FF920F931F93CF93DF931F9237
:102D4000CDB7DEB74C01A62E472FFC01E580E294FB
:102D50008FE0E822F280FF2021F079830E94671F34
:102D6000498149830E94C21E4981882381F0FF2046
:102D700071F080E28A0D883050F082E00E94AB1E34
:102D80000E94C21EBB24B394B826498101C0B12C55
:102D9000E42FE295EF70F0E0E25AFF4F0C94E6303A
:102DA000842F807F142F1F70882311F01295107FBD
:102DB000FF2089F0112309F496C180E28A0D883042
:102DC00020F4812F0E944A1F03C0812F0E945A1FA6
:102DD0000E94931F88C18A2D0E943616112309F480
:102DE000BFC180E28A0D883020F4812F0E94501FDD
:102DF00003C0812F0E94601F0E94931FB1C1242F26
:102E0000207F842F8F70203211F08295807FAA203E
:102E100021F0F1E0AF16B1F021C0FF2041F0EE202B
:102E200039F191E0E91224C00E947A1F99C1EE2085
:102E300021F0E1E0EE1609F493C189830E947D1F21
:102E400089810BC1FF2029F0F5E0FE1508F488C147
:102E50000FC094E09E1508F483C1FFC0FF2059F015
:102E6000EE2031F0F401958190FF3DC19F70958374
:102E70000E94851675C1EE2009F4EFC03AC1242FD7
:102E800026952695237030E02115310521F021305B
:102E9000310561F065C1FF2021F08A2D942F9370D8
:102EA00002C080E090E00E9445145AC1FF2021F04A
:102EB0008A2D942F937002C080E090E00E945B14F2
:102EC0004FC18A2DFF2019F00E94B82102C00E9434
:102ED00020220E94A52244C1842F837009F04EC095
:102EE000F1103EC12A2D229526952770220F220F20
:102EF0008A2D8F70C82ED12CE12CF12C022E04C00B
:102F0000CC0CDD1CEE1CFF1C0A94D2F7A4FE10C0F2
:102F10006FE070E080E090E004C0660F771F881FCC
:102F2000991F2A95D2F7609570958095909503C06A
:102F300060E070E0CB01242F26952695237030E0C9
:102F40002230310569F02330310589F06C297D2963
:102F50008E299F292130310571F00E94401D00C14A
:102F60006C297D298E299F290E945A1DF9C00E9433
:102F7000401DC701B6010E94261DF2C0FF2019F0B6
:102F8000842F817001C08695882309F4E9C02A2D19
:102F9000229526952770220F220F8A2D8F70C82E1A
:102FA000D12CE12CF12C022E04C0CC0CDD1CEE1C2B
:102FB000FF1C0A94D2F7A4FE10C06FE070E080E01E
:102FC00090E004C0660F771F881F991F2A95D2F7DB
:102FD000609570958095909503C060E070E0CB019E
:102FE000242F26952695237030E02230310569F094
:102FF0002330310589F06C297D298E299F292130C4
:10300000310571F00E94141EABC06C297D298E29F8
:103010009F290E942E1EA4C00E94141EC701B60143
:103020000E94FA1D9DC00A2D10E0F801E05EF10932
:10303000E531F10508F053C0E259FF4F0C94E6303A
:103040001A2D1F70842F8F71FF2021F00E94931D75
:10305000812F0ECF0E94B41D812F0E948C1680C03C
:10306000FF2049F0F4E0FE1508F47AC0842F8F7138
:103070000E94D91D75C085E08E1508F471C0F6CF89
:10308000FF2039F0842F8F710E94931D69C0FF20AB
:10309000C9F3842F8F710E94B41D62C0FF2029F0F4
:1030A000842F8F710E947E1D5BC00E94741D58C0CA
:1030B000FF2051F0142F1F71812F0E94931D63E098
:1030C000812F0E94A21E4CC081E00E94AB1E91E0A5
:1030D0009E1508F045C082E00E94AB1E41C0FF2053
:1030E00031F0EE2079F28A2D0E94631539C0EE206E
:1030F00081F28A2D0E94361633C04F706A2DC401AA
:103100000E94C3090E949B1C2BC0F11029C0942F60
:103110009F70492F50E042305105B9F04CF44115F1
:10312000510581F041305105D9F40E94992518C00C
:103130004330510569F04430510591F48A2D0E94C5
:10314000ED250EC00E9482250BC00E94B52508C047
:103150000E94C82505C04F706A2DC4010E94C6098F
:10316000BB20F1F00E949E1E80FD1AC0F401128265
:103170000E94981E0E94931DC4010E94DE180E94A6
:10318000981E0F90DF91CF911F910F91FF90EF90BC
:10319000DF90CF90BF90AF909F908F900C94B41D14
:1031A0000F90DF91CF911F910F91FF90EF90DF90E3
:1031B000CF90BF90AF909F908F9008950F931F93E3
:1031C000CF93DF93EC01288139818B819C81892BFE
:1031D00031F03F3F11F080E003C02F3FE1F781E085
:1031E000811113C0CE010E94E706882371F0688127
:1031F00079818A810E94941E8C010E94481E0E943F
:103200001B1DB801CE010E949316DF91CF911F9133
:103210000F9108950E94671F0E94771F0E943C1F14
:103220000E94931F0E9451230E94A52280E090E0FB
:103230000E94451480E090E00C945B140E94571F9C
:103240000C940A190E94891E292F22952F7030E0B4
:103250002C3031054CF42A3031056CF42250310900
:1032600022303105B0F407C02C30310571F02F3019
:10327000310559F00EC0803F31F018F4803E48F41B
:1032800002C0843F31F481E0089593FB882780F9E0
:10329000089580E00895CF93DF9300D000D01F926F
:1032A000CDB7DEB70F900F900F900F900F90DF917A
:1032B000CF910895CF93DF9300D000D000D0CDB749
:1032C000DEB726960FB6F894DEBF0FBECDBFDF91F6
:1032D000CF9108951F93CF93DF93C091FA0316E027
:1032E0008091FB03C81799F0D0E01C9FF0011D9F4F
:1032F000F00D1124E450FC4F4081518162817381B3
:10330000848195810E945A192196C770E9CFDF9177
:10331000CF911F91089540912C0450912D046091FC
:103320002E0470912F0480913004909131040C94FC
:103330005A19CF938091310482958F7009F05FC044
:1033400080912E04882309F45AC02091FA03A09199
:10335000FB0360912C0470912D0480912F049091B7
:10336000300431E06F3F09F030E0B32FC6E02A1798
:1033700009F445C0009721F07F3F21F44B2F03C093
:1033800041E001C040E030E040FD35C0C29FF001A7
:10339000C39FF00D1124E450FC4F418174132BC0E6
:1033A0004081641328C04281411125C0438154816A
:1033B0004817590710F441505109481B590B483C14
:1033C0005105C8F4809131048F708061809331047D
:1033D00086E0829FF001839FF00D1124EF5FFB4F89
:1033E00080818F70806180838CE294E00E94DE187F
:1033F000CF910C946A192F5F3F4F2770B8CFCF91B0
:103400000895CF92DF92EF92FF920F931F93CF9385
:10341000DF93CDB7DEB762970FB6F894DEBF0FBE6D
:10342000CDBF8C0185E0F801DE011D9601900D9263
:103430008A95E1F7D8014C9111965C9111971296FB
:103440006C9112971396ED90FC90149770912C0448
:10345000E0912D0420912F04309130042115310585
:1034600031F0EF3F31F481E07F3F19F403C081E098
:1034700001C080E0B82FB170CB2E80FD6CC1D09020
:103480002E04DD2009F4F5C0F0913104E216F306B4
:1034900038F0C701821B930B883C910548F09BC014
:1034A000209530952E0D3F1D283C310508F093C026
:1034B0008F2F807F09F052C0E51314C0741312C01F
:1034C000D62E61110FC0FF70F061F09331040E949D
:1034D0008B198CE294E00E94DE1880913104F8018F
:1034E00085836CC1EF2831F05F3F31F481E04F3FBD
:1034F00019F403C081E001C080E080FD03C081E0D9
:10350000862701C080E0F82FF170FF2E80FF1CC0DD
:103510008091FA032091FB0336E0821709F428C159
:1035200090E0389FF001399FF00D1124E450FC4FDA
:103530007181571306C07081471303C072816713EE
:1035400003C001968770E9CFD62E662309F436C1F1
:103550008091310481608093310453C0E51308C029
:10356000741306C0611104C0D8011596FC93AEC057
:103570004D875E878D859E856A8B0E9422196A8998
:10358000882329F1D62E662311F120913104822F50
:1035900082958F7090E002970CF460C080912C04AB
:1035A00090912D0498878F831986FB86EA862C8755
:1035B000CE01079651C0E51731F14D875E878D85A5
:1035C0009E856A8B0E9422196A8981112EC0C801CA
:1035D0000E94DE18A4C08F2F807F69F77E2DF98AA4
:1035E000E88A89890E944B198CE294E00E94DE18D7
:1035F000ECE2F4E086E0DF011D928A95E9F70E9493
:103600008B19D12CDBC07413D8CF6111D6CFD80160
:103610001596FC93C8010E94DE18ECE2F4E086E007
:10362000DF011D928A95E9F7C9C0D62E662379F28B
:1036300020913104822F82958F7090E0029774F070
:1036400080912C0490912D049A8389831B82FD82A2
:10365000EC822E83CE0101960E94DE1886E0F801EE
:10366000ACE2B4E001900D928A95E1F70E949919BD
:103670006FC0E216F30628F0C701821B930B9C0172
:1036800004C0209530952E0D3F1D283C310508F0D3
:1036900052C0D62E662309F49ACFE5132CC07413BA
:1036A0002AC08091310480FD1DC0982F92959F7093
:1036B000C9F0D80115968C9315979F3039F09F5F0C
:1036C0009295907F8F70892B15968C93C8010E94DC
:1036D000DE1886E0F801ACE2B4E001900D928A9524
:1036E000E1F736C086E0F801ACE2B4E001900D925B
:1036F0008A95E1F763C04D875E878D859E850E9420
:103700002219882379F086E0F801ACE2B4E0019058
:103710000D928A95E1F70E9499190E948B19DD2478
:10372000D3944CC080913104816080933104C801EE
:103730000E94DE1843C07E2DF98AE88A89890E949A
:103740004B19ECE2F4E086E0DF011D928A95E9F77F
:103750000E948B1933C0662309F439CF4D875E87E9
:103760008D859E850E942219882309F430CFCBCF06
:103770004D875E878D859E850E94891E292F229503
:103780002F7030E0223031052CF49F7041F0811110
:1037900006C00CC0243031052CF49F7049F4805EC3
:1037A000883020F0C8010E94DE18CF2CDC2C06C027
:1037B000D80115969C91907F91F7F8CF8D2D629648
:1037C0000FB6F894DEBF0FBECDBFDF91CF911F9132
:1037D0000F91FF90EF90DF90CF9008951F93CF93BC
:1037E000DF93CDB7DEB72C970FB6F894DEBF0FBED0
:1037F000CDBF4F83588769877A878B879C87CE0197
:1038000007960E94011A8823C1F02F8138858A8586
:103810009B85892B31F03F3F11F080E003C02F3FA3
:10382000E1F781E0811147C04F81588569857A852C
:103830008B859C850E945A193EC086E0FE01379612
:10384000DE01119601900D928A95E1F7FF81E885DE
:103850004A855B854115510531F0EF3F31F481E038
:10386000FF3F19F403C081E001C080E080FD23C068
:103870002091FB0330E0C901019687709927609180
:10388000FA0370E086179707F1F1F983EA835D8305
:103890004C8396E0929FD001939FB00D1124A450C9
:1038A000BC4FFE01319601900D929A95E1F78093FD
:1038B000FB030E946A1916E08091FA039091FB03C2
:1038C000891779F1189FC001112484509C4F0E94E0
:1038D000011A882331F1E091FA031E9FF0011124AF
:1038E000E450FC4F408151816281738184819581D4
:1038F0000E945A198091FA0390E0019687709927E7
:103900008093FA03D9CF0E941E191092FB031092E4
:10391000FA03ECE2F4E086E0DF011D928A95E9F714
:10392000CACF2C960FB6F894DEBF0FBECDBFDF9185
:10393000CF911F910895EF92FF920F931F93CF9312
:10394000DF93FC01009709F46FC0F12CEE24E3949F
:10395000EF0121968491843740F4843008F055C0FB
:10396000813081F0823021F15FC0853709F447C092
:10397000C0F19CE7980F903708F056C08F770E94EF
:10398000361645C08F010E5F1F4FFE01849190E2F5
:10399000980F983050F48770FE2D01C0FF0F8A9564
:1039A000EAF78F2F0E946A1F15C00E94631514C08A
:1039B0008F010E5F1F4FFE01849190E2980F9830A7
:1039C00068F48770FE2D01C0FF0F8A95EAF78F2FEC
:1039D0000E94701F0E94931FE80119C00E943616B2
:1039E000FBCFCF010296FE01C491CC2361F0EFE939
:1039F000FFE03197F1F700C00000C150F6CFCF01D2
:103A00000296FE01F490EC0102C00E9463158F2D16
:103A1000882341F0EFE9FFE03197F1F700C00000A3
:103A20008150F6CFFE0194CFDF91CF911F910F917E
:103A3000FF90EF90089508956093360470933704D3
:103A400080933804909339040C940A190F931F93B0
:103A500000913604109137042091380430913904D4
:103A6000062B172B282B392B009336041093370481
:103A700020933804309339041F910F910C940A1944
:103A80000F931F930091360410913704209138044E
:103A90003091390406231723282339230093360451
:103AA0001093370420933804309339041F910F91F9
:103AB0000C940A190F931F93009136041091370448
:103AC00020913804309139040627172728273927F1
:103AD000009336041093370420933804309339044C
:103AE0001F910F910C940A19109232041092330412
:103AF00010923404109235040C940A1941E050E0FD
:103B000060E070E004C0440F551F661F771F8A9560
:103B1000D2F740933204509333046093340470938B
:103B200035040C940A1941E050E060E070E004C0F4
:103B3000440F551F661F771F8A95D2F78091320474
:103B400090913304A0913404B0913504842B952BCB
:103B5000A62BB72B8093320490933304A0933404A4
:103B6000B09335040C940A1941E050E060E070E035
:103B700004C0440F551F661F771F8A95D2F74095E2
:103B80005095609570958091320490913304A09186
:103B90003404B091350484239523A623B72380935E
:103BA000320490933304A0933404B09335040C94FE
:103BB0000A1941E050E060E070E004C0440F551F76
:103BC000661F771F8A95D2F7809132049091330453
:103BD000A0913404B091350484279527A627B727F0
:103BE0008093320490933304A0933404B09335044B
:103BF0000C940A190F931F9300913204109133040F
:103C00002091340430913504062B172B282B392BA7
:103C1000009332041093330420933404309335041A
:103C20001F910F910C940A190F931F930091320466
:103C30001091330420913404309135040623172366
:103C4000282339230093320410933304209334043F
:103C5000309335041F910F910C940A190F931F9301
:103C600000913204109133042091340430913504D2
:103C70000627172728273927009332041093330487
:103C800020933404309335041F910F910C940A193A
:103C90000895CF92DF92EF92FF920F931F93CF93ED
:103CA000DF93EC01C0903604D0903704E0903804E4
:103CB000F09039048091320490913304A09134043F
:103CC000B0913504C82AD92AEA2AFB2A0FE110E06C
:103CD000B701A601002E04C07695679557954795C4
:103CE0000A94D2F740FD05C00150110988F780E021
:103CF00007C0BE01802F0E9414080197A9F3802FEE
:103D0000DF91CF911F910F91FF90EF90DF90CF90B7
:103D10000895CF93DF93EC010E94491EBE010E94DB
:103D20001408DF91CF910895CB010E94891E089558
:103D300080913A04859585958595089580913A04FA
:103D40008770089598E0899F90011124622B6093F9
:103D50003A040C94931D40913A04809584238093F7
:103D60003A04982F977069F450E0282F332727FDE5
:103D700030954217530729F08595859585950C94C4
:103D8000B41D089590913A04977081E009F480E0A1
:103D9000089590918E029923D9F090917B029923F6
:103DA000B9F0982F9695969596959F3088F5E09165
:103DB0007C02F0917D02E90FF11D877021E030E077
:103DC00001C0220F8A95EAF78181822B81830895B1
:103DD00040917C0250917D0220E030E09FEFFA019B
:103DE000E20FF31F6281681799F09F3F19F4611188
:103DF00001C0922F2F5F3F4F2E30310581F79F3F3B
:103E000039F0FA01E90FF11D97FDFA9582830895C3
:103E1000089590918E029923E1F090917B0299236D
:103E2000C1F0982F9695969596959F3020F5E09144
:103E30007C02F0917D02E90FF11D877021E030E0F6
:103E400001C0220F8A95EAF72095818128232183DA
:103E5000089540917C0250917D0220E030E0FA010B
:103E6000E20FF31F9281981301C012822F5F3F4F20
:103E70002E303105A1F7089581E090E0E0917C02B9
:103E8000F0917D02E80FF91F1082019680319105B3
:103E9000A9F7089590914E04982B90934E0408959D
:103EA000809590914E04982390934E04089510921B
:103EB0004E04089590914D04982B90934D040895CD
:103EC000809590914D04982390934D0408951092FD
:103ED0004D04089590914C04982B90934C040895B0
:103EE000809590914C04982390934C0408951092DF
:103EF0004C04089580933B04089510923B04089568
:103F000040917C0250917D0220E030E080E0FA0197
:103F1000E20FF31F918191118F5F2F5F3F4F2F3081
:103F20003105A9F70895E0917C02F0917D0280911E
:103F30004E048083E0917C02F0917D02808190911B
:103F40004D04892B8083E0917C02F0917D02808179
:103F500090914C04892B808390913B04992361F0CC
:103F6000E0917C02F0917D028081892B80830E9408
:103F7000801F811110923B0480917C0290917D0200
:103F80000C942F146DEE7EEF80E090E00E940C31D7
:103F900060E082E090E00E94FA3060E083E090E030
:103FA0000E94FA3060E084E090E00E94FA3060E025
:103FB00085E090E00E94FA3060E086E090E00E94A8
:103FC000FA306FEF87E090E00C94FA3080E090E0F8
:103FD0000E94F43021E08D3E9E4F09F020E0822FB8
:103FE000089582E090E00C94EC3083E090E00C9433
:103FF000EC30682F83E090E00C94FA3084E090E09D
:104000000C94EC30682F84E090E00C94FA3086E059
:1040100090E00C94EC30682F86E090E00C94FA303D
:1040200087E090E00C94EC30682F87E090E00C94EF
:10403000FA3080918504843039F11092500420E4E4
:1040400088E190E00FB6F894A895809360000FBEC9
:104050002093600080E00E94A30680E00E94D406C6
:1040600083B7817F846083BF83B7816083BF789487
:10407000889583B78E7F83BF88E10FB6F8948093CD
:104080006000109260000FBE089508950895CF93C8
:1040900080E00E94A3060E9445200E94100B0E940F
:1040A0004620C0E08C2F0E94B10B892B29F4CF5FF2
:1040B000C430C1F780E001C081E0CF9108950E9433
:1040C0001E1980E00E94A3060E9471250E942314FD
:1040D0000C94D4061F920F920FB60F9211248F9357
:1040E0009F93AF93BF9380915004811113C080912F
:1040F000510490915204A0915304B09154044196FC
:10410000A11DB11D8093510490935204A0935304B8
:10411000B0935404BF91AF919F918F910F900FBEB8
:104120000F901F90189582E084BD93E095BD9AEFA3
:1041300097BD80936E0008952FB7F8948091510435
:1041400090915204A0915304B09154042FBF08954C
:10415000CF92DF92EF92FF920F931F932FB7F894B5
:104160004091510450915204609153047091540451
:104170002FBF6A017B01EE24FF248C0120E030E098
:10418000C016D106E206F30610F441505109481B4F
:10419000590BCA011F910F91FF90EF90DF90CF90C4
:1041A00008951F920F920FB60F9211248F939F9331
:1041B000AF93BF938091510490915204A091530406
:1041C000B09154040196A11DB11D809351049093A8
:1041D0005204A0935304B0935404BF91AF919F91A4
:1041E0008F910F900FBE0F901F9018950E94FB2982
:1041F000F8942FEF87EA91E6215080409040E1F754
:1042000000C0000087E090EBDC0180938E04909367
:104210008F04A0939004B09391042CE088E190E087
:104220000FB6F894A895809360000FBE20936000AD
:10423000FFCF0E94E61F811102C00E94C21F0E9490
:10424000F11F80934F040E94FE1F90E090937F0423
:1042500080937E0487FB882780F980937B020E94ED
:10426000F51F682F70E080E090E00C941C1D809199
:10427000570480FF0BC06091810285E0689FB00108
:10428000112475956795759567952AC081FF09C0BA
:104290006091810285E0689FB00111247595679552
:1042A0001FC082FF07C06091810285E0689FB00156
:1042B000112416C0409158044423C9F06091800233
:1042C000461788F72091810285E0289F90011124EC
:1042D000429FC001439F900D112470E00E94D23094
:1042E0006038710540F46115710539F002C065E070
:1042F00070E0862F08958FE7089581E008958091FA
:10430000570480FF08C060917F0270E07595679543
:104310007595679521C081FF06C060917F0270E0AE
:104320007595679519C082FF04C060917F0270E0A7
:1043300010C0809158048823C1F060917E028617D6
:10434000A0F790917F02989FC001112470E00E9415
:10435000D2306038710528F46115710521F0862F7F
:1043600008958FE7089581E0089561E070E0F4CF4B
:10437000803F21F40E943721819504C0813F29F4B8
:104380000E94372180935B040895823F21F40E94AC
:104390003721819504C0833F29F40E9437218093FF
:1043A0005A040895893F19F40E947F2105C08A3F6D
:1043B00031F40E947F21819580935C0408958B3FA6
:1043C00021F40E947F21819504C08C3F29F40E9432
:1043D0007F2180935D040895843F21F480915904E6
:1043E000816017C0853F21F480915904826011C01B
:1043F000863F21F48091590484600BC0873F21F4EB
:1044000080915904886005C0883F31F48091590437
:1044100080618093590408958D3F21F48091570461
:1044200081600BC08E3F21F480915704826005C0EB
:104430008F3F29F480915704846080935704089536
:10444000803F39F480915B0487FF6CC010925B045D
:1044500069C0813F29F480915B041816BCF362C0E7
:1044600090915A04823F29F497FF5CC010925A043D
:1044700059C0833F19F41916CCF354C0893F41F455
:1044800080915C0418160CF04DC010925C044AC078
:104490008A3F29F480915C0487FF44C0F6CF8B3FAC
:1044A00039F480915D0487FF3DC010925D043AC0ED
:1044B0008C3F29F480915D041816BCF333C0843F0F
:1044C00021F4809159048E7F17C0853F21F480919B
:1044D00059048D7F11C0863F21F4809159048B7F50
:1044E0000BC0873F21F480915904877F05C0883F26
:1044F00031F4809159048F7E8093590413C08D3F0D
:1045000021F4809157048E7F0BC08E3F21F480915F
:1045100057048D7F05C08F3F29F4809157048B7F0E
:104520008093570480915A0481110EC080915B04DE
:1045300081110AC080915C04811106C080915D04E4
:10454000811102C010925804089589E594E00E94F8
:104550003A140E949C209093560480935504089529
:104560001F93CF93DF9380915504909156040E943E
:10457000A82040915804442321F02091820230E089
:1045800006C0209183025AE0259F900111248217D2
:10459000930708F482C080915A0410915B04D09173
:1045A0005C04C0915D04811107C0111105C0D111D7
:1045B00003C0CC2309F471C04F3F19F04F5F409303
:1045C0005804181624F40E94372180935A048091CD
:1045D0005A0487FF05C00E943721819580935A04B1
:1045E000111624F40E94372180935B0480915B04B0
:1045F00087FF05C00E943721819580935B046091FD
:104600005A04662339F110915B04112319F17727BD
:1046100067FD7095872F972F0E94F42D23E333E3D6
:1046200043E35FE30E94042F0E94C12D60935A046C
:10463000612F772767FD7095872F972F0E94F42DA4
:1046400023E333E343E35FE30E94042F0E94C12D81
:1046500060935B041D1624F40E947F2180935C0408
:1046600080915C0487FF05C00E947F218195809323
:104670005C041C1624F40E947F2180935D048091C9
:104680005D0487FF05C00E947F21819580935D04B2
:10469000DF91CF911F910C94A522DF91CF911F91B3
:1046A0000895E9E5F4E085E0DF011D928A95E9F7D8
:1046B00010925804109257040895833081F128F421
:1046C000813059F08230D1F00895853009F449C025
:1046D000B8F1863009F456C0089520918302862FE0
:1046E00090E0820F911D8F3F910520F4620F60933F
:1046F000830208958FEF80938302089520918202B0
:10470000862F90E0820F911D8F3F910520F4620F5C
:104710006093820208958FEF809382020895209122
:104720008102862F90E0820F911D8F3F910520F42A
:10473000620F6093810208958FEF80938102089544
:1047400020918002862F90E0820F911D8F3F91056E
:1047500020F4620F6093800208958FEF80938002AF
:10476000089520917F02862F90E0820F911D8F3F48
:10477000910520F4620F60937F0208958FEF80937C
:104780007F02089520917E02862F90E0820F911D76
:104790008F3F910520F4620F60937E0208958FEFA2
:1047A00080937E020895833011F128F4813049F01E
:1047B000823091F00895853081F120F18630C1F189
:1047C000089580918302681720F4861B80938302EA
:1047D000089510928302089580918202681720F450
:1047E000861B809382020895109282020895809120
:1047F0008102681720F4861B80938102089510922D
:104800008102089580918002681720F4861B8093AE
:104810008002089510928002089580917F026817A7
:1048200020F4861B80937F02089510927F020895E2
:1048300080917E02681720F4861B80937E02089583
:1048400010927E020895873220F58E3108F08EC0D6
:10485000803109F46FC070F4873009F447C018F450
:10486000863089F12EC08B3009F496C08E3009F461
:1048700057C027C0863109F48FC020F4813109F474
:104880006AC01FC0893109F487C08B3109F43EC06A
:1048900018C0883309F480C050F4893209F474C018
:1048A000853309F471C0873209F46EC00AC08334BD
:1048B00009F46AC020F48A3308F056C002C0883474
:1048C00061F080E0089580914F04817F8E7F809316
:1048D0004F0481E080935F0408950E941E190E9496
:1048E000910D0E941A060E94F62056C090914F0426
:1048F000892F8095817080FB90F919F096609860FF
:1049000027C0997F977F90934F0446C090914F04A2
:1049100091FB882780F921E0822780FB91F913C061
:1049200090914F0492FB882780F921E0822780FB39
:1049300092F909C090914F0493FB882780F921E0F8
:10494000822780FB93F990934F04882329F191608B
:1049500090934F0408950E941E1980917B0291E06C
:10496000892780937B0218C027EC01C023EE280F13
:1049700061E070E080E090E004C0660F771F881F60
:10498000991F2A95D2F704C061E070E080E090E0C2
:104990000E941C1D0E941E1981E0089580E0089568
:1049A00080E008958E518A3030F4E82FF0E0EE5E1A
:1049B000FC4F8081089580E00895CF93C82F8091A7
:1049C0005F04813069F018F08230B1F180C0E0916D
:1049D0007C02F0917D028081823209F07AC007C0AA
:1049E000E0917C02F0917D028081823249F48C2F2B
:1049F0000E94CE2481111DC08C2F0E9423241AC036
:104A00008C2F0E94D024811114C0C43179F048F455
:104A1000CB3079F0C03109F060C082E080935F0450
:104A200008C0C93219F0C83321F057C010925F0492
:104A300054C081E0817053C0C93289F118F5C43186
:104A400071F1B0F4C73009F046C08EE18093830263
:104A500082E3809382028AE08093810284E18093E2
:104A6000800288E080937F0288E280937E0233C0D8
:104A700082EE8C0F863078F58C2F0E94D2248093A2
:104A80005E0429C0CE34E9F020F4CB3421F56AE08D
:104A900013C0C13579F0C235F1F461E00DC08091E9
:104AA0005E04882319F010925E0415C081E08093A3
:104AB0005F0415C061E006C080915E040E945D2322
:104AC0000AC06AE080915E040E94D32304C0109261
:104AD0005F0480E004C081E002C080E0ABCFCF91F2
:104AE00008950E94E61F811102C00E94C21F0E9409
:104AF00007208093800480FF02C0869501C080E07B
:104B00000C94A30680918004982F9695292F30E06D
:104B1000233031054CF49F5F990F8170892B8160A0
:104B2000809380040E940B208091800486950C94D1
:104B3000A30680918004982F969591F09158990F33
:104B40008170892B809380048E7F91E009F490E03E
:104B50008091800490FB80F9809380040E940B2058
:104B60008091800486950C94A30680918004982FF0
:104B7000909590FB80F9809380040E940B20809197
:104B8000800480FF02C0869501C080E00C94A306DB
:104B900030918004232F26952F5F2F77822F90E06E
:104BA000317004972CF4220F232B2093800402C031
:104BB00030938004809180048E7F91E009F490E02E
:104BC0008091800490FB80F9809380040E940B20E8
:104BD0008091800486950C94A30620918004922FE6
:104BE00096959827990F822F8170892B8093800446
:104BF0008E7F91E009F490E08091800490FB80F931
:104C0000809380040E940B208091800486950C94F0
:104C1000A306809170040895CF93DF9300D01F9274
:104C2000CDB7DEB720918504243019F523E0298320
:104C30009B838A832093E9008FEF9091E800815055
:104C400095FD06C095ED9A95F1F700008111F5CF1D
:104C50008091E80085FF0DC040E050E063E070E027
:104C6000CE0101960E9469288091E8008E7780939A
:104C7000E8000F900F900F90DF91CF910895CF93A0
:104C8000DF9300D01F92CDB7DEB72091850424308A
:104C900021F522E029839B838A8383E08093E900C6
:104CA0008FEF9091E800815095FD06C095ED9A95A3
:104CB000F1F700008111F5CF8091E80085FF0DC06C
:104CC00040E050E063E070E0CE0101960E94692868
:104CD0008091E8008E778093E8000F900F900F90FE
:104CE000DF91CF910895209185042430F1F422E0E2
:104CF0002093E9002FEF3091E800215035FD06C0E8
:104D000035ED3A95F1F700002111F5CF2091E8003B
:104D100025FF0BC040E050E065E070E00E9469288C
:104D20008091E8008E778093E8000895CF93DF9319
:104D3000EC0180918504843009F046C090918E0288
:104D40009923D9F090917B029923B9F08093E900DF
:104D50008FEF9091E800815095FD06C095E19A95FE
:104D6000F1F700008111F5CF8091E80085FF2CC09C
:104D700040E050E060E170E017C081E08093E9001E
:104D80008FEF9091E800815095FD06C095ED9A95C2
:104D9000F1F700008111F5CF8091E80085FF14C084
:104DA00040E050E068E070E0CE010E946928809108
:104DB000E8008E778093E80080E1FE01A0E6B4E091
:104DC00001900D928A95E1F7DF91CF91089580913E
:104DD0008404811109C00E94FB290E94582A8091F5
:104DE000E20084608093E2000895109284040895A4
:104DF000089508950C945F2042E061EC81E00E94E8
:104E0000752942E061EC82E00E94752942E061EC84
:104E100083E00E94752942E161EC84E00C947529DD
:104E200080918704833009F455C030F4813071F0EB
:104E3000823009F48EC008958A3009F47AC08B302C
:104E400009F460C0893009F09CC020C080918604BC
:104E5000813A09F096C08091E800877F8093E8004E
:104E600080918A0490918B04892B21F060E080E08E
:104E700090E003C060E180E694E070E00E94B22818
:104E80008091E8008B778093E800089580918604F4
:104E9000813209F076C080918A0490918B0400974A
:104EA00019F0039709F06DC08091E800877F809327
:104EB000E8008091E80082FD05C0809185048111A1
:104EC000F8CF5FC08091F100809370048091E8007A
:104ED0008B7753C080918604813A09F052C080914B
:104EE0008A0490918B04892B09F04BC08091E800D3
:104EF000877F8093E8008091E80080FFFCCF80915D
:104F00008E0236C0809186048132D9F580918A0460
:104F100090918B04892BA9F58091E800877F80937D
:104F2000E8000E94AA298091880480938E020C9444
:104F30001E1980918604813221F58091E800877FD7
:104F40008093E8000E94AA298091890480937104CB
:104F5000089580918604813AA1F48091E800877FCA
:104F60008093E8008091E80080FFFCCF809171047D
:104F70008093F1008091E8008E778093E8000C9494
:104F8000AA29089584B7877F84BF88E10FB6F89473
:104F900080936000109260000FBE80E880936100F3
:104FA000109261000E9472140E94FB290E94582AEC
:104FB0008091E20084608093E20078940E94D32C78
:104FC0000E94741484E892E00E941E14809185046B
:104FD000853069F40E941920809183048823B1F3FD
:104FE0000E944720882391F30E945328EFCF0E940C
:104FF0007C14ECCF292F332723303105A9F06CF432
:105000002130310509F442C02230310509F043C096
:105010008DE690E020E738E042C021323105C9F04A
:105020002232310519F137C099278130910541F0BD
:105030008230910541F0892B71F5ECE6F8E005C06E
:10504000EEE3F8E002C0E4E1F8E0849190E09F0133
:1050500026C0643000F5E62FF0E0EE0FFF1FE85D9C
:10506000FC4F2081318189E090E019C0643098F4D0
:10507000E62FF0E0DF01AA0FBB1FA05EBC4F2D9111
:105080003C91E45EFC4F808190E009C082E190E0B9
:105090002DED38E004C080E090E020E030E0FA013F
:1050A00031832083089580E189BD82E189BD09B4FF
:1050B00000FEFDCF8091D8008F7D8093D800809135
:1050C000E00082608093E0008091E00081FDFCCFF1
:1050D0000895CF92DF92EF92FF920F931F93CF9399
:1050E000DF937C018B01EA010E94CB29811131C041
:1050F000209731F088819981081B190BE80EF91E61
:10510000C12CD12C0115110519F18091E80085FD04
:1051100014C08091E8008E778093E800209741F0DA
:10512000888199818C0D9D1D9983888385E011C0AC
:105130000E94CB29882331F30CC0F70181917F01B4
:105140008093F10001501109FFEFCF1ADF0ADACF87
:1051500080E0DF91CF911F910F91FF90EF90DF9052
:10516000CF90089520918C0430918D042617370735
:1051700048F06115710539F42091E8002E772093ED
:10518000E80001C0B901FC0120E061157105B9F129
:1051900080918504882309F440C0853009F43FC01C
:1051A0008091E80083FD3DC08091E80082FF06C049
:1051B0008091E80082FF26C080E008958091E80099
:1051C00080FFE3CF2091F3008091F20090E0922BDA
:1051D0006115710551F08830910538F421912093C3
:1051E000F100615071090196F3CF21E0089709F0B1
:1051F00020E08091E8008E778093E800C6CF2111EF
:10520000C7CFD6CF80918504882339F0853039F017
:105210008091E80083FFCCCF04C082E0089583E052
:10522000089581E0089520918C0430918D04261713
:10523000370748F06115710539F42091E8002E77A1
:105240002093E80001C0B901FC0120E0611571055F
:10525000C1F180918504882309F441C0853009F4A7
:1052600040C08091E80083FD3EC08091E80082FF4D
:1052700006C08091E80082FF27C080E008958091F9
:10528000E80080FFE3CF2091F3008091F20090E0EE
:10529000922B6115710559F08830910540F42491E5
:1052A0002093F1003196615071090196F2CF21E00F
:1052B000089709F020E08091E8008E778093E8005D
:1052C000C5CF2111C6CFD5CF80918504882339F071
:1052D000853039F08091E80083FFCBCF04C082E0B5
:1052E000089583E0089581E00895982F973058F548
:1052F0009093E900981739F07091EC002091ED003F
:105300005091F00003C0242F762F50E021FF19C0E8
:105310003091EB003E7F3093EB003091ED003D7F0C
:105320003093ED003091EB0031603093EB007093DF
:10533000EC002093ED005093F0002091EE0027FF49
:1053400007C09F5FD3CF8F708093E90081E00895FD
:1053500080E008958091860487FD05C08091E80073
:1053600080FF0EC012C08091E80082FD05C08091D0
:1053700085048111F8CF08958091E8008B7708C0EB
:10538000809185048111EACF08958091E8008E779D
:105390008093E80008958091E4009091E50045E64F
:1053A0002091EC0020FF21C02091E80020FD21C0C9
:1053B00020918504222389F0253089F02091EB008B
:1053C00025FD0FC02091E4003091E5002817390732
:1053D00039F3415041F0C901E3CF82E0089583E001
:1053E000089581E0089584E008952091E80022FF67
:1053F000DFCF80E008950E94692A0E94712AE0EEC2
:10540000F0E0808181608083E8EDF0E080818F773B
:10541000808319BCA7EDB0E08C918E7F8C93808146
:105420008F7E80831092840408950F931F93CF93EF
:10543000DF930E94692A0E94712AC8EDD0E088811A
:105440008F77888388818068888388818F7D88832F
:1054500019BC10928504109281041092830410925A
:10546000820400EE10E0F80180818B7F80838881C8
:105470008160888342E060E080E00E947529E1EE6F
:10548000F0E080818E7F8083E2EEF0E080818160B9
:105490008083808188608083F80180818E7F808313
:1054A000888180618883DF91CF911F910F9108954A
:1054B000E8EDF0E080818F7E8083E7EDF0E0808191
:1054C0008160808384E082BF81E0809384040C94B7
:1054D000152AE8EDF0E080818E7F80831092E20053
:1054E00008951092DA001092E10008951F920F9231
:1054F0000FB60F9211242F933F934F935F936F93A7
:105500007F938F939F93AF93BF93EF93FF9380917C
:10551000E10082FF0BC08091E20082FF07C0809112
:10552000E1008B7F8093E1000E94D22C8091DA0011
:1055300080FF1FC08091D80080FF1BC08091DA00DF
:105540008E7F8093DA008091D90080FF0DC080E1CA
:1055500089BD82E189BD09B400FEFDCF81E0809361
:1055600085040E94E72605C019BC109285040E949C
:10557000F5268091E10080FF19C08091E20080FF54
:1055800015C08091E2008E7F8093E2008091E2005E
:1055900080618093E2008091D80080628093D8007F
:1055A00019BC85E0809385040E94F9268091E10072
:1055B00084FF30C08091E20084FF2CC080E189BD6F
:1055C00082E189BD09B400FEFDCF8091D8008F7DB6
:1055D0008093D8008091E1008F7E8093E1008091DC
:1055E000E2008F7E8093E2008091E20081608093F0
:1055F000E20080918104882311F084E007C080914B
:10560000E30087FF02C083E001C081E0809385044E
:105610000E94FA268091E10083FF29C08091E20078
:1056200083FF25C08091E100877F8093E10082E0C5
:1056300080938504109281048091E1008E7F809395
:10564000E1008091E2008E7F8093E2008091E20091
:1056500080618093E20042E060E080E00E94752972
:105660008091F00088608093F0000E94F826FF91FE
:10567000EF91BF91AF919F918F917F916F915F91CA
:105680004F913F912F910F900FBE0F901F90189543
:105690001F920F920FB60F9211242F933F934F93A7
:1056A0005F936F937F938F939F93AF93BF93CF93AA
:1056B000EF93FF93C091E900CF708091EC001092BE
:1056C000E9008091F000877F8093F00078940E9439
:1056D000842B1092E9008091F00088608093F000A4
:1056E000C093E900FF91EF91CF91BF91AF919F914E
:1056F0008F917F916F915F914F913F912F910F907B
:105700000FBE0F901F9018951F93CF93DF93CDB7C7
:10571000DEB7AA970FB6F894DEBF0FBECDBFE6E89E
:10572000F4E08091F100819324E0EE38F207C9F7AC
:105730000E9410278091E80083FF1CC120918604FD
:1057400030918704832F90E08A30910508F012C1D0
:10575000FC01ED57FF4F0C94E630203881F02238E1
:1057600009F008C180918A048F708093E9008091CC
:10577000EB0085FB882780F91092E90006C0809134
:10578000820490918304911182609091E800977F48
:105790009093E8008093F1001092F100C5C0822F31
:1057A0008D7F09F0E7C0222319F0223061F0E2C0BA
:1057B00080918804813009F0DDC0333009F080E049
:1057C0008093830428C080918804811124C0209193
:1057D0008A042F7009F4CEC02093E9008091EB0079
:1057E00080FF19C08091EB00333011F4806211C04A
:1057F00080618093EB0081E090E0022E01C0880F71
:105800000A94EAF78093EA001092EA008091EB0094
:1058100088608093EB001092E9008091E800877F18
:1058200086C02111A7C0109188041F778091E300E2
:105830008078812B8093E3008091E800877F8093BC
:10584000E8000E94AA298091E80080FFFCCF8091A7
:10585000E30080688093E300112311F083E001C02E
:1058600082E08093850486C02058223008F082C0F0
:1058700080918804909189048C3D23E0920779F50A
:1058800083E08A838AE289834FB7F894DE01139616
:1058900020E03EE051E2E32FF0E050935700E49126
:1058A00020FF03C0E295EF703F5FEF708E2F90E016
:1058B000EA3010F0C79601C0C0968D939D932F5F7C
:1058C000243149F74FBF8091E800877F8093E8003B
:1058D0006AE270E0CE0101960E94B22814C0AE01C7
:1058E0004F5F5F4F60918A040E94FA27009709F486
:1058F00041C02091E800277F2093E800BC01898106
:105900009A810E9413298091E8008B778093E800A8
:1059100031C0203879F58091E800877F8093E800D6
:10592000809181048093F1008091E8008E778093CC
:10593000E8000E94AA291EC021111CC09091880471
:105940009230C0F48091E800877F8093E8009093C4
:1059500081040E94AA2980918104811104C0809150
:10596000E30087FF02C084E001C081E080938504EA
:105970000E94FC268091E80083FF0AC08091E80025
:10598000877F8093E8008091EB0080628093EB003A
:10599000AA960FB6F894DEBF0FBECDBFDF91CF91B0
:1059A0001F9108950895CF93809185048823B1F0C5
:1059B0008091E9008F709091EC0090FF02C090E818
:1059C00001C090E0C92FC82B1092E9008091E80037
:1059D00083FD0E94842BCF70C093E900CF9108957E
:1059E0005058BB27AA270ED0D1C1C2D130F0C7D1A1
:1059F00020F031F49F3F11F41EF4B7C10EF4E0958E
:105A0000E7FB9FC1E92FD3D180F3BA176207730771
:105A10008407950718F071F49EF5EBC10EF4E0953C
:105A20000B2EBA2FA02D0B01B90190010C01CA0158
:105A3000A0011124FF27591B99F0593F50F4503E03
:105A400068F11A16F040A22F232F342F4427585FF5
:105A5000F3CF469537952795A795F0405395C9F70D
:105A60007EF41F16BA0B620B730B840BBAF09150C5
:105A7000A1F0FF0FBB1F661F771F881FC2F70EC064
:105A8000BA0F621F731F841F48F487957795679537
:105A9000B795F7959E3F08F0B3CF9395880F08F020
:105AA0009927EE0F97958795089527D108F481E0FF
:105AB00008950CD06BC163D140F05AD130F021F47D
:105AC0005F3F19F03EC1511195C14FC170D198F39C
:105AD0009923C9F35523B1F3951B550BBB27AA276F
:105AE00062177307840738F09F5F5F4F220F331FE1
:105AF000441FAA1FA9F333D00E2E3AF0E0E830D0AD
:105B000091505040E695001CCAF729D0FE2F27D0AF
:105B1000660F771F881FBB1F261737074807AB077D
:105B2000B0E809F0BB0B802DBF01FF2793585F4FF2
:105B30002AF09E3F510568F004C15CC15F3FECF361
:105B4000983EDCF3869577956795B795F7959F5FB7
:105B5000C9F7880F911D9695879597F90895E1E00B
:105B6000660F771F881FBB1F621773078407BA076A
:105B700020F0621B730B840BBA0BEE1F88F7E095C5
:105B8000089504D06894B11135C1089518D188F0F2
:105B90009F5790F0B92F9927B751A0F0D1F0660F19
:105BA000771F881F991F1AF0BA95C9F712C0B13034
:105BB00081F01FD1B1E008951CC1672F782F88278D
:105BC000B85F39F0B93FCCF3869577956795B39573
:105BD000D9F73EF490958095709561957F4F8F4FE2
:105BE0009F4F0895E89409C097FB3EF490958095E7
:105BF000709561957F4F8F4F9F4F9923A9F0F92F93
:105C000096E9BB279395F695879577956795B79510
:105C1000F111F8CFFAF4BB0F11F460FF1BC06F5FF6
:105C20007F4F8F4F9F4F16C0882311F096E911C008
:105C3000772321F09EE8872F762F05C0662371F029
:105C400096E8862F70E060E02AF09A95660F771F3D
:105C5000881FDAF7880F9695879597F9089588D069
:105C600018F011F08CD038F480C0C4C0E92F9FD058
:105C7000B0F35523C9F3E7FB621773078407950751
:105C8000A8F199F3E92FFF2788232AF03197660FAF
:105C9000771F881FDAF7952F5527442332F091504C
:105CA0005040220F331F441FD2F7BB27E91BF50BCF
:105CB000621B730B840BB109C1F222F4620F731FD4
:105CC000841FB11D31972AF0660F771F881FBB1FF5
:105CD000EFCF915050405AF041F0882332F0660FD8
:105CE000771F881F91505040C1F7939530C086951B
:105CF000779567959F5FD9F7F8CF990F0008550FF3
:105D0000AA0BE0E8FEEF16161706E807F907C0F041
:105D100012161306E407F50798F0621B730B840B49
:105D2000950B39F40A2661F0232B242B252B21F423
:105D300008950A2609F4A140A6958FEF811D811DC3
:105D4000089597F99F6780E870E060E008959F3FAD
:105D500031F0915020F4879577956795B795880F26
:105D6000911D9695879597F908959FEF80EC08957A
:105D700000240A941616170618060906089500242A
:105D80000A9412161306140605060895092E0394A4
