:100000000C9462030C94A6030C94A6030C94A60310
:100010000C94A6030C94A6030C94A6030C94A603BC
:100020000C94A6030C94A6030C94862A0C94582BCB
:100030000C947A200C94A6030C94A6030C94A603AB
:100040000C94A6030C94A6030C94A6030C94A6038C
:100050000C94A6030C94E1200C94A6030C94A60324
:100060000C94A6030C94A6030C94A6030C94A6036C
:100070000C94A6030C94A6030C94A6030C94A6035C
:100080000C94AD0D0C94A6030C94A6030C94A6033B
:100090000C94A6030C94A6030C94A6030C94A6033C
:1000A0000C94A6030C94A6030C94A603E016E01689
:1000B0000F170F174F177117C018C0187C17C018EB
:1000C000231823188D189518C018BB18301830182D
:1000D00030183018301830183018301830183018E0
:1000E00030183018301830183018301840185018A0
:1000F00057185E186818BD2BDF2BCA2CDF2BCA2CB3
:10010000212C442CCA2C992CAC2C07634236B79B6B
:10011000D8A71A39685618AEBAAB558C1D3CB7CC67
:100120005763BD6DEDFD753EF6177231BF000000DF
:10013000803F08000000BE922449123EABAAAA2AC2
:10014000BECDCCCC4C3E00000080BEABAAAAAA3EDD
:1001500000000000BF000000803F00000000000819
:100160004178D3BB4387D1133D190E3CC3BD4282B6
:10017000AD2B3E68EC8276BED98FE1A93E4C80EF74
:10018000FFBE01C4FF7F3F0000000000356814007F
:100190001A000900130005000D000F0018001C00D4
:1001A00033003168296104001500160017000A00A9
:1001B0001000110008000C00120028612D621D00C3
:1001C0001B000600070019000E000B003600370068
:1001D000340038622E46E0003968E2002B442C627D
:1001E0002A624C455064516852614F0035681400D2
:1001F0001A000800150017001C0018000C0012005F
:1002000013003168296104001600070009000A0084
:100210000B000D000E000F00330028612D621D0041
:100220001B00060019000500110010003600370001
:10023000380034622E46E0003968E2002B442C621C
:100240002A624C455064516852614F003568340051
:100250003600370013001C0009000A0006001500D4
:100260000F003168296104001200080018000C001A
:1002700007000B0017001100160028612D623300E3
:1002800014000D000E001B00050010001A001900DC
:100290001D0038622E46E0003968E2002B442C62D3
:1002A0002A624C455064516852614F0000001E00A4
:1002B0001E001E001E001E001E001E001E001E004E
:1002C0001E001E00000014001A0008001500170090
:1002D0001C0018000C00120013002F000000040086
:1002E0001600070009000A000B000D000E000F00A9
:1002F00033003400417000000000060019000000C7
:1003000000001100100000000000000043001E006B
:100310001F002000210022002300240025002600C9
:100320002700420044001E021F0220022102220276
:1003300023022402250200712702410045003A00F1
:100340003B003C003D003E003F0001713000027167
:100350003002400001000100010001000100010025
:10036000010001004A004E004B004D0043001E00FA
:100370001F00200021002200230024002500260069
:100380002700420044001E021F0220022102220216
:1003900023022402250200712702410045003A0091
:1003A0003B003C003D003E003F0001713000027107
:1003B00030024000010001000100010001000100C5
:1003C000010001004A004E004B004D0000000000FB
:1003D0000000000000000802090224002500260099
:1003E0002D0000000851000000000000000006027F
:1003F00007022100220023002E020100000000005D
:10040000000000000000040205021E001F00200082
:100410002E00000001000000000000000000260285
:1004200027022700370038002502000000000000E6
:10043000000000000000000000004A0052004D00D3
:100440000000000000000000E300E000E100000008
:100450000000500051004F000000000000000000AC
:1004600000002A004C00000000004E004B0000007D
:10047000000000000000000000000000010000007B
:1004800000000100000000000000000000000070FB
:10049000000000000000000000000000000000005C
:1004A00000000000010000000000157016701370BD
:1004B0000A703D703E703F704070000000001C707C
:1004C0001B70187019701D701E7000000000000075
:1004D000000000000000000000000000000000001C
:1004E000000000000000000000000000280354008D
:1004F00068006500200050006C0061006E00630021
:100500006B0020004B006500790062006F00610005
:100510007200640000002C034F0072007400680039
:100520006F006C0069006E006500610072002000C1
:100530004B006500790062006F006100720064008A
:10054000730000000403090409026D00040100A007
:10055000FA09040000010301010009211101000151
:100560002240000705810308000A09040100010375
:10057000010200092111010001224D00070582033B
:1005800008000A090402000103000000092111010A
:1005900000012236000705830308000A090403004E
:1005A00001030000000921110100012239000705A3
:1005B00084031000011201100100000008EDFE602C
:1005C0006004000102000105010906A101050719E7
:1005D000E029E71500250195087501810205081934
:1005E0000129059505750191029501750391010594
:1005F000071900297715002501957875018102C03A
:1006000005010980A101850216810026B7001A8123
:10061000002AB700751095018100C0050C0901A1E1
:10062000018503160100269C021A01002A9C02750E
:100630001095018100C005010902A1010901A10075
:100640000509190129051500250195057501810286
:100650009501750381010501093009311581257F57
:1006600095027508810609381581257F9501750861
:100670008106050C0A38021581257F9501750881D0
:1006800006C0C005010906A101050719E029E71503
:100690000025019508750181029501750881010504
:1006A00008190129059505750191029501750391B8
:1006B000010507190029FF150026FF00950675089A
:1006C0008100C00011241FBECFEFDAE0DEBFCDBF36
:1006D00004B603FE24C08091CE049091CF04A09173
:1006E000D004B091D1048730904BA740B04BB9F4FF
:1006F0001092CE041092CF041092D0041092D10424
:1007000014BE84B7877F84BF88E10FB6F8948093C6
:100710006000109260000FBEE0E0F8E3099513E07E
:10072000A0E0B1E0E8E6F2E602C005900D92A8363E
:10073000B107D9F724E0A8E6B3E001C01D92AE3CB2
:10074000B207E1F70E94D2270C9432310C940000DA
:100750006E9A769A0C943505CF93DF93EC018881DD
:10076000823070F081EE0E94731586E20E9473154C
:1007700086E20E94461687E20E94731587E207C050
:1007800081EE0E94731586E20E94731586E20E9434
:10079000461681EE0E944616CE01DF91CF910C9451
:1007A0005B13CF93DF93EC018881823058F08FE2A6
:1007B0000E9473158FE20E94461680E30E94731513
:1007C00080E304C08FE20E9473158FE20E944616F8
:1007D000CE01DF91CF910C945B13CF93DF93EC01AB
:1007E0008881823070F081EE0E9473158FE20E9442
:1007F00073158FE20E94461680E30E94731580E312
:1008000007C081EE0E9473158FE20E9473158FE27C
:100810000E94461681EE0E944616CE01DF91CF91CE
:100820000C945B13CF93DF93EC010E940920BE016F
:1008300080E090E0DF91CF910C942C1D0F931F93DB
:10084000CF93FB018E3320E79207D1F180F48C34F3
:1008500025E49207C1F08D3320E7920709F441C0E7
:100860008B32944409F0B4C0C28184E00EC080345D
:1008700020E7920709F459C008F446C08134904734
:1008800009F488C0A5C0C28185E0CC2341F00E9454
:10089000A31D47E065E084E00E9465059AC00E94C0
:1008A000C41D47E065E084E00E94650583EE0E9478
:1008B000461681EE0E94461680EE0E94461688C0BB
:1008C000C281CC2309F485C000E010E0980140E02B
:1008D00064E070E088E492E00E94291182E090E0F8
:1008E00010C0C281CC2309F474C000E010E098016C
:1008F00040E066E070E088ED91E00E94291181E01F
:1009000090E00E94120462C0C281CC2309F461C04D
:1009100000E010E0980140E068E070E088E092E0DC
:100920000E94291184E090E0ECCFC281CC2309F42D
:1009300050C00E94C30C00E010E0980140E066E067
:1009400070E088EA91E00E94291184E00E94C41DB1
:1009500085E00E94C41D86E00E94C41D87E00E94BD
:10096000C41D88E00E94C41D83E00E94A31D0E9454
:10097000F61F811102C00E94D21F0E940E2090E03B
:100980009093BF048093BE0480688093BE040E944D
:10099000122010C0C281CC23E1F000E010E09801E9
:1009A00040E066E070E088E791E00E94291183E072
:1009B0000E94C41D83EE0E9473158DE20E94731580
:1009C0008DE20E94461683EE0E944616C0E001C0EA
:1009D000C1E08C2FCF911F910F9108950F931F931A
:1009E000CF93C82F8FE39CE90197F1F700C0000077
:1009F0000E94B91181111BC080916803C1FF0BC017
:100A000081FD15C000E010E0980140E062E070E078
:100A100088E691E00AC081FF0AC000E010E098017A
:100A200040E062E070E088E591E00E942911C09307
:100A30006803CF911F910F9108950F931F932FEF8C
:100A400089EF90E0215080409040E1F700C0000025
:100A500000E010E0980140E065E070E088E692E098
:100A60000E9429111F910F9108950C941D050F9359
:100A70001F9300E010E0980140E063E070E080E048
:100A800091E00E9429112FEF82E597E021508040EC
:100A90009040E1F700C000001F910F910C94C30C2F
:100AA0000F931F9300E010E0980140E068E070E0D1
:100AB00088E191E00E9429111F910F9108950C94F3
:100AC000500581E008950C941E04CF92DF92EF92BE
:100AD000FF920F931F9301E010E020E030E06801E7
:100AE000790104C0CC0CDD1CEE1CFF1C8A95D2F7EA
:100AF000D701C60104C0000F111F221F331F6A95C2
:100B0000D2F7802B912BA22BB32B00917204109162
:100B100073042091740430917504082319232A2347
:100B20003B23081719072A073B0749F4842F1F9115
:100B30000F91FF90EF90DF90CF900C94A31D842F26
:100B40001F910F91FF90EF90DF90CF900C94C41DF8
:100B50000E945B0C0E940B140C94E909279A2F98B1
:100B60008FEF9FEF90938700809386008AE08093B9
:100B7000800089E1809381000C9481250E94AE055C
:100B80000C94A8032F9881110AC080918000877F60
:100B90008093800010928D0010928C000895833015
:100BA00041F4809180008860809380008FEF9FEFF8
:100BB00012C09091800098609093800023E030E014
:100BC000281B3109220F331F8FEF9FEF02C096952C
:100BD00087952A95E2F790938D0080938C00089575
:100BE0000C94EE040C94F0050E942E190E94C30C84
:100BF0000E9437052FEF84E39CE021508040904015
:100C0000E1F700C000000C9406210F931F93CF93CF
:100C1000DF938C01FC01C081D181CE010E94591E5D
:100C2000BE010E94EC08EC01B8010E946305882314
:100C300009F419C1B801CE010E94EA0A882309F417
:100C400012C1B801CE010E947913882309F40BC1A7
:100C5000B801CE010E947B09882309F404C1C43184
:100C6000F0E7DF0708F0CDC0C23080E7D80708F40E
:100C7000A3C0F8018281882309F4AAC00E94F61F4C
:100C8000811102C00E94D21F0E940E2090E090931A
:100C9000BF048093BE04C230F0E7DF0721F48091E7
:100CA000BE04816082C0C33080E7D80721F4809100
:100CB000BE0482607AC0C430E0E7DE0721F4809190
:100CC000BE04846072C0C530F0E7DF0719F480917C
:100CD000BE0427C0C63080E7D80721F48091BE0447
:100CE000806163C0C730E0E7DE0721F48091BE0475
:100CF00080625BC0C830F0E7DF0721F48091BE045A
:100D0000806453C0C93080E7D80721F48091BE04C5
:100D100080684BC0CA30E0E7DE0729F48091BE044A
:100D20008460886042C0CB30F0E7DF0721F4809117
:100D3000BE048E7F3AC0CC3080E7D80721F4809182
:100D4000BE048D7F32C0CD30E0E7DE0721F4809114
:100D5000BE048B7F2AC0CE30F0E7DF0719F4809104
:100D6000BE0422C0CF3080E7D80721F48091BE04B2
:100D70008F7E1BC0C031E0E7DE0721F48091BE0406
:100D80008F7D13C0C131F0E7DF0721F48091BE04ED
:100D90008F7B0BC0C231D04721F48091BE048F7786
:100DA00004C08091BE048B7F877F8093BE048091B6
:100DB000BE040E94122057C0C115E0E7DE0779F09B
:100DC000C130D047A1F081E08093690380936A032A
:100DD000C801DF91CF911F910F910C946105F8012B
:100DE0008281882309F43FC00E94F4053CC0F801C9
:100DF00082818823C1F180918F04816080938F0468
:100E000032C0CB3380E7D807A1F4F8018281882370
:100E100021F01092690382E016C08091690381116C
:100E200006C086E20E94731586E20E94461682E0A2
:100E300018C0CC33D04739F6F8018281882331F0CD
:100E400010926A0380E20E9495160DC080916A0399
:100E5000811106C087E20E94731587E20E94461640
:100E600080E20E949C1680E0DF91CF911F910F914C
:100E700008952CE0729FF001112430E3839FE00D70
:100E8000F11D1124E60FF11DEE0FFF1FE457FE4F79
:100E9000859194910E94FE08811540E5940708F021
:100EA00047C0811520E4920708F01BC1883E9105D8
:100EB00020F5803E910508F08AC1883A910578F4C2
:100EC000853A910508F0A5C08130910509F47FC1EC
:100ED00008F436C18430910508F079C131C18D3BE9
:100EE000910508F4A1C0803C910508F429C1FC01DA
:100EF000EE0FFF1FE459FC4FEEC0811530E293075F
:100F000058F4811541E0940708F061C1803F9105D4
:100F100008F416C190650895811520E3920708F042
:100F2000DDC09F70880F991F84519B4FFC01D3C077
:100F3000811535E5930708F043C0811544E5940712
:100F400008F0E6C0811522E5920708F5811531E524
:100F5000930708F0C9C0482F437021E030E002C079
:100F6000220F331F4A95E2F73C68AC0164E05695C6
:100F700047956A95E1F74370342B8F708695869577
:100F800040E2849FC0011124822B932B0895282FC7
:100F900026952695AC01437055278115934508F099
:100FA000A8C030E2239FC001112421E030E002C03C
:100FB000220F331F4A95E2F7822B932B9C680895EA
:100FC0008F3240E7940790F48F3120E7920708F0C2
:100FD000AAC0811536E5930708F49FC09C013056DE
:100FE0002115304108F0ACC09F709BC0803320E7D2
:100FF000920709F49FC008F49AC0813340E7940730
:1010000009F49BC08233904709F09AC080E093EDC9
:101010000895853A910509F496C0863A910509F438
:1010200095C083E890E40895883A910509F491C049
:10103000893A910509F490C08A3A910509F48FC064
:101040008B3A910509F48EC08C3A910509F48DC054
:101050008B3B910509F48CC08C3B910509F48BC046
:101060008D3A910509F48AC0803B910509F489C045
:101070008E3A910509F488C08F3A910509F487C02A
:10108000813B910509F486C0823B910509F485C036
:10109000833B910509F484C0843B910509F483C026
:1010A000853B910509F482C0863B910509F481C016
:1010B000873B910509F480C0883B910509F47FC006
:1010C000893B910509F47EC08A3B910509F07DC0FA
:1010D0008AE296E408958591949108959927906CF9
:1010E00008959F70906A0895982F8827816F906A5D
:1010F000089530E2239FC001112421E030E002C0B6
:10110000220F331F4A95E2F7822B932B9A6808959A
:10111000982F8827846F906A08958F719927982F48
:101120008827906208958F519047946D089580E0CC
:1011300091ED089580E090ED089580E092ED08959E
:1011400080E090E0089581E890E4089582E890E4DA
:10115000089582EE94E4089589EE94E408958AEE69
:1011600094E4089585EB94E4089586EB94E408955F
:1011700083EB94E4089584EB94E4089587EB94E47E
:1011800008958CEC94E408958DEC94E4089583E83C
:1011900095E408958AE895E4089582E995E4089530
:1011A00084E995E4089581E296E4089583E296E463
:1011B000089584E296E4089585E296E4089586E22F
:1011C00096E4089587E296E4089580E094E4089513
:1011D00080E090E0089508959CE0799FF00111244B
:1011E00090E3899FE00DF11D1124E60FF11DEE0F34
:1011F000FF1FE457FE4F8591949108958238910521
:1012000049F1B0F48133910509F459C048F48932A9
:10121000910509F44FC08A32910509F455C008952B
:101220008533910509F441C08933910599F00895FA
:10123000833E910531F138F4803E910591F0823E74
:101240009105A9F00895863E910501F1873E91052B
:1012500039F108952091BE0420FD3BC021FD39C025
:1012600008958091BE0480FF34C089E341C080911D
:10127000BE0482FF32C08091BE0484FF2CC080E097
:1012800037C08091BE0482FD28C0F5CF8091BE0496
:1012900083FF25C08091BE0484FDF1CF87EE28C076
:1012A0008091BE0483FD1BC0F5CF8091BE0485FFF5
:1012B00018C019C08091BE0485FF15C012C080916E
:1012C000BE0486FF12C013C08091BE0486FF0FC00B
:1012D0000CC080EE0DC083EE0BC082EE09C086EE1E
:1012E00007C085E305C089E203C081E301C08AE24B
:1012F00090E008950895CF93DF93EC01FB01828184
:10130000811102C081E040C080917803811125C025
:10131000C431D047B9F70E947A0981E080937803FD
:101320000E94AC20909377038093760310926B0316
:1013300010926D0310926C0310926F0310926E0363
:101340001092710310927003109273031092720343
:10135000109275031092740316C0809176039091D9
:1013600077030E94B820883C910560F680916B035A
:10137000E82FF0E0EE0FFF1FE459FC4FD183C0834C
:101380008F5F80936B0380E0DF91CF910895A6EF8C
:10139000B2E021E030E08D91E82FF0E094E0F595A7
:1013A000E7959A95E1F741A18F70B90102C0660FE8
:1013B000771F8A95E2F7CB01962F9095492341A399
:1013C00092A1982B92A372E0AA3FB70721F7089544
:1013D00008950C94E80985B7806885BF85B7806853
:1013E00085BF0E94C709AAEEB2E021E030E08D91EE
:1013F000E82FF0E044E0F595E7954A95E1F741A143
:101400008F70B90102C0660F771F8A95E2F7CB0192
:10141000962F9095492341A392A1982B92A372E015
:10142000A63FB70721F71092820310928103109212
:101430007A0310927903109284031092830310921E
:101440007C0310927B031092860310928503109206
:101450007E0310927D0310928803109287031092EE
:10146000800310927F030C94BE05DF92EF92FF92EF
:101470000F931F93CF93DF9306EF12E0C9E7D3E0FA
:10148000EE24E394F12CE5E0DE2EF80181918F014A
:10149000E82FF0E064E0F595E7956A95E1F721A182
:1014A0008F70A70102C0440F551F8A95E2F7CA0149
:1014B000242B21A392A18095982392A350EA5A95B8
:1014C000F1F7AAEEB2E080E090E020E030E06D912C
:1014D000E62FF0E054E0F595E7955A95E1F740A145
:1014E00050E06F7002C0559547956A95E2F740FD50
:1014F00008C0A701022E02C0440F551F0A94E2F74C
:1015000002C040E050E0842B952B2F5F3F4F2C30E2
:101510003105E9F6288139812817390721F09983A7
:101520008883D09290020E94C709229682E00A3FE7
:10153000180709F0AACF80919002882361F18150A9
:1015400080939002882339F0EFE9FFE03197F1F7BB
:1015500000C0000020C08091790390917A0390939D
:1015600082038093810380917B0390917C0390930D
:1015700084038093830380917D0390917E039093F5
:1015800086038093850380917F03909180039093DD
:101590008803809387030E94A80581E0DF91CF91A3
:1015A0001F910F91FF90EF90DF900895E82FF0E0EA
:1015B000EE0FFF1FEF57FC4F808191810895089532
:1015C0001092D0030C94C30C81E08093D0030C9450
:1015D0005F050895AF92BF92CF92DF92EF92FF9294
:1015E0000F931F93CF93DF93CDB7DEB7A3970FB6BB
:1015F000F894DEBF0FBECDBF5C018B0185E1A8165C
:1016000080E7B80639F4FB0182818823B1F10E949A
:10161000C0110BC0F6E1AF16F0E7BF0641F4FB01C5
:101620008281882351F10E94C91180E033C1F7E122
:10163000AF16F0E7BF0649F4FB0182818823B9F1B8
:101640000E94BC118111EFCFE2CFF8E1AF16F0E7B5
:10165000BF0639F4FB0182818823B9F10E94E40AB4
:10166000E4CFF9E1AF16F0E7BF0639F4FB01828160
:10167000882359F10E94E00AD8CFFAE1AF16F0E7CB
:10168000BF0649F4F80182818823F9F08091D003E4
:101690008111F0CFE3CFFBE1AF16F0E7BF0639F4DD
:1016A000F8018281882389F00E94D0110BC0FCE1EF
:1016B000AF16F0E7BF0649F4F8018281882329F0CC
:1016C0000E94DB110E945005B0CF8091D003882387
:1016D00009F4DFC0F0EEAF16B10489F4F80182819D
:1016E000882309F45FC00E94C30C81E08093CF037C
:1016F0001092CE031092CD0310928C0396CFF2EE8F
:10170000AF16B10499F4F8018281882309F44AC024
:101710000E94C30C8091CF03882319F081E080934D
:10172000CE031092CF031092CD037FCFF3EEAF160E
:10173000B104B1F4F80182818823A1F18091CE0334
:10174000882381F10E94C30C1092CF0381E0809323
:10175000CD0310928B0310928A031092890365CFF8
:10176000F2E5AF16B10459F4F8018281882309F437
:1017700091C080919102909192020A970EC0F1E57A
:10178000AF16B10479F4F8018281882309F482C08C
:1017900080919102909192020A9690939202809386
:1017A000910243CF2091950283E2EFEAF2E0DE015D
:1017B000119601900D928A95E1F7F8018081E1E0A0
:1017C000F0E0EC0FFD1FE80FF11D80919302909166
:1017D0009402E80FF91F6081772767FD7095620F0B
:1017E000711D882777FD8095982F0E94042E20E098
:1017F00030E040E451E40E94692D6B017C01F80166
:10180000818164E070E0681B7109882777FD80950D
:10181000982F0E94042E9B01AC01C701B6010E94C3
:10182000012D9B01AC0160E070E080E090E40E943B
:10183000772F20E030E04CED50E40E94142F6B0134
:101840007C01F80182818823D1F04FE050E0C7018C
:10185000B6010E94C9108091CF038823A1F0809126
:101860008C0394E0899FF0011124E357FC4FC08260
:10187000D182E282F3828F5F80938C0304C0C70120
:10188000B6010E94F60C81E0EFEFAE16B10410F441
:10189000CCCE81E0A3960FB6F894DEBF0FBECDBFCD
:1018A000DF91CF911F910F91FF90EF90DF90CF903C
:1018B000BF90AF9008958091CD03882309F448C06C
:1018C0008091890390918A03009779F40E94AC205B
:1018D00090938A038093890380918B0390E0009713
:1018E00071F480918C0390E00AC00E94B82020918E
:1018F0009102309192022817390740F30895019719
:10190000FC01EE0FFF1FEE0FFF1FE357FC4F60813E
:101910007181828193810E94F60CE0918B0384E0B7
:10192000E89FF0011124E357FC4F608171818281AF
:1019300093814FE050E00E94C91080918B0390E0AA
:10194000019660918C0370E00E94E23080938B03DB
:1019500008950E94F61F811102C00E94D21F0E94AA
:1019600020208093B6043E9A809171008D7F8093F1
:10197000710082E0809390008AE18093910081E081
:101980008093D30308958091D303811102C00E94F4
:10199000A90C1092230410922204809171008D7F73
:1019A00080937100809190008F73809390001092CB
:1019B000E5031092E40310921C0410921D0410928F
:1019C0001E0410921F0410921B0410921A04EAEFD6
:1019D000F3E0AAEEB3E011921192119211921D92CE
:1019E0001D9284E0EA31F807B1F708958F929F9233
:1019F000AF92BF92CF92DF92EF92FF920F931F931D
:101A0000CF93DF936B017C018091E403882309F479
:101A100097C08091D303811102C00E94A90C0AE1F2
:101A200014E0C7E0D0E0A7019601D8019E918E9105
:101A30007E916E918D010E94652D811145C0FE0140
:101A4000EE0FFF1FEE0FFF1FE650FC4F10821182BA
:101A5000128213829E01220F331F26513C4FD9015F
:101A60001D921C9240E050E060E070E06C5F7F4FA0
:101A70004E5F5F4FC730D10551F121967F01E60ED1
:101A8000F71ED7018D909D90AD90BC9087010450BA
:101A90001109D8018D929D92AD92BC921397D701F6
:101AA0001D921D921D921C9213977901E40EF51E52
:101AB000D7010D911C91C7010297DC010D931C9376
:101AC000D7011D921C92D2CF219708F0ACCF809104
:101AD000220490912304019797FD05C0909323045D
:101AE0008093220404C01092230410922204809157
:101AF000220490912304209120043091210428177E
:101B0000390724F01092210410922004892BC1F48B
:101B1000809171008D7F80937100809190008F7310
:101B20008093900010921C0410921D0410921E04C9
:101B300010921F0410921B0410921A041092E403D6
:101B4000DF91CF911F910F91FF90EF90DF90CF9099
:101B5000BF90AF909F908F9008951F920F920FB6F5
:101B60000F9211244F925F926F927F928F929F9269
:101B7000AF92BF92CF92DF92EF92FF922F933F935B
:101B80004F935F936F937F938F939F93AF93BF9385
:101B9000CF93DF93EF93FF938091E403882309F4BD
:101BA0009AC1C0912204D09123041C161D060CF08A
:101BB00092C14090D4035090D5036090D6037090AA
:101BC000D70320E030E0A901C301B2010E94102F29
:101BD00018160CF065C0C130D10509F452C08091CF
:101BE000200490912104BE010E94E2305C01909398
:101BF000210480932004C090E603D090E703E09096
:101C0000E803F090E90320E030E040E85FE3C7013B
:101C1000B6010E94012D6093E6037093E703809361
:101C2000E8039093E903F501EE0FFF1FEE0FFF1F8E
:101C3000E650FC4FA3019201608171818281938102
:101C40000E94692D20E030E040E05EE30E94142F06
:101C50009B01AC01C701B6010E94102F18168CF42D
:101C6000C5010196BE010E94E23090932104809349
:101C700020041092E6031092E7031092E8031092FA
:101C8000E903E0912004F0912104EE0FFF1FEE0F15
:101C9000FF1FE650FC4F6081718182819381CFC02C
:101CA000C0901C04D0901D04E0901E04F0901F040E
:101CB00020E030E0A901C701B6010E94652D2197FF
:101CC000882309F4A2C0FE01EE0FFF1FEE0FFF1FD5
:101CD000E650FC4F80809180A280B380A5019401E2
:101CE000C701B6010E94652D87FF31C0A50194018F
:101CF00060E070E08CED93EC0E94692D20E030E014
:101D000040E451E40E94692D20E030E040E05FE3D0
:101D10000E94142F9B01AC0160E070E080E090E431
:101D20000E94772F9B01AC01C501B4010E94142FC2
:101D30009B01AC01C701B6010E94652D87FF07C05A
:101D4000A701960160E070E08CED93E439C0A50135
:101D50009401C701B6010E94102F18160CF055C04F
:101D6000A501940160E070E08CED93E40E94692D80
:101D700020E030E040E451E40E94692D20E030E0B2
:101D800040E05FE30E94142F9B01AC0160E070E033
:101D900080E090E40E94772F9B01AC01C501B40163
:101DA0000E94142F9B01AC01C701B6010E94102FA5
:101DB00018165CF5A701960160E070E08CED93ECDD
:101DC0000E94692D20E030E040E451E40E94692D3A
:101DD00020E030E040E05FE30E94142F9B01AC0163
:101DE00060E070E080E090E40E94772F9B01AC01FE
:101DF000C701B6010E94142F60931C0470931D0448
:101E000080931E0490931F0412C0CC0FDD1FCC0FD3
:101E1000DD1FC650DC4F88819981AA81BB818093E8
:101E20001C0490931D04A0931E04B0931F046091A2
:101E30001C0470911D0480911E0490911F04209138
:101E4000D1033091D2032F3F4FEF340731F02F5F92
:101E50003F4F3093D2032093D1030E94E6116B01D0
:101E60007C0120E034E244EF51E40E94652D87FFBD
:101E700008C026EFC22E28E2D22E24EFE22E21E463
:101E8000F22E20E030E040E051E4C701B6010E94AC
:101E9000142F9B01AC0160E074E284E79BE40E9494
:101EA000692D6B017C010E94D62D70939700609381
:101EB000960020919602309197024091980250919D
:101EC0009902C701B6010E94142F0E94D62D70936B
:101ED0009900609398008091E503882309F432C14A
:101EE000C090E003D090E103E090E203F090E303C0
:101EF00020E030E0A901C701B6010E94102F18169A
:101F0000D4F58091D1039091D2038F3F2FEF9207A8
:101F100029F001969093D2038093D103C701B601B3
:101F20000E94E61120E030E040E051E40E94142FCE
:101F30009B01AC0160E074E284E79BE40E94692DA0
:101F40006B017C010E94D62D7093970060939600E0
:101F500020919602309197024091980250919902F7
:101F6000C701B6010E94142F0E94D62D70939900CC
:101F70006093980008C010929700109296001092FB
:101F80009900109298006091DA037091DB036F5F03
:101F90007F4F7093DB036093DA03209196003091BA
:101FA000970080E090E0232BF1F0C0919600D09153
:101FB00097000E94022E6B017C01BE0180E090E040
:101FC0000E94022E9B01AC016091DC037091DD0345
:101FD0008091DE039091DF030E94692D20E03FEFA6
:101FE0004FE757E410C00E94022E6B017C0120E0F5
:101FF00030EE4FEF54E46091DC037091DD0380918B
:10200000DE039091DF030E94142F9B01AC01C701F6
:10201000B6010E94102F87FD95C02091D8032F5F35
:102020002093D80330E08091B2049091B304281734
:102030003907A0F08091BD04882319F01092D803CD
:102040000DC0809171008D7F809371008091900010
:102050008F73809390001092E5037CC08091D90328
:10206000C091D803811128C0C090B704D090B804A3
:10207000E090B904F090BA0420E030E0A901C70173
:10208000B6010E94102F1816BCF481E08093D9038A
:102090001092E0031092E1031092E2031092E30326
:1020A000C092DC03D092DD03E092DE03F092DF0306
:1020B000C150C093D80342C01092D9031092D203EA
:1020C0001092D103E091B404F091B50448E0C49FAC
:1020D000E00DF11D112480819181A281B381809353
:1020E000E0039093E103A093E203B093E30320E0C5
:1020F00030E040E85EE364817581868197810E94CB
:10210000142F6B017C0160919A0270E080E090E0F6
:102110000E94022E20E030E048EC52E40E94692D3B
:102120009B01AC01C701B6010E94142F6093DC0330
:102130007093DD038093DE039093DF031092DB0343
:102140001092DA038091B60480FD04C01092E5037A
:102150001092E403FF91EF91DF91CF91BF91AF9186
:102160009F918F917F916F915F914F913F912F91AF
:10217000FF90EF90DF90CF90BF90AF909F908F90A7
:102180007F906F905F904F900F900FBE0F901F90B9
:102190001895CF92DF92EF92FF92CF93DF936B016E
:1021A0007C01EA018091D303811102C00E94A90C35
:1021B0008091B60480FF46C0809122049091230450
:1021C00008970CF03FC0809171008D7F8093710063
:1021D0008091E50381110E94C30C81E08093E403A8
:1021E0001092D2031092D10320E030E0A901C70180
:1021F000B6010E94102F1816DCF4809122049091F1
:102200002304FC01EE0FFF1FEE0FFF1FE650FC4FF3
:10221000C082D182E282F382FC01EE0FFF1FE65101
:10222000FC4FD183C08301969093230480932204B2
:10223000809171008260809371008091900080682D
:1022400080939000DF91CF91FF90EF90DF90CF903F
:1022500008959F92AF92BF92CF92DF92EF92FF923A
:102260000F931F93CF93DF93EC015B01942E6801D2
:1022700079018091D303811102C00E94A90C809141
:10228000B60480FF6AC0809171008D7F80937100D9
:102290008091E40381110E94C30C81E08093E503E7
:1022A000D093B504C093B404B092B304A092B20426
:1022B0009092BD04C092B704D092B804E092B904E1
:1022C000F092BA041092E6031092E7031092E8032A
:1022D0001092E9031092D80388819981AA81BB8169
:1022E0008093E0039093E103A093E203B093E303B0
:1022F00020E030E040E85EE36C817D818E819F814B
:102300000E94142F6B017C0160919A0270E080E0C2
:1023100090E00E94022E20E030E048EC52E40E945F
:10232000692D9B01AC01C701B6010E94142F609377
:10233000DC037093DD038093DE039093DF03109240
:10234000DB031092DA038091710082608093710048
:1023500080919000806880939000DF91CF911F91D1
:102360000F91FF90EF90DF90CF90BF90AF909F9034
:1023700008958091E50308958091B60481700895D1
:102380008091B60481608093B6040E9424200C944E
:10239000E90A8091B6048E7F8093B6040C942420C1
:1023A0008091240490E0019666E070E00E94E230A3
:1023B0008093240408958091240490E0019766E0BE
:1023C00070E00E94E2308093240408958F929F92DF
:1023D000AF92BF92CF92DF92EF92FF92CF93DF93B3
:1023E0006B017C01C091D103D091D203BE0180E08A
:1023F00090E00E94022E4B015C01A701960160E073
:1024000070E08CE594E40E94692D9B01AC01C5014C
:10241000B4010E94142F0E94D62D9B0140912404E8
:10242000433009F473C028F4442351F04130E9F0FB
:102430002DC1443009F4A0C0453009F4E0C026C1E4
:1024400080E090E0A0E0BFE3809396029093970233
:10245000A0939802B09399021092D4031092D503DE
:102460001092D6031092D70311C11092D403109288
:10247000D5031092D6031092D7036431710540F44E
:102480006A30710560F520E030E040E85EE32BC083
:10249000693C710508F0AAC080E090E00E94022E1D
:1024A00020E030E040EA51E40E94002D20E030E0DE
:1024B00044E353E40E94692D9B01AC010E94142F58
:1024C00020E030E040E05EE30E94142F9B01AC016D
:1024D00060E070E080E09EE30E94002D44C020E0B8
:1024E00030E040E05FE3C701B6010E94142F6B01AA
:1024F0007C0180E090E0A0E0BEE3809396029093A0
:102500009702A0939802B0939902C0C01092D4038E
:102510001092D5031092D6031092D7034AE0469F3B
:102520009001479F300D1124C90168EB7BE00E94A8
:10253000CE30BC016C5D754077FF03C0719561952D
:102540007109882777FD8095982F0E94042E2EE32D
:1025500033EC4EE259E30E94142F20E030E040ECCF
:102560005EE30E94012D6093960270939702809320
:102570009802909399028AC01092D4031092D503C6
:102580001092D6031092D703CE0183709927892B1E
:10259000E1F0BE016170772780E090E00E94022E9A
:1025A00020E030E040E05EE30E94142F20E030E0C5
:1025B00040E45FE30E94012D6093960270939702BE
:1025C00080939802909399020CC080E090E0A0E084
:1025D000BFE38093960290939702A0939802B093E2
:1025E0009902C770DD27CD2B09F050C010929602DA
:1025F00010929702109298021092990247C010927E
:10260000D4031092D5031092D6031092D703812CD5
:10261000912CA12C9FE3B92E809296029092970262
:10262000A0929802B09299022739310578F180E0A2
:1026300090E00E94022E20E030E047E153E40E9447
:10264000002D20E030E04AE754E40E94692D20E0AC
:1026500030E048E452E40E94142F20E030E040EAE9
:1026600051E40E94462E0E94D12DFB01EE0FFF1F68
:10267000EE0FFF1FE650FD4F2081318142815381D3
:10268000C701B6010E94142F6B017C01C701B6017E
:10269000DF91CF91FF90EF90DF90CF90BF90AF9000
:1026A0009F908F900895FB01309721F0BC0185E247
:1026B00094E009940895CF93DF93EC01E981FA81C6
:1026C0008D8181FD13C083E0EE0FFF1F8A95E1F736
:1026D000EE52F54864817581868197810E9453137B
:1026E0001A82198218828D818E7F8D83DF91CF911E
:1026F0000895AF92BF92CF92DF92EF92FF920F9325
:102700001F93CF93DF931F92CDB7DEB75C018B0190
:10271000FC01F157EF3FF10511F008F04BC023E049
:10272000EE0FFF1F2A95E1F7EE52FD4FC280D380D6
:10273000E680F78060817181C7010E945313809108
:10274000260490912704009741F08A159B0529F0F3
:10275000B601C7010E9453130AC080912A0480FF6A
:1027600008C081FF06C085E294E00E945B1321E06F
:1027700001C020E080912A04816080932A04F8013E
:10278000928190FB81F980932A0482818823B1F1A0
:10279000B0922704A092260429830E94AC20909333
:1027A000290480932804809125048F5F8093250459
:1027B000298124C0E0912604F09127043097E9F0A4
:1027C00093E0EE0FFF1F9A95E1F7EE52F548028174
:1027D0001381E680F78060817181C7010E945313E5
:1027E000B801C7010E94531385E294E00E945B1375
:1027F00080912A048E7F80932A0421E0822F0F90FB
:10280000DF91CF911F910F91FF90EF90DF90CF90CC
:10281000BF90AF90089580912A0480FF1EC08091E0
:102820002804909129040E94B8208D329140A8F08C
:10283000E0912604F091270433E0EE0FFF1F3A9554
:10284000E1F7EE52F54862817381868197810E949B
:10285000531385E294E00C945B1308959093300435
:1028600080932F040895E0912F04F0913004309765
:1028700021F00190F081E02D099480E00895E0912D
:102880002F04F0913004309721F00280F381E02D85
:1028900009940895E0912F04F0913004309721F0CD
:1028A0000480F581E02D0994089520912D04309144
:1028B0002E048217930771F090932E0480932D04B9
:1028C000E0912F04F0913004309721F00680F781D9
:1028D000E02D0994089520912B0430912C04821747
:1028E000930771F090932C0480932B04E0912F04B4
:1028F000F0913004309721F00084F185E02D0994A7
:10290000089508950C9481140E94A3200E94EB095D
:102910000E9429210C9481255F926F927F928F9261
:102920009F92AF92BF92CF92DF92EF92FF920F935E
:102930001F93CF93DF93CDB7DEB72A970FB6F894E6
:10294000DEBF0FBECDBF0E94350A92E3C92E94E0D0
:10295000D92E00E010E0AA24A394B12C502E802F91
:102960000E94D60A3C01F601E190F1906F01E82641
:10297000F926E114F104B1F40F5F1F4F0430110583
:1029800069F78FEF89838A831B820E94AC20816064
:10299000782F9D838C8349815A816B818D810E9420
:1029A00045153AC080918F0481FD0E94DF0A20E026
:1029B00030E04501022E02C0880C991C0A94E2F70F
:1029C000C4018E219F21892B09F12E835F8268200B
:1029D000792081E0672809F480E088870E94AC2094
:1029E0008160782F9A8789874E815F8168858A8583
:1029F0000E944515F801EE0FFF1FEE5CFB4F808132
:102A00009181882599259183808306C02F5F3F4F50
:102A10002C30310571F6B0CF0E94C02210913104E4
:102A20000E9433141817D9F00E9433148093310494
:102A30002A960FB6F894DEBF0FBECDBFDF91CF91BF
:102A40001F910F91FF90EF90DF90CF90BF90AF90CC
:102A50009F908F907F906F905F900C94F2052A96D4
:102A60000FB6F894DEBF0FBECDBFDF91CF911F919F
:102A70000F91FF90EF90DF90CF90BF90AF909F901D
:102A80008F907F906F905F900895CF93DF93CDB735
:102A9000DEB72B970FB6F894DEBF0FBECDBF4F83C6
:102AA000588769877A878B87DE01119686E0FD015A
:102AB00011928A95E9F785E0FE01379601900D9213
:102AC0008A95E1F749815A816B817C818D819E8154
:102AD0000E94FE1B2B960FB6F894DEBF0FBECDBF33
:102AE000DF91CF910895CF93C82F882309F4CCC0EC
:102AF000823859F40E94331481FDC6C089E30E94D4
:102B0000D91E0E94A31F89E30CC0833879F40E9468
:102B1000331480FDB9C083E50E94D91E0E94A31F13
:102B200083E50E94191FCF910C94A31F843859F498
:102B30000E94331482FDA8C087E40E94D91E0E941F
:102B4000A31F87E4EECF8CEF8C0F813A48F48C2FD3
:102B50000E94ED24811198C08C2F0E94D91EE3CFD2
:102B600080E28C0F883048F4C77081E001C0880F84
:102B7000CA95EAF70E945A1FD6CF8BE58C0F833097
:102B800078F4C53A29F0C63A31F482E890E005C0FD
:102B900081E890E002C083E890E0CF910C94551456
:102BA00088E58C0F853108F06FC0C83A61F1C93AE9
:102BB00069F1CA3A71F1CB3A79F1CC3A81F1CB3B68
:102BC00089F1CC3B91F1CD3A99F1C03BA1F1CE3ADC
:102BD000A9F1CF3AB1F1C13BB9F1C23BC1F1C33B5D
:102BE000C9F1C43BD1F1C53BD9F1C63BE1F1C73BCB
:102BF000E9F1C83BF1F1C93BF9F1CA3B09F03FC02B
:102C00008AE292E03EC082EE90E03BC089EE90E026
:102C100038C08AEE90E035C085EB90E032C086EB9C
:102C200090E02FC083EB90E02CC084EB90E029C0B3
:102C300087EB90E026C08CEC90E023C08DEC90E018
:102C400020C083E891E01DC08AE891E01AC082E9C3
:102C500091E017C084E991E014C081E292E011C0D4
:102C600083E292E00EC084E292E00BC085E292E043
:102C700008C086E292E005C087E292E002C080E0F0
:102C800090E0CF910C946B14CF910895882309F4B0
:102C90004BC0823859F40E94331481FF45C089E348
:102CA0000E94D91E0E94A31F89E30CC0833871F4CF
:102CB0000E94331480FF38C083E50E94D91E0E9411
:102CC000A31F83E50E94191F0C94A31F843859F495
:102CD0000E94331482FF28C087E40E94D91E0E94FC
:102CE000A31F87E4EFCF9CEF980F913A58F390E23F
:102CF000980F983050F4877091E001C0990F8A9531
:102D0000EAF7892F0E94601FDFCF9BE5980F933071
:102D100020F480E090E00C945514885A853120F41A
:102D200080E090E00C946B140895882321F00E94B9
:102D30005A1F0C94A31F0895882321F00E94601F3E
:102D40000C94A31F08958F929F92AF92BF92CF923F
:102D5000DF92EF92FF920F931F93CF93DF931F9217
:102D6000CDB7DEB74C01A62E472FFC01E580E294DB
:102D70008FE0E822F280FF2021F079830E94771F04
:102D8000498149830E94D21E4981882381F0FF2016
:102D900071F080E28A0D883050F082E00E94BB1E04
:102DA0000E94D21EBB24B394B826498101C0B12C25
:102DB000E42FE295EF70F0E0EA5AFF4F0C94F63002
:102DC000842F807F142F1F70882311F01295107F9D
:102DD000FF2089F0112309F496C180E28A0D883022
:102DE00020F4812F0E945A1F03C0812F0E946A1F66
:102DF0000E94A31F88C18A2D0E944616112309F440
:102E0000BFC180E28A0D883020F4812F0E94601FAC
:102E100003C0812F0E94701F0E94A31FB1C1242FE5
:102E2000207F842F8F70203211F08295807FAA201E
:102E300021F0F1E0AF16B1F021C0FF2041F0EE200B
:102E400039F191E0E91224C00E948A1F99C1EE2055
:102E500021F0E1E0EE1609F493C189830E948D1FF1
:102E600089810BC1FF2029F0F5E0FE1508F488C127
:102E70000FC094E09E1508F483C1FFC0FF2059F0F5
:102E8000EE2031F0F401958190FF3DC19F70958354
:102E90000E94951675C1EE2009F4EFC03AC1242FA7
:102EA00026952695237030E02115310521F021303B
:102EB000310561F065C1FF2021F08A2D942F9370B8
:102EC00002C080E090E00E9455145AC1FF2021F01A
:102ED0008A2D942F937002C080E090E00E946B14C2
:102EE0004FC18A2DFF2019F00E94C82102C00E9404
:102EF00030220E94B52244C1842F837009F04EC055
:102F0000F1103EC12A2D229526952770220F220FFF
:102F10008A2D8F70C82ED12CE12CF12C022E04C0EA
:102F2000CC0CDD1CEE1CFF1C0A94D2F7A4FE10C0D2
:102F30006FE070E080E090E004C0660F771F881FAC
:102F4000991F2A95D2F7609570958095909503C04A
:102F500060E070E0CB01242F26952695237030E0A9
:102F60002230310569F02330310589F06C297D2943
:102F70008E299F292130310571F00E94501D00C11A
:102F80006C297D298E299F290E946A1DF9C00E9403
:102F9000501DC701B6010E94361DF2C0FF2019F076
:102FA000842F817001C08695882309F4E9C02A2DF9
:102FB000229526952770220F220F8A2D8F70C82EFA
:102FC000D12CE12CF12C022E04C0CC0CDD1CEE1C0B
:102FD000FF1C0A94D2F7A4FE10C06FE070E080E0FE
:102FE00090E004C0660F771F881F991F2A95D2F7BB
:102FF000609570958095909503C060E070E0CB017E
:10300000242F26952695237030E02230310569F073
:103010002330310589F06C297D298E299F292130A3
:10302000310571F00E94241EABC06C297D298E29C8
:103030009F290E943E1EA4C00E94241EC701B60103
:103040000E940A1E9DC00A2D10E0F801E05EF10901
:10305000E531F10508F053C0EA59FF4F0C94F63002
:103060001A2D1F70842F8F71FF2021F00E94A31D45
:10307000812F0ECF0E94C41D812F0E949C1680C0FC
:10308000FF2049F0F4E0FE1508F47AC0842F8F7118
:103090000E94E91D75C085E08E1508F471C0F6CF59
:1030A000FF2039F0842F8F710E94A31D69C0FF207B
:1030B000C9F3842F8F710E94C41D62C0FF2029F0C4
:1030C000842F8F710E948E1D5BC00E94841D58C08A
:1030D000FF2051F0142F1F71812F0E94A31D63E068
:1030E000812F0E94B21E4CC081E00E94BB1E91E065
:1030F0009E1508F045C082E00E94BB1E41C0FF2023
:1031000031F0EE2079F28A2D0E94731539C0EE203D
:1031100081F28A2D0E94461633C04F706A2DC40179
:103120000E94E8080E94AB1C2BC0F11029C0942F0C
:103130009F70492F50E042305105B9F04CF44115D1
:10314000510581F041305105D9F40E94A92518C0DC
:103150004330510569F04430510591F48A2D0E94A5
:10316000FD250EC00E9492250BC00E94C52508C0F7
:103170000E94D82505C04F706A2DC4010E94EB083B
:10318000BB20F1F00E94AE1E80FD1AC0F401128235
:103190000E94A81E0E94A31DC4010E94EE180E9456
:1031A000A81E0F90DF91CF911F910F91FF90EF908C
:1031B000DF90CF90BF90AF909F908F900C94C41DE4
:1031C0000F90DF91CF911F910F91FF90EF90DF90C3
:1031D000CF90BF90AF909F908F9008950F931F93C3
:1031E000CF93DF93EC01288139818B819C81892BDE
:1031F00031F03F3F11F080E003C02F3FE1F781E065
:10320000811113C0CE010E940506882371F06881E8
:1032100079818A810E94A41E8C010E94581E0E94FE
:103220002B1DB801CE010E94A316DF91CF911F91F3
:103230000F9108950E94771F0E94871F0E944C1FC4
:103240000E94A31F0E9461230E94B52280E090E0AB
:103250000E94551480E090E00C946B140E94671F4C
:103260000C941A190E94991E292F22952F7030E074
:103270002C3031054CF42A3031056CF422503109E0
:1032800022303105B0F407C02C30310571F02F30F9
:10329000310559F00EC0803F31F018F4803E48F4FB
:1032A00002C0843F31F481E0089593FB882780F9C0
:1032B000089580E00895CF93DF9300D000D01F924F
:1032C000CDB7DEB70F900F900F900F900F90DF915A
:1032D000CF910895CF93DF9300D000D000D0CDB729
:1032E000DEB726960FB6F894DEBF0FBECDBFDF91D6
:1032F000CF9108951F93CF93DF93C0913A0416E0C6
:1033000080913B04C81799F0D0E01C9FF0011D9FED
:10331000F00D1124E45CFB4F408151816281738187
:10332000848195810E946A192196C770E9CFDF9147
:10333000CF911F91089540916C0450916D0460915C
:103340006E0470916F0480917004909171040C94DC
:103350006A19CF938091710482958F7009F05FC0D4
:1033600080916E04882309F45AC020913A04A091F8
:103370003B0460916C0470916D0480916F04909196
:10338000700431E06F3F09F030E0B32FC6E02A1738
:1033900009F445C0009721F07F3F21F44B2F03C073
:1033A00041E001C040E030E040FD35C0C29FF00187
:1033B000C39FF00D1124E45CFB4F418174132BC0BB
:1033C0004081641328C04281411125C0438154814A
:1033D0004817590710F441505109481B590B4C32FA
:1033E0005140C8F4809171048F70806180937104A2
:1033F00086E0829FF001839FF00D1124EF5BFB4F6D
:1034000080818F70806180838CE694E00E94EE184A
:10341000CF910C947A192F5F3F4F2770B8CFCF917F
:103420000895CF92DF92EF92FF920F931F93CF9365
:10343000DF93CDB7DEB762970FB6F894DEBF0FBE4D
:10344000CDBF8C0185E0F801DE011D9601900D9243
:103450008A95E1F7D8014C9111965C9111971296DB
:103460006C9112971396ED90FC90149770916C04E8
:10347000E0916D0420916F043091700421153105A5
:1034800031F0EF3F31F481E07F3F19F403C081E078
:1034900001C080E0B82FB170CB2E80FD6DC1D090FF
:1034A0006E04DD2009F4F6C0F0917104E216F30613
:1034B00038F0C701821B930B8C32914048F09CC0BE
:1034C000209530952E0D3F1D2C32314008F094C0D0
:1034D0008F2F807F09F053C0E51315C0741313C0FC
:1034E000D62E611110C0FF70F061F09371040E943C
:1034F0009B198CE694E00E94EE1880917104D8012B
:1035000015968C936BC1EF2831F05F3F31F481E069
:103510004F3F19F403C081E001C080E080FD03C08B
:1035200081E0862701C080E0B82FB170FB2E80FFBC
:103530001CC080913A0420913B0436E0821709F4C4
:1035400028C190E0389FF001399FF00D1124E45C10
:10355000FB4F7181571306C07081471303C07281FE
:10356000671303C001968770E9CFD62E662309F44E
:1035700035C18091710481608093710453C0E5135B
:1035800008C0741306C0611104C0D8011596FC93DD
:10359000AEC04D875E878D859E856A8B0E943219ED
:1035A0006A89882329F1D62E662311F120917104AE
:1035B000822F82958F7090E002970CF460C080910A
:1035C0006C0490916D0498878F831986FB86EA8638
:1035D0002C87CE01079651C0E51731F14D875E87E4
:1035E0008D859E856A8B0E9432196A8981112EC051
:1035F000C8010E94EE18A4C08F2F807F69F77E2D2E
:10360000F98AE88A89890E945B198CE694E00E9415
:10361000EE18ECE6F4E086E0DF011D928A95E9F70A
:103620000E949B19D12CDAC07413D8CF6111D6CF68
:10363000D8011596FC93C8010E94EE18ECE6F4E060
:1036400086E0DF011D928A95E9F7C8C0D62E662371
:1036500079F220917104822F82958F7090E0029709
:1036600074F080916C0490916D049A8389831B821D
:10367000FD82EC822E83CE0101960E94EE1886E038
:10368000F801ACE6B4E001900D928A95E1F70E9452
:10369000A9196FC0E216F30640F0C701821B930B15
:1036A0009C012C32314048F057C0209530952E0DAA
:1036B0003F1D2C32314008F04FC0D62E662309F44E
:1036C00097CFE51329C0741327C08091710480FD42
:1036D0001AC0982F92959F70B1F0F80185839F30A2
:1036E00031F09F5F9295907F8F70892B8583C80101
:1036F0000E94EE1886E0F801ACE6B4E001900D926D
:103700008A95E1F736C086E0F801ACE6B4E00190B6
:103710000D928A95E1F762C04D875E878D859E8503
:103720000E943219882379F086E0F801ACE6B4E013
:1037300001900D928A95E1F70E94A9190E949B19A8
:10374000DD24D3944BC08091710481608093710417
:10375000C8010E94EE1842C07E2DF98AE88A898944
:103760000E945B19ECE6F4E086E0DF011D928A9589
:10377000E9F70E949B1932C0662309F439CF4D87BF
:103780005E878D859E850E943219882309F430CF8B
:10379000CBCF4D875E878D859E850E94991E292FF0
:1037A00022952F7030E0223031052CF49F7041F0CB
:1037B000811106C00CC0243031052CF49F7049F4EF
:1037C000805E883020F0C8010E94EE18CF2CDC2CDF
:1037D00005C0F8019581907F99F7F9CF8D2D6296FC
:1037E0000FB6F894DEBF0FBECDBFDF91CF911F9112
:1037F0000F91FF90EF90DF90CF9008951F93CF939C
:10380000DF93CDB7DEB72C970FB6F894DEBF0FBEAF
:10381000CDBF4F83588769877A878B879C87CE0176
:1038200007960E94111A8823C1F02F8138858A8556
:103830009B85892B31F03F3F11F080E003C02F3F83
:10384000E1F781E0811147C04F81588569857A850C
:103850008B859C850E946A193EC086E0FE013796E2
:10386000DE01119601900D928A95E1F7FF81E885BE
:103870004A855B854115510531F0EF3F31F481E018
:10388000FF3F19F403C081E001C080E080FD23C048
:1038900020913B0430E0C90101968770992760911F
:1038A0003A0470E086179707F1F1F983EA835D83A4
:1038B0004C8396E0929FD001939FB00D1124A45C9D
:1038C000BB4FFE01319601900D929A95E1F78093DE
:1038D0003B040E947A1916E080913A0490913B04CF
:1038E000891779F1189FC0011124845C9B4F0E94B5
:1038F000111A882331F1E0913A041E9FF00111243E
:10390000E45CFB4F408151816281738184819581A8
:103910000E946A1980913A0490E001968770992775
:1039200080933A04D9CF0E942E1910923B04109232
:103930003A04ECE6F4E086E0DF011D928A95E9F7AF
:10394000CACF2C960FB6F894DEBF0FBECDBFDF9165
:10395000CF911F910895EF92FF920F931F93CF93F2
:10396000DF93FC01009709F46FC0F12CEE24E3947F
:10397000EF0121968491843740F4843008F055C0DB
:10398000813081F0823021F15FC0853709F447C072
:10399000C0F19CE7980F903708F056C08F770E94CF
:1039A000461645C08F010E5F1F4FFE01849190E2C5
:1039B000980F983050F48770FE2D01C0FF0F8A9544
:1039C000EAF78F2F0E947A1F15C00E94731514C04A
:1039D0008F010E5F1F4FFE01849190E2980F983087
:1039E00068F48770FE2D01C0FF0F8A95EAF78F2FCC
:1039F0000E94801F0E94A31FE80119C00E94461662
:103A0000FBCFCF010296FE01C491CC2361F0EFE918
:103A1000FFE03197F1F700C00000C150F6CFCF01B1
:103A20000296FE01F490EC0102C00E9473158F2DE6
:103A3000882341F0EFE9FFE03197F1F700C0000083
:103A40008150F6CFFE0194CFDF91CF911F910F915E
:103A5000FF90EF9008950895609376047093770433
:103A600080937804909379040C941A190F931F9300
:103A700000917604109177042091780430917904B4
:103A8000062B172B282B392B0093760410937704E1
:103A900020937804309379041F910F910C941A1994
:103AA0000F931F930091760410917704209178046E
:103AB00030917904062317232823392300937604B1
:103AC0001093770420937804309379041F910F9119
:103AD0000C941A190F931F93009176041091770498
:103AE0002091780430917904062717272827392751
:103AF000009376041093770420937804309379042C
:103B00001F910F910C941A19109272041092730461
:103B100010927404109275040C941A1941E050E04C
:103B200060E070E004C0440F551F661F771F8A9540
:103B3000D2F74093720450937304609374047093AB
:103B400075040C941A1941E050E060E070E004C084
:103B5000440F551F661F771F8A95D2F78091720414
:103B600090917304A0917404B0917504842B952BEB
:103B7000A62BB72B8093720490937304A0937404C4
:103B8000B09375040C941A1941E050E060E070E0C5
:103B900004C0440F551F661F771F8A95D2F74095C2
:103BA0005095609570958091720490917304A091E6
:103BB0007404B091750484239523A623B7238093BE
:103BC000720490937304A0937404B09375040C94DE
:103BD0001A1941E050E060E070E004C0440F551F46
:103BE000661F771F8A95D2F78091720490917304B3
:103BF000A0917404B091750484279527A627B72750
:103C00008093720490937304A0937404B09375042A
:103C10000C941A190F931F9300917204109173045E
:103C20002091740430917504062B172B282B392B07
:103C300000937204109373042093740430937504FA
:103C40001F910F910C941A190F931F9300917204F6
:103C50001091730420917404309175040623172386
:103C6000282339230093720410937304209374045F
:103C7000309375041F910F910C941A190F931F9391
:103C800000917204109173042091740430917504B2
:103C900006271727282739270093720410937304E7
:103CA00020937404309375041F910F910C941A198A
:103CB0000895CF92DF92EF92FF920F931F93CF93CD
:103CC000DF93EC01C0907604D0907704E090780404
:103CD000F09079048091720490917304A09174041F
:103CE000B0917504C82AD92AEA2AFB2A0FE110E00C
:103CF000B701A601002E04C07695679557954795A4
:103D00000A94D2F740FD05C00150110988F780E000
:103D100007C0BE01802F0E9439070197A9F3802FA9
:103D2000DF91CF911F910F91FF90EF90DF90CF9097
:103D30000895CF93DF93EC010E94591EBE010E94AB
:103D40003907DF91CF910895CB010E94991E089504
:103D500080917A04859585958595089580917A045A
:103D60008770089598E0899F90011124622B6093D9
:103D70007A040C94A31D40917A0480958423809347
:103D80007A04982F977069F450E0282F332727FD85
:103D900030954217530729F08595859585950C94A4
:103DA000C41D089590917A04977081E009F480E031
:103DB00008959091AE029923D9F090919B02992396
:103DC000B9F0982F9695969596959F3088F5E09145
:103DD0009C02F0919D02E90FF11D877021E030E017
:103DE00001C0220F8A95EAF78181822B8183089591
:103DF00040919C0250919D0220E030E09FEFFA013B
:103E0000E20FF31F6281681799F09F3F19F4611167
:103E100001C0922F2F5F3F4F2E30310581F79F3F1A
:103E200039F0FA01E90FF11D97FDFA9582830895A3
:103E300008959091AE029923E1F090919B0299230D
:103E4000C1F0982F9695969596959F3020F5E09124
:103E50009C02F0919D02E90FF11D877021E030E096
:103E600001C0220F8A95EAF72095818128232183BA
:103E7000089540919C0250919D0220E030E0FA01AB
:103E8000E20FF31F9281981301C012822F5F3F4F00
:103E90002E303105A1F7089581E090E0E0919C0279
:103EA000F0919D02E80FF91F108201968031910573
:103EB000A9F7089590918E04982B90938E040895FD
:103EC000809590918E04982390938E04089510927B
:103ED0008E04089590918D04982B90938D040895ED
:103EE000809590918D04982390938D04089510925D
:103EF0008D04089590918C04982B90938C040895D0
:103F0000809590918C04982390938C04089510923E
:103F10008C04089580937B04089510927B04089587
:103F200040919C0250919D0220E030E080E0FA0137
:103F3000E20FF31F918191118F5F2F5F3F4F2F3061
:103F40003105A9F70895E0919C02F0919D028091BE
:103F50008E048083E0919C02F0919D02808190917B
:103F60008D04892B8083E0919C02F0919D028081D9
:103F700090918C04892B808390917B04992361F02C
:103F8000E0919C02F0919D028081892B80830E94A8
:103F9000901F811110927B0480919C0290919D0250
:103FA0000C943F146DEE7EEF80E090E00E941C3197
:103FB00060E082E090E00E940A3160E083E090E0FF
:103FC0000E940A3160E084E090E00E940A3160E0E3
:103FD00085E090E00E940A3160E086E090E00E9477
:103FE0000A316FEF87E090E00C940A3180E090E0B6
:103FF0000E94043121E08D3E9E4F09F020E0822F87
:10400000089582E090E00C94FC3083E090E00C9402
:10401000FC30682F83E090E00C940A3184E090E05B
:104020000C94FC30682F84E090E00C940A3186E018
:1040300090E00C94FC30682F86E090E00C940A31FC
:1040400087E090E00C94FC30682F87E090E00C94BF
:104050000A318091C504843039F11092900420E433
:1040600088E190E00FB6F894A895809360000FBEA9
:104070002093600080E00E94C20580E00E94F2056B
:1040800083B7817F846083BF83B7816083BF789467
:10409000889583B78E7F83BF88E10FB6F8948093AD
:1040A0006000109260000FBE089508950895CF93A8
:1040B00080E00E94C2050E9455200E94350A0E949D
:1040C0005620C0E08C2F0E94D60A892B29F4CF5F9E
:1040D000C430C1F780E001C081E0CF9108950E9413
:1040E0002E1980E00E94C2050E9481250E9433148F
:1040F0000C94F2051F920F920FB60F9211248F931A
:104100009F93AF93BF9380919004811113C08091CE
:10411000910490919204A0919304B09194044196DB
:10412000A11DB11D8093910490939204A0939304D8
:10413000B0939404BF91AF919F918F910F900FBE58
:104140000F901F90189582E084BD93E095BD9AEF83
:1041500097BD80936E0008952FB7F89480919104D5
:1041600090919204A0919304B09194042FBF08956C
:10417000CF92DF92EF92FF920F931F932FB7F89495
:104180004091910450919204609193047091940431
:104190002FBF6A017B01EE24FF248C0120E030E078
:1041A000C016D106E206F30610F441505109481B2F
:1041B000590BCA011F910F91FF90EF90DF90CF90A4
:1041C00008951F920F920FB60F9211248F939F9311
:1041D000AF93BF938091910490919204A091930426
:1041E000B09194040196A11DB11D80939104909308
:1041F0009204A0939304B0939404BF91AF919F91C4
:104200008F910F900FBE0F901F9018950E940B2A50
:10421000F8942FEF87EA91E6215080409040E1F733
:1042200000C0000087E090EBDC018093CE04909307
:10423000CF04A093D004B093D1042CE088E190E0A7
:104240000FB6F894A895809360000FBE209360008D
:10425000FFCF0E94F61F811102C00E94D21F0E9450
:10426000012080938F040E940E2090E09093BF0461
:104270008093BE0487FB882780F980939B020E946D
:104280000520682F70E080E090E00C942C1D809158
:10429000970480FF0BC06091A10285E0689FB00188
:1042A000112475956795759567952AC081FF09C09A
:1042B0006091A10285E0689FB00111247595679512
:1042C0001FC082FF07C06091A10285E0689FB00116
:1042D000112416C0409198044423C9F06091A002B3
:1042E000461788F72091A10285E0289F90011124AC
:1042F000429FC001439F900D112470E00E94E23064
:104300006038710540F46115710539F002C065E04F
:1043100070E0862F08958FE7089581E008958091D9
:10432000970480FF08C060919F0270E075956795C3
:104330007595679521C081FF06C060919F0270E06E
:104340007595679519C082FF04C060919F0270E067
:1043500010C0809198048823C1F060919E02861756
:10436000A0F790919F02989FC001112470E00E94D5
:10437000E2306038710528F46115710521F0862F4F
:1043800008958FE7089581E0089561E070E0F4CF2B
:10439000803F21F40E944721819504C0813F29F488
:1043A0000E94472180939B040895823F21F40E943C
:1043B0004721819504C0833F29F40E9447218093BF
:1043C0009A040895893F19F40E948F2105C08A3FFD
:1043D00031F40E948F21819580939C0408958B3F36
:1043E00021F40E948F21819504C08C3F29F40E9402
:1043F0008F2180939D040895843F21F48091990436
:10440000816017C0853F21F480919904826011C0BA
:10441000863F21F48091990484600BC0873F21F48A
:1044200080919904886005C0883F31F48091990497
:1044300080618093990408958D3F21F480919704C1
:1044400081600BC08E3F21F480919704826005C08B
:104450008F3F29F480919704846080939704089596
:10446000803F39F480919B0487FF6CC010929B04BD
:1044700069C0813F29F480919B041816BCF362C087
:1044800090919A04823F29F497FF5CC010929A049D
:1044900059C0833F19F41916CCF354C0893F41F435
:1044A00080919C0418160CF04DC010929C044AC0D8
:1044B0008A3F29F480919C0487FF44C0F6CF8B3F4C
:1044C00039F480919D0487FF3DC010929D043AC04D
:1044D0008C3F29F480919D041816BCF333C0843FAF
:1044E00021F4809199048E7F17C0853F21F480913B
:1044F00099048D7F11C0863F21F4809199048B7FB0
:104500000BC0873F21F480919904877F05C0883FC5
:1045100031F4809199048F7E8093990413C08D3F6C
:1045200021F4809197048E7F0BC08E3F21F48091FF
:1045300097048D7F05C08F3F29F4809197048B7F6E
:104540008093970480919A0481110EC080919B04FE
:1045500081110AC080919C04811106C080919D0444
:10456000811102C010929804089589E994E00E9494
:104570004A140E94AC209093960480939504089569
:104580001F93CF93DF9380919504909196040E949E
:10459000B82040919804442321F02091A20230E0F9
:1045A00006C02091A3025AE0259F90011124821792
:1045B000930708F482C080919A0410919B04D091D3
:1045C0009C04C0919D04811107C0111105C0D11137
:1045D00003C0CC2309F471C04F3F19F04F5F4093E3
:1045E0009804181624F40E94472180939A0480911D
:1045F0009A0487FF05C00E944721819580939A0401
:10460000111624F40E94472180939B0480919B04FF
:1046100087FF05C00E944721819580939B0460918C
:104620009A04662339F110919B04112319F177271D
:1046300067FD7095872F972F0E94042E23E333E3A5
:1046400043E35FE30E94142F0E94D12D60939A04EC
:10465000612F772767FD7095872F972F0E94042E73
:1046600023E333E343E35FE30E94142F0E94D12D41
:1046700060939B041D1624F40E948F2180939C0458
:1046800080919C0487FF05C00E948F2181958093B3
:104690009C041C1624F40E948F2180939D04809119
:1046A0009D0487FF05C00E948F21819580939D0402
:1046B000DF91CF911F910C94B522DF91CF911F9183
:1046C0000895E9E9F4E085E0DF011D928A95E9F7B4
:1046D00010929804109297040895833081F128F481
:1046E000813059F08230D1F00895853009F449C005
:1046F000B8F1863009F456C008952091A302862FA0
:1047000090E0820F911D8F3F910520F4620F60931E
:10471000A30208958FEF8093A30208952091A2022F
:10472000862F90E0820F911D8F3F910520F4620F3C
:104730006093A20208958FEF8093A20208952091C2
:10474000A102862F90E0820F911D8F3F910520F4EA
:10475000620F6093A10208958FEF8093A1020895E4
:104760002091A002862F90E0820F911D8F3F91052E
:1047700020F4620F6093A00208958FEF8093A0024F
:10478000089520919F02862F90E0820F911D8F3F08
:10479000910520F4620F60939F0208958FEF80933C
:1047A0009F02089520919E02862F90E0820F911D16
:1047B0008F3F910520F4620F60939E0208958FEF62
:1047C00080939E020895833011F128F4813049F0DE
:1047D000823091F00895853081F120F18630C1F169
:1047E00008958091A302681720F4861B8093A3028A
:1047F00008951092A30208958091A202681720F4F0
:10480000861B8093A20208951092A20208958091BF
:10481000A102681720F4861B8093A10208951092CC
:10482000A10208958091A002681720F4861B80934E
:10483000A00208951092A002089580919F02681727
:1048400020F4861B80939F02089510929F02089582
:1048500080919E02681720F4861B80939E02089523
:1048600010929E020895873220F58E3108F08EC096
:10487000803109F46FC070F4873009F447C018F430
:10488000863089F12EC08B3009F496C08E3009F441
:1048900057C027C0863109F48FC020F4813109F454
:1048A0006AC01FC0893109F487C08B3109F43EC04A
:1048B00018C0883309F480C050F4893209F474C0F8
:1048C000853309F471C0873209F46EC00AC083349D
:1048D00009F46AC020F48A3308F056C002C0883454
:1048E00061F080E0089580918F04817F8E7F8093B6
:1048F0008F0481E080939F0408950E942E190E94E6
:10490000C30C0E9437050E94062156C090918F0467
:10491000892F8095817080FB90F919F096609860DE
:1049200027C0997F977F90938F0446C090918F0402
:1049300091FB882780F921E0822780FB91F913C041
:1049400090918F0492FB882780F921E0822780FBD9
:1049500092F909C090918F0493FB882780F921E098
:10496000822780FB93F990938F04882329F191602B
:1049700090938F0408950E942E1980919B0291E0DC
:10498000892780939B0218C027EC01C023EE280FD3
:1049900061E070E080E090E004C0660F771F881F40
:1049A000991F2A95D2F704C061E070E080E090E0A2
:1049B0000E942C1D0E942E1981E0089580E0089528
:1049C00080E008958E518A3030F4E82FF0E0E65B05
:1049D000FC4F8081089580E00895CF93C82F809187
:1049E0009F04813069F018F08230B1F180C0E0910D
:1049F0009C02F0919D028081823209F07AC007C04A
:104A0000E0919C02F0919D028081823249F48C2FCA
:104A10000E94DE2481111DC08C2F0E9433241AC0F5
:104A20008C2F0E94E024811114C0C43179F048F425
:104A3000CB3079F0C03109F060C082E080939F04F0
:104A400008C0C93219F0C83321F057C010929F0432
:104A500054C081E0817053C0C93289F118F5C43166
:104A600071F1B0F4C73009F046C08EE18093A30223
:104A700082E38093A2028AE08093A10284E1809382
:104A8000A00288E080939F0288E280939E0233C058
:104A900082EE8C0F863078F58C2F0E94E224809372
:104AA0009E0429C0CE34E9F020F4CB3421F56AE02D
:104AB00013C0C13579F0C235F1F461E00DC08091C9
:104AC0009E04882319F010929E0415C081E0809303
:104AD0009F0415C061E006C080919E040E946D2372
:104AE0000AC06AE080919E040E94E32304C01092F1
:104AF0009F0480E004C081E002C080E0ABCFCF9192
:104B000008950E94F61F811102C00E94D21F0E94C8
:104B100017208093C00480FF02C0869501C080E00A
:104B20000C94C2058091C004982F9695292F30E0EF
:104B3000233031054CF49F5F990F8170892B816080
:104B40008093C0040E941B208091C00486950C9421
:104B5000C2058091C004982F969591F09158990FB5
:104B60008170892B8093C0048E7F91E009F490E0DE
:104B70008091C00490FB80F98093C0040E941B20A8
:104B80008091C00486950C94C2058091C004982F32
:104B9000909590FB80F98093C0040E941B20809127
:104BA000C00480FF02C0869501C080E00C94C2055D
:104BB0003091C004232F26952F5F2F77822F90E00E
:104BC000317004972CF4220F232B2093C00402C0D1
:104BD0003093C0048091C0048E7F91E009F490E08E
:104BE0008091C00490FB80F98093C0040E941B2038
:104BF0008091C00486950C94C2052091C004922F28
:104C000096959827990F822F8170892B8093C004E5
:104C10008E7F91E009F490E08091C00490FB80F9D0
:104C20008093C0040E941B208091C00486950C9440
:104C3000C2058091B0040895CF93DF9300D01F92F6
:104C4000CDB7DEB72091C504243019F523E02983C0
:104C50009B838A832093E9008FEF9091E800815035
:104C600095FD06C095ED9A95F1F700008111F5CFFD
:104C70008091E80085FF0DC040E050E063E070E007
:104C8000CE0101960E9479288091E8008E7780936A
:104C9000E8000F900F900F90DF91CF910895CF9380
:104CA000DF9300D01F92CDB7DEB72091C50424302A
:104CB00021F522E029839B838A8383E08093E900A6
:104CC0008FEF9091E800815095FD06C095ED9A9583
:104CD000F1F700008111F5CF8091E80085FF0DC04C
:104CE00040E050E063E070E0CE0101960E94792838
:104CF0008091E8008E778093E8000F900F900F90DE
:104D0000DF91CF9108952091C5042430F1F422E081
:104D10002093E9002FEF3091E800215035FD06C0C7
:104D200035ED3A95F1F700002111F5CF2091E8001B
:104D300025FF0BC040E050E065E070E00E9479285C
:104D40008091E8008E778093E8000895CF93DF93F9
:104D5000EC018091C504843009F046C09091AE0208
:104D60009923D9F090919B029923B9F08093E9009F
:104D70008FEF9091E800815095FD06C095E19A95DE
:104D8000F1F700008111F5CF8091E80085FF2CC07C
:104D900040E050E060E170E017C081E08093E900FE
:104DA0008FEF9091E800815095FD06C095ED9A95A2
:104DB000F1F700008111F5CF8091E80085FF14C064
:104DC00040E050E068E070E0CE010E9479288091D8
:104DD000E8008E778093E80080E1FE01A0EAB4E06D
:104DE00001900D928A95E1F7DF91CF91089580911E
:104DF000C404811109C00E940B2A0E94682A809174
:104E0000E20084608093E20008951092C404089543
:104E1000089508950C946F2042E061EC81E00E94B7
:104E2000852942E061EC82E00E94852942E061EC44
:104E300083E00E94852942E161EC84E00C9485299D
:104E40008091C704833009F455C030F4813071F08B
:104E5000823009F48EC008958A3009F47AC08B300C
:104E600009F460C0893009F09CC020C08091C6045C
:104E7000813A09F096C08091E800877F8093E8002E
:104E80008091CA049091CB04892B21F060E080E0EE
:104E900090E003C060E180EA94E070E00E94C228E4
:104EA0008091E8008B778093E80008958091C60494
:104EB000813209F076C08091CA049091CB040097AA
:104EC00019F0039709F06DC08091E800877F809307
:104ED000E8008091E80082FD05C08091C504811141
:104EE000F8CF5FC08091F1008093B0048091E8001A
:104EF0008B7753C08091C604813A09F052C08091EB
:104F0000CA049091CB04892B09F04BC08091E80032
:104F1000877F8093E8008091E80080FFFCCF80913C
:104F2000AE0236C08091C6048132D9F58091CA04A0
:104F30009091CB04892BA9F58091E800877F80931D
:104F4000E8000E94BA298091C8048093AE020C94B4
:104F50002E198091C604813221F58091E800877F67
:104F60008093E8000E94BA298091C9048093B1041B
:104F700008958091C604813AA1F48091E800877F6A
:104F80008093E8008091E80080FFFCCF8091B1041D
:104F90008093F1008091E8008E778093E8000C9474
:104FA000BA29089584B7877F84BF88E10FB6F89443
:104FB00080936000109260000FBE80E880936100D3
:104FC000109261000E9482140E940B2A0E94682A9B
:104FD0008091E20084608093E20078940E94E32C48
:104FE0000E94841484EA92E00E942E148091C504E9
:104FF000853069F40E9429208091C3048823B1F38D
:105000000E945720882391F30E946328EFCF0E94CB
:105010008C14ECCF292F332723303105A9F06CF401
:105020002130310509F442C02230310509F043C076
:105030008DE690E028E435E042C021323105C9F028
:105040002232310519F137C099278130910541F09D
:105050008230910541F0892B71F5E4E4F5E005C05B
:10506000E6E1F5E002C0ECEEF4E0849190E09F010F
:1050700026C0643000F5E62FF0E0EE0FFF1FE05A87
:10508000FC4F2081318189E090E019C0643098F4B0
:10509000E62FF0E0DF01AA0FBB1FA85ABC4F2D91ED
:1050A0003C91EC5AFC4F808190E009C082E190E095
:1050B00025EB35E004C080E090E020E030E0FA012C
:1050C00031832083089580E189BD82E189BD09B4DF
:1050D00000FEFDCF8091D8008F7D8093D800809115
:1050E000E00082608093E0008091E00081FDFCCFD1
:1050F0000895CF92DF92EF92FF920F931F93CF9379
:10510000DF937C018B01EA010E94DB29811131C010
:10511000209731F088819981081B190BE80EF91E40
:10512000C12CD12C0115110519F18091E80085FDE4
:1051300014C08091E8008E778093E800209741F0BA
:10514000888199818C0D9D1D9983888385E011C08C
:105150000E94DB29882331F30CC0F70181917F0184
:105160008093F10001501109FFEFCF1ADF0ADACF67
:1051700080E0DF91CF911F910F91FF90EF90DF9032
:10518000CF9008952091CC043091CD042617370795
:1051900048F06115710539F42091E8002E772093CD
:1051A000E80001C0B901FC0120E061157105B9F109
:1051B0008091C504882309F440C0853009F43FC0BC
:1051C0008091E80083FD3DC08091E80082FF06C029
:1051D0008091E80082FF26C080E008958091E80079
:1051E00080FFE3CF2091F3008091F20090E0922BBA
:1051F0006115710551F08830910538F421912093A3
:10520000F100615071090196F3CF21E0089709F090
:1052100020E08091E8008E778093E800C6CF2111CE
:10522000C7CFD6CF8091C504882339F0853039F0B7
:105230008091E80083FFCCCF04C082E0089583E032
:10524000089581E008952091CC043091CD04261773
:10525000370748F06115710539F42091E8002E7781
:105260002093E80001C0B901FC0120E0611571053F
:10527000C1F18091C504882309F441C0853009F447
:1052800040C08091E80083FD3EC08091E80082FF2D
:1052900006C08091E80082FF27C080E008958091D9
:1052A000E80080FFE3CF2091F3008091F20090E0CE
:1052B000922B6115710559F08830910540F42491C5
:1052C0002093F1003196615071090196F2CF21E0EF
:1052D000089709F020E08091E8008E778093E8003D
:1052E000C5CF2111C6CFD5CF8091C504882339F011
:1052F000853039F08091E80083FFCBCF04C082E095
:10530000089583E0089581E00895982F973058F527
:105310009093E900981739F07091EC002091ED001E
:105320005091F00003C0242F762F50E021FF19C0C8
:105330003091EB003E7F3093EB003091ED003D7FEC
:105340003093ED003091EB0031603093EB007093BF
:10535000EC002093ED005093F0002091EE0027FF29
:1053600007C09F5FD3CF8F708093E90081E00895DD
:1053700080E008958091C60487FD05C08091E80013
:1053800080FF0EC012C08091E80082FD05C08091B0
:10539000C5048111F8CF08958091E8008B7708C08B
:1053A0008091C5048111EACF08958091E8008E773D
:1053B0008093E80008958091E4009091E50045E62F
:1053C0002091EC0020FF21C02091E80020FD21C0A9
:1053D0002091C504222389F0253089F02091EB002B
:1053E00025FD0FC02091E4003091E5002817390712
:1053F00039F3415041F0C901E3CF82E0089583E0E1
:10540000089581E0089584E008952091E80022FF46
:10541000DFCF80E008950E94792A0E94812AE0EE81
:10542000F0E0808181608083E8EDF0E080818F771B
:10543000808319BCA7EDB0E08C918E7F8C93808126
:105440008F7E80831092C40408950F931F93CF938F
:10545000DF930E94792A0E94812AC8EDD0E08881DA
:105460008F77888388818068888388818F7D88830F
:1054700019BC1092C5041092C1041092C30410927A
:10548000C20400EE10E0F80180818B7F8083888168
:105490008160888342E060E080E00E948529E1EE3F
:1054A000F0E080818E7F8083E2EEF0E08081816099
:1054B0008083808188608083F80180818E7F8083F3
:1054C000888180618883DF91CF911F910F9108952A
:1054D000E8EDF0E080818F7E8083E7EDF0E0808171
:1054E0008160808384E082BF81E08093C4040C9457
:1054F000252AE8EDF0E080818E7F80831092E20023
:1055000008951092DA001092E10008951F920F9210
:105510000FB60F9211242F933F934F935F936F9386
:105520007F938F939F93AF93BF93EF93FF9380915C
:10553000E10082FF0BC08091E20082FF07C08091F2
:10554000E1008B7F8093E1000E94E22C8091DA00E1
:1055500080FF1FC08091D80080FF1BC08091DA00BF
:105560008E7F8093DA008091D90080FF0DC080E1AA
:1055700089BD82E189BD09B400FEFDCF81E0809341
:10558000C5040E94F72605C019BC1092C5040E94EC
:1055900005278091E10080FF19C08091E20080FF23
:1055A00015C08091E2008E7F8093E2008091E2003E
:1055B00080618093E2008091D80080628093D8005F
:1055C00019BC85E08093C5040E9409278091E10001
:1055D00084FF30C08091E20084FF2CC080E189BD4F
:1055E00082E189BD09B400FEFDCF8091D8008F7D96
:1055F0008093D8008091E1008F7E8093E1008091BC
:10560000E2008F7E8093E2008091E20081608093CF
:10561000E2008091C104882311F084E007C08091EA
:10562000E30087FF02C083E001C081E08093C504EE
:105630000E940A278091E10083FF29C08091E20047
:1056400083FF25C08091E100877F8093E10082E0A5
:105650008093C5041092C1048091E1008E7F8093F5
:10566000E1008091E2008E7F8093E2008091E20071
:1056700080618093E20042E060E080E00E94852942
:105680008091F00088608093F0000E940827FF91CD
:10569000EF91BF91AF919F918F917F916F915F91AA
:1056A0004F913F912F910F900FBE0F901F90189523
:1056B0001F920F920FB60F9211242F933F934F9387
:1056C0005F936F937F938F939F93AF93BF93CF938A
:1056D000EF93FF93C091E900CF708091EC0010929E
:1056E000E9008091F000877F8093F00078940E9419
:1056F000942B1092E9008091F00088608093F00074
:10570000C093E900FF91EF91CF91BF91AF919F912D
:105710008F917F916F915F914F913F912F910F905A
:105720000FBE0F901F9018951F93CF93DF93CDB7A7
:10573000DEB7AA970FB6F894DEBF0FBECDBFE6EC7A
:10574000F4E08091F100819324E0EE3CF207C9F788
:105750000E9420278091E80083FF1CC12091C6048D
:105760003091C704832F90E08A30910508F012C170
:10577000FC01E558FF4F0C94F630203881F02238B8
:1057800009F008C18091CA048F708093E90080916C
:10579000EB0085FB882780F91092E90006C0809114
:1057A000C2049091C304911182609091E800977FA8
:1057B0009093E8008093F1001092F100C5C0822F11
:1057C0008D7F09F0E7C0222319F0223061F0E2C09A
:1057D0008091C804813009F0DDC0333009F080E0E9
:1057E0008093C30428C08091C804811124C02091F3
:1057F000CA042F7009F4CEC02093E9008091EB0019
:1058000080FF19C08091EB00333011F4806211C029
:1058100080618093EB0081E090E0022E01C0880F50
:105820000A94EAF78093EA001092EA008091EB0074
:1058300088608093EB001092E9008091E800877FF8
:1058400086C02111A7C01091C8041F778091E30082
:105850008078812B8093E3008091E800877F80939C
:10586000E8000E94BA298091E80080FFFCCF809177
:10587000E30080688093E300112311F083E001C00E
:1058800082E08093C50486C02058223008F082C090
:105890008091C8049091C9048C3D23E0920779F56A
:1058A00083E08A838AE289834FB7F894DE011396F6
:1058B00020E03EE051E2E32FF0E050935700E49106
:1058C00020FF03C0E295EF703F5FEF708E2F90E0F6
:1058D000EA3010F0C79601C0C0968D939D932F5F5C
:1058E000243149F74FBF8091E800877F8093E8001B
:1058F0006AE270E0CE0101960E94C22814C0AE0197
:105900004F5F5F4F6091CA040E940A28009709F414
:1059100041C02091E800277F2093E800BC018981E5
:105920009A810E9423298091E8008B778093E80078
:1059300031C0203879F58091E800877F8093E800B6
:105940008091C1048093F1008091E8008E7780936C
:10595000E8000E94BA291EC021111CC09091C80401
:105960009230C0F48091E800877F8093E8009093A4
:10597000C1040E94BA298091C104811104C08091A0
:10598000E30087FF02C084E001C081E08093C5048A
:105990000E940C278091E80083FF0AC08091E800F4
:1059A000877F8093E8008091EB0080628093EB001A
:1059B000AA960FB6F894DEBF0FBECDBFDF91CF9190
:1059C0001F9108950895CF938091C5048823B1F065
:1059D0008091E9008F709091EC0090FF02C090E8F8
:1059E00001C090E0C92FC82B1092E9008091E80017
:1059F00083FD0E94942BCF70C093E900CF9108954E
:105A00005058BB27AA270ED0D1C1C2D130F0C7D180
:105A100020F031F49F3F11F41EF4B7C10EF4E0956D
:105A2000E7FB9FC1E92FD3D180F3BA176207730751
:105A30008407950718F071F49EF5EBC10EF4E0951C
:105A40000B2EBA2FA02D0B01B90190010C01CA0138
:105A5000A0011124FF27591B99F0593F50F4503EE3
:105A600068F11A16F040A22F232F342F4427585FD5
:105A7000F3CF469537952795A795F0405395C9F7ED
:105A80007EF41F16BA0B620B730B840BBAF09150A5
:105A9000A1F0FF0FBB1F661F771F881FC2F70EC044
:105AA000BA0F621F731F841F48F487957795679517
:105AB000B795F7959E3F08F0B3CF9395880F08F000
:105AC0009927EE0F97958795089527D108F481E0DF
:105AD00008950CD06BC163D140F05AD130F021F45D
